:100000000C94780A0C94A70A0C94A70A0C94A70ADB
:100010000C94A70A0C94A70A0C94A70A0C94A70A9C
:100020000C94A70A0C94A70A0C94C5740C944275FE
:100030000C94A70A0C94A70A0C94A70A0C94A70A7C
:100040000C94A70A0C94C02E0C94A70A0C94A70A2F
:100050000C94A70A0C94A70A0C94A26D0C94B5708A
:100060000C94A70A0C94A70A0C94A70A0C94A70A4C
:100070000C94A70A0C94A70A0C94A70A0C94A70A3C
:100080000C94A70A0C94A70A0C94A70A0C94A70A2C
:100090000C94A70A0C94A70A084AD73B3BCE016EE2
:1000A00084BCBFFDC12F3D6C74319ABD56833DDACF
:1000B0003D00C77F11BED9E4BB4C3E916BAAAABEDE
:1000C000000000803F05A84CCDB2D44EB93836A907
:1000D000020C50B9918688083CA6AAAA2ABE000044
:1000E00000803F6563686F3A0043616E6E6F7420F5
:1000F000656E746572207375626469723A00457248
:10010000726F723A006572726F72207772697469E9
:100110006E6720746F2066696C65004E6F742053A3
:1001200044207072696E74696E67002F005344201A
:100130007072696E74696E67206279746520002E32
:100140000044656C6574696F6E206661696C6564F6
:100150002C2046696C653A200046696C6520646510
:100160006C657465643A002E006F70656E20666180
:10017000696C65642C2046696C653A200057726989
:1001800074696E6720746F2066696C653A20002E72
:10019000006F70656E206661696C65642C2046692D
:1001A0006C653A20002E006F70656E206661696C88
:1001B00065642C2046696C653A200046696C6520B0
:1001C00073656C6563746564002053697A653A00F1
:1001D00046696C65206F70656E65643A002E006F2D
:1001E00070656E206661696C65642C2046696C657B
:1001F0003A200053442063617264206F6B006F707B
:10020000656E526F6F74206661696C656400766F0D
:100210006C756D652E696E6974206661696C6564C4
:1002200000534420696E6974206661696C006563DF
:10023000686F3A0020746F6F206C6F6E672065786E
:1002400074727573696F6E2070726576656E746511
:10025000640020636F6C6420657874727573696FD5
:100260006E2070726576656E7465640024F404D93E
:10027000201BC40C5C0E9804C4095F026507710161
:10028000F405F900FB04B30048048700C1036900CA
:100290005803550003034500BE023A0084023100B2
:1002A00053022A002902250004022000E4011C0058
:1002B000C8011900AF011700980114008401130050
:1002C000710110006101100051010E0043010D0089
:1002D00036010B002B010B0020010B00150109005A
:1002E0000C01090003010800FB000800F3000800EE
:1002F000EB000700E4000600DE000600D800060060
:10030000D2000600CC000500C7000500C2000500B1
:10031000BD000400B9000400B5000400B1000400F1
:10032000AD000400A9000400A5000300A200030022
:100330009F0004009B00030098000300950002004A
:1003400093000300900003008D0002008B00030067
:100350008800020086000200840003008100020081
:100360007F0002007D0002007B0002007900020095
:1003700077000100760002007400020072000100A4
:10038000710002006F0002006D0001006C000200AD
:100390006A000100690002006700010066000100B8
:1003A00065000100640002006200010061000100BC
:1003B000600001005F0002005D0001005C000100C0
:1003C0005B0001005A0001005900010058000100C3
:1003D00057000100560001005500010054000100C3
:1003E00053000000530001005200010051000100C1
:1003F000500001004F0001004E0000004E000100BF
:100400004D0001004C0001004B0000004B000100BA
:100410004A000100490001004800000048000100B6
:1004200047000100460000004600010045000000B2
:1004300045000100440001004300000043000100AA
:1004400042000000420001004100000041000100A4
:10045000400001003F0000003F0001003E0000009E
:100460003E0001003D0000003D0001003C00000096
:100470003C0000003C0001003B0000003B0001008C
:100480003A0000003A000100390000003900010084
:10049000380000003800000038000100370000007C
:1004A0003700010036000000360000003600010071
:1004B0003500000035000000350001003400000068
:1004C000340000003400010033000000330000005D
:1004D0003300010032000000320000003200010051
:1004E0003100000031000000310001003000000048
:1004F00030000000300001002F0000002F0000003D
:100500002F0000002F0001002E0000002E00000030
:100510002E0001002D0000002D0000002D00000025
:100520002D0001002C0000002C0000002C00000019
:100530002C0001002B0000002B0000002B0000000D
:100540002B0001002A0000002A0000002A00000001
:100550002A000100290000002900000029000000F5
:1005600029000000290001002800000028000000E8
:1005700028000000280000002800010027000000DB
:1005800027000000270000002700000027000100CE
:1005900026000000260000002600000026000000C3
:1005A00026000100250000002500000025000000B5
:1005B00025000000250000002500010024000000A7
:1005C000240000002400000024000000240001009A
:1005D000230000002300000023000000230000008F
:1005E000230000002300000023000100220000007F
:1005F0002200000022000000220000002200000073
:100600002200010021000000210000002100000064
:100610002100000021000000210000002100010055
:10062000200000002000000020000000200000004A
:100630002000000020000000200000002000010039
:100640001F0000001F0000001F0000001F0000002E
:100650001F0000001F0000001F0001001E0000001E
:100660001E0000001E0000001E00000024F4D43014
:1006700050C38E20C2A24017828B7011127A910D46
:10068000816CD90AA861E108C75866076151430621
:100690001E4B5D05C145A7041A411104093D98038D
:1006A000713931034036DB0265339102D430540294
:1006B000802E1D02632CEE01752AC501B028A00111
:1006C000102781018F2564012B244B01E022340186
:1006D000AC211F018D200D01801FFC00841EED0048
:1006E000971DDF00B81CD200E61BC600201BBC0013
:1006F000641AB200B219A8000A19A0006A18990079
:10070000D117910040178B00B516840031167E007A
:10071000B31579003A157300C7146F0058146A00B6
:10072000EE1366008813630025135E00C7125B009A
:100730006C12570015125400C111510070114F0076
:1007400021114B00D61049008D104700461044007F
:1007500002104200C00F4000800F3E00420F3C00DC
:10076000060F3B00CB0E3800930E37005C0E3500B1
:10077000270E3400F30D3200C10D3100900D300012
:10078000600D2E00320D2D00050D2C00D90C2B0014
:10079000AE0C2900850C29005C0C2700350C2700C5
:1007A0000E0C2600E80B2400C40B2400A00B230031
:1007B0007D0B23005A0B2100390B2100180B200060
:1007C000F80A1F00D90A1E00BB0A1E009D0A1D0060
:1007D000800A1D00630A1C00470A1B002C0A1B002C
:1007E000110A1A00F7091A00DD091900C4091900D5
:1007F000AB091900920917007B091800630917005B
:100800004C09160036091600200916000A091500C1
:10081000F5081500E0081400CC081400B80814000E
:10082000A4081400900813007D0812006B08130040
:10083000580812004608120034081100230811005D
:100840001208110001081100F0071000E007100065
:10085000D0071000C0071000B0070F00A10710005C
:1008600091070E0083070F0074070F0065070E0045
:1008700057070E0049070E003B070D002E070E001C
:1008800020070D0013070D0006070D00F9060C00E8
:10089000ED060D00E0060C00D4060C00C8060C00A6
:1008A000BC060C00B0060C00A4060B0099060C0058
:1008B0008D060B0082060B0077060B006C060B0002
:1008C00061060A0057060B004C060A0042060A00A1
:1008D00038060A002E060A0024060A001A060A0034
:1008E0001006090007060A00FD050900F4050900C5
:1008F000EB050900E2050900D9050900D00509004A
:10090000C7050900BE050900B5050800AD050800CA
:10091000A50509009C050800940508008C05080041
:10092000840508007C050800740508006C050700B4
:10093000650508005D050700560508004E0507001F
:100940004705070040050800380507003105070086
:100950002A050700230507001C05060016050700E9
:100960000F0507000805060002050700FB04060046
:10097000F5040700EE040600E8040600E2040700A0
:10098000DB040600D5040600CF040600C9040600F7
:10099000C3040600BD040600B7040600B104050048
:1009A000AC040600A6040600A00405009B04060093
:1009B00095040500900406008A04050085040500DE
:1009C000800406007A040500750405007004050023
:1009D0006B04050066040500610405005C04050065
:1009E00057040500520405004D04050048040500A5
:1009F000430405003E0404003A04050035040500E4
:100A0000300404002C04050027040400230405001E
:100A10001E0404001A040400160405001104040056
:100A20000D0404000904050004040400000404008B
:100A3000FC030400F8030400F4030400F0030400C2
:100A4000EC030400E8030400E4030400E0030400F2
:100A5000DC030400D8030400D4030400D003040022
:100A6000CC030400C8030300C50303006563686F7B
:100A70003A00205A3A0020593A0020583A00656E50
:100A80006473746F7073206869743A20007C3C3E14
:100A90005E2B3D3F2F5B5D3B2C2A225C0045727232
:100AA0006F723A005072696E7465722073746F7061
:100AB0007065642064657520746F206572726F7252
:100AC000732E2046697820746865206572726F7293
:100AD00020616E6420757365204D39393920746F3B
:100AE0002072657374617274212E202854656D70B4
:100AF00065726174757265206973207265736574BF
:100B00002E20536574206974206265666F726520BB
:100B100072657374617274696E6729005072696ED0
:100B20007465722068616C7465642E206B696C6CEE
:100B300028292063616C6C6564202121006F6B00A3
:100B4000526573656E643A006563686F3A0022000F
:100B5000556E6B6E6F776E20636F6D6D616E643A6C
:100B600022007A5F6D696E3A00795F6D696E3A00B6
:100B7000785F6D696E3A005A3A00593A0020436F27
:100B8000756E7420583A00453A005A3A00593A00B6
:100B9000583A004649524D574152455F4E414D45E6
:100BA0003A4D61726C696E2056313B205370726908
:100BB0006E7465722F6772626C206D6173687570F8
:100BC00020666F722067656E36204649524D574148
:100BD00052455F55524C3A687474703A2F2F7777AC
:100BE000772E6D656E64656C2D70617274732E6303
:100BF0006F6D2050524F544F434F4C5F56455253E8
:100C0000494F4E3A312E30204D414348494E455FC1
:100C1000545950453A4D656E64656C2045585452A0
:100C2000554445525F434F554E543A310A002042D5
:100C30003A0020453A00543A0020573A0020453AFD
:100C400000543A0020403A00202F0020423A002071
:100C50002F006F6B20543A00456E642066696C6506
:100C6000206C69737400426567696E2066696C6503
:100C7000206C6973740053657474696E67732053D4
:100C8000746F7265640053746F7265642073657469
:100C900074696E6773207265747265697665643A0B
:100CA000002044002049002020204D3330312050C6
:100CB000005049442073657474696E67733A00206C
:100CC0004500205A002058002042002054002020D7
:100CD0004D323035205300416476616E6365642087
:100CE0007661726961626C65733A20533D4D696E3D
:100CF00020666565647261746520286D6D2F7329A7
:100D00002C20543D4D696E2074726176656C2066AE
:100D10006565647261746520286D6D2F73292C20C0
:100D2000423D6D696E696D756D207365676D656EA9
:100D3000742074696D6520286D73292C20583D6DD1
:100D40006178696D756D207859206A65726B20280D
:100D50006D6D2F73292C20205A3D6D6178696D755A
:100D60006D205A206A65726B20286D6D2F732900E3
:100D700020540020204D32303420530041636365FD
:100D80006C65726174696F6E3A20533D616363658F
:100D90006C65726174696F6E2C20543D726574725B
:100DA00061637420616363656C65726174696F6E01
:100DB00000204500205A0020590020204D323031BB
:100DC0002058004D6178696D756D20416363656CD5
:100DD00065726174696F6E20286D6D2F7332293AC8
:100DE00000204500205A0020590020204D32303389
:100DF0002058004D6178696D756D20666565647277
:100E00006174657320286D6D2F73293A00204500A9
:100E1000205A0020590020204D39322058005374A8
:100E20006570732070657220756E69743A00446F46
:100E30006E65207072696E74696E672066696C6594
:100E4000005072696E7465722073746F707065649F
:100E50002064657520746F206572726F72732E2026
:100E600046697820746865206572726F7220616EC1
:100E70006420757365204D39393920746F2072658F
:100E80007374617274212E202854656D70657261CF
:100E9000747572652069732072657365742E2053B2
:100EA0006574206974206265666F7265207265736F
:100EB00074617274696E6729006F6B004E6F204C0D
:100EC000696E65204E756D62657220776974682061
:100ED000636865636B73756D2C204C617374204C73
:100EE000696E653A004E6F20436865636B73756D7C
:100EF0002077697468206C696E65206E756D626517
:100F0000722C204C617374204C696E653A006368E2
:100F100065636B73756D206D69736D617463682CA7
:100F2000204C617374204C696E653A004C696E65A3
:100F3000204E756D626572206973206E6F74204C4F
:100F4000617374204C696E65204E756D6265722BFD
:100F5000312C204C617374204C696E653A00446FEB
:100F60006E6520736176696E672066696C652E0018
:100F70006F6B002020506C616E6E65724275666604
:100F8000657242797465733A200020467265652067
:100F90004D656D6F72793A20006572696B00207C37
:100FA00020417574686F723A2000323031322D3032
:100FB000352D303200204C6173742055706461749B
:100FC00065643A2000312E302E3020524332004DDD
:100FD00061726C696E200020536F66747761726570
:100FE00020526573657400205761746368646F678D
:100FF000205265736574002042726F776E206F75A2
:1010000074205265736574002045787465726E6152
:101010006C20526573657400506F7765725570006F
:101020007374617274002200656E717565696E6714
:101030002022004572726F723A0054656D706572BD
:1010400061747572652068656174656420626564A9
:10105000207377697463686564206F66662E204D1F
:10106000415854454D5020747269676765726564D4
:10107000202121003A2045787472756465722073CE
:1010800077697463686564206F66662E204D494EEB
:1010900054454D50207472696767657265642021FC
:1010A000003A2045787472756465722073776974AC
:1010B00063686564206F66662E204D415854454D27
:1010C00050207472696767657265642021001000A2
:1010D0005E01C001FA00F001F5003002F00070027C
:1010E000EB00A002E600C002E1001003DC005003A8
:1010F000D700E003D2007004CD00E004C800E00592
:10110000BE006006B9004007AA00F008A000700BFE
:101110009600F00D8C00E0108200E0137800F017CC
:101120006E00D0196900701B6400401E5F00102023
:101130005A00F025500080294600D0303C00A032F3
:1011400037001035320020392D0020392800703A40
:101150002300A03B1E00A03C1900203D1600003FCC
:101160000300202D20496E76616C696420657874D7
:101170007275646572206E756D6265722021002043
:101180002D20496E76616C6964206578747275648F
:101190006572206E756D6265722100504944204170
:1011A00075746F74756E652066696E6973686564C1
:1011B000202120506C61636520746865204B702C81
:1011C000204B6920616E64204B6420636F6E7374E2
:1011D000616E747320696E2074686520636F6E663B
:1011E000696775726174696F6E2E6800504944209A
:1011F0004175746F74756E65206661696C656421F4
:101200002074696D656F75740020403A006F6B2023
:10121000543A00504944204175746F74756E6520CE
:101220006661696C6564212054656D7065726174D6
:1012300075726520746F206869676800204B643A96
:101240002000204B693A2000204B703A20002043B8
:101250006C617369632050494420002054753A2022
:1012600000204B753A2000206D61783A2000206DF7
:10127000696E3A200020643A200020626961733A66
:10128000200070012C0190012701B0012201C00152
:101290001D01F00118011002130130020E0160025D
:1012A000090190020401C002FF000003FA0040039C
:1012B000F5008003F000D003EB002004E60070048A
:1012C000E100E004DC004005D700C005D200400684
:1012D000CD00D006C8008007C3003008BE00F0086B
:1012E000B900C009B400B00AAF00B00BAA00D00C1E
:1012F000A500000EA000500F9B00C01096005012D9
:10130000910000148C00C0158700B0178200B0193E
:101310007D00D01B7800001E730040206E009022DC
:101320006900F024640040275F0090295A00E02BF8
:101330005500102E500020304B0010324600E03394
:10134000410090353C001037370070383200A0392A
:101350002D00B03A2800A03B2300603C1E00103D49
:101360001900903D1400103E0F00703E0A00C03E70
:101370000500003F0000012902290429082910293D
:10138000202940298029012C022C0126022604262E
:1013900008261026202640268026402C802C01235B
:1013A0000223042308231023202340238023012029
:1013B0000220042008201020202040208020102C13
:1013C000202C012F022F042F082F102F202F402F09
:1013D000802F7EFE7EFD7EFB7EF77EEF7EDF7EBF72
:1013E0007E7F000100001614120002000028144342
:1013F000000300006B1404010309046F14180203B6
:10140000090489141603030904A1140C0001C10284
:101410000180360181361201000202000020C01650
:10142000830400010102030109024300020100C01C
:101430003209040000010202010005240010010528
:101440002401000104240206052406000107058288
:101450000308004009040100020A00000007050318
:10146000024000000705840240000004030904183C
:10147000035400650065006E007300790064007518
:101480000069006E006F0000001603550053004213
:10149000002000530065007200690061006C0000CC
:1014A000000C0331003200330034003500000049E5
:1014B0004E46494E4954594E414ECDCCCC3D0AD7AB
:1014C000233C17B7D13877CC2B329595E6241FB142
:1014D0004F0A000020410000C84200401C4620BCCA
:1014E000BE4CCA1B0E5AAEC59D74AA60F372AD60A5
:1014F00011241FBECFEFD0E2DEBFCDBF12E0A0E0CF
:10150000B1E0E0E0F4E001E00BBF02C007900D9213
:10151000A63FB107D9F71DE0A6EFB2E001C01D92CA
:10152000AA3DB107E1F714E1CEEED4E100E006C038
:1015300022970109FE010BBF0E94BE7BCA3ED10764
:1015400080E00807A9F70E9427710C94EF810C94A2
:1015500000008091FC04882399F14091F60250919B
:10156000F7026091F8027091F9028091FA0490916B
:10157000FB042AEF32E00E941163882319F14091A5
:10158000FD045091FE046091FF0470910005411527
:1015900051056105710591F08091FA049091FB0469
:1015A0002AEF32E00E941163882371F01092FD044B
:1015B0001092FE041092FF04109200051092FC0499
:1015C00081E0089580E0089580E00895DF92EF9231
:1015D000FF920F931F937B018C01D42E8091F60212
:1015E0009091F702A091F802B091F9028E159F0533
:1015F000A007B107B9F0ADDF8823D1F08091FA04DC
:101600009091FB04B801A7012AEF32E00E94FA6131
:10161000882371F0E092F602F092F7020093F8024C
:101620001093F902DD2031F081E08093FC0403C0C7
:1016300080E001C081E01F910F91FF90EF90DF905B
:101640000895CF92DF92EF92FF920F931F93CF9363
:10165000DF93EC017A018B01690189859A85AB855D
:10166000BC850196A11DB11D84179507A607B70774
:1016700008F45DC08F89803129F49927872F762F50
:10168000652F0CC0803209F052C0CB01BA0127E0AF
:1016900096958795779567952A95D1F72B893C89FB
:1016A0004D895E89620F731F841F951F2091F6027A
:1016B0003091F7024091F8025091F90262177307D6
:1016C0008407950721F040E081DF882381F18F892D
:1016D000803191F48FEF90E0A0E0B0E0E822F922B1
:1016E0000A231B23F701EE0FFF1FE650FD4F8081F9
:1016F0009181A0E0B0E014C08FE790E0A0E0B0E0FE
:10170000E822F9220A231B23F701EE0FFF1FEE0F39
:10171000FF1FE650FD4F80819181A281B381BF7090
:10172000F60180839183A283B38381E001C080E0CE
:10173000DF91CF911F910F91FF90EF90DF90CF90AD
:1017400008954F925F926F927F928F929F92AF9285
:10175000BF92CF92DF92EF92FF920F931F93DF938E
:10176000CF9300D000D0CDB7DEB76C0149835A8348
:101770006B837C832901EE24FF2487015E0108949A
:10178000A11CB11C612C42E0742E812C912C49814A
:101790005A816B817C81C601950153DF882371F1E9
:1017A000D401C301F601058404C0880F991FAA1F44
:1017B000BB1F0A94D2F7E80EF91E0A1F1B1F89816E
:1017C0009A81AB81BC812789203149F4883FFFEFA2
:1017D0009F07F0E0AF07F0E0BF0748F4D8CF883F9D
:1017E0002FEF92072FEFA2072FE0B20780F2F2014E
:1017F000E082F1820283138381E001C080E00F90D8
:101800000F900F900F90CF91DF911F910F91FF904C
:10181000EF90DF90CF90BF90AF909F908F907F9090
:101820006F905F904F9008956F927F928F929F92EA
:10183000AF92BF92CF92DF92EF92FF920F931F93DE
:10184000CF93DF93EC015A016B013801490142301B
:1018500051056105710508F469C089859A85AB85D4
:10186000BC850196A11DB11D84179507A607B70772
:1018700008F45CC08F89803129F4E52EF62E072FFD
:1018800011270CC0803209F051C07A018B0177E03A
:1018900016950795F794E7947A95D1F78B899C89EB
:1018A000AD89BE89E80EF91E0A1F1B1FC801B701CA
:1018B00041E08CDE8823D1F18F89803181F48FEF74
:1018C00090E0A0E0B0E0A822B922CA22DB22F50114
:1018D000EE0FFF1FE650FD4F7182608213C08FE74D
:1018E00090E0A0E0B0E0A822B922CA22DB22F501F4
:1018F000EE0FFF1FEE0FFF1FE650FD4F608271825B
:10190000828293828A89823098F08D819E81AF8114
:10191000B8858E0D9F1DA01FB11F8093FD0490936D
:10192000FE04A093FF04B093000502C080E001C054
:1019300081E0DF91CF911F910F91FF90EF90DF90A9
:10194000CF90BF90AF909F908F907F906F900895B1
:101950000F931F930FEF1FEF2FEF3FE065DF1F91F6
:101960000F9108952F923F924F925F926F927F92C4
:101970008F929F92AF92BF92CF92DF92EF92FF929F
:101980000F931F93DF93CF93CDB7DEB72F970FB68B
:10199000F894DEBF0FBECDBF1C014C875D876E87FC
:1019A0007F873B872A87DC011996CD90DD90ED90EB
:1019B000FC901C970894C11CD11CE11CF11CF9017E
:1019C000408051806280738041145104610471042D
:1019D00031F00894411C511C611C711C10C0DC01C9
:1019E0004D905D906D907C90B1E0BD832C853D85E0
:1019F0004E855F85213031054105510509F01D8275
:101A0000530142011E821F82188619868E010F5FC4
:101A10001F4FF10181859285A385B4852E813F8179
:101A200048855985281739074A075B0708F08BC096
:101A3000C814D904EA04FB0450F4A2E08A2E912CC5
:101A4000A12CB12CF2E04F2E512C612C712CC10134
:101A5000B501A4019801F5DD882309F474C029813A
:101A60003A814B815C81D501C4010196A11DB11D54
:101A7000211531054105510519F02C013D010DC01D
:101A800084199509A609B7092C853D854E855F8582
:101A900082179307A407B50789F08E819F81A885D7
:101AA000B9850196A11DB11D8E839F83A887B98733
:101AB0000894811C911CA11CB11CABCFC101A401D5
:101AC000B50146DF882389F43EC068017901089496
:101AD000C108D108E108F108C101B701A601A4DEDF
:101AE000882389F19701860102C09501840140167F
:101AF00051066206730648F3AA85BB854D915D9138
:101B00006D917C911397411551056105710531F077
:101B1000C1019301820188DE8823A9F0EA85FB8553
:101B20004082518262827382FD81FF2371F00894AA
:101B3000411C511C611C711CD1014D925D926D9232
:101B40007C92139702C080E001C081E02F960FB60F
:101B5000F894DEBF0FBECDBFCF91DF911F910F91E3
:101B6000FF90EF90DF90CF90BF90AF909F908F90BD
:101B70007F906F905F904F903F902F900895AF921D
:101B8000BF92CF92DF92EF92FF920F931F93DF935A
:101B9000CF9300D000D0CDB7DEB76C017A018B01B6
:101BA00082E090E0A0E0B0E0F60180839183A28320
:101BB000B3835E010894A11CB11CC601B801A70142
:101BC00095013FDD882331F1C601B801A70100E08E
:101BD00010E0980129DE8823E9F0E980FA800B8182
:101BE0001C81F6018789803151F4F8EFEF16FFEF81
:101BF000FF06F0E00F07F0E01F0750F4DECF88EF9C
:101C0000E8168FEFF8068FEF08078FE01807A8F2A5
:101C100081E001C080E00F900F900F900F90CF9166
:101C2000DF911F910F91FF90EF90DF90CF90BF90C9
:101C3000AF9008956F927F929F92AF92BF92CF9292
:101C4000DF92EF92FF920F931F93CF93DF93EC01FC
:101C5000142F7093FB046093FA041F8A82E090E0D3
:101C6000A0E0B0E088839983AA83BB831092FC0430
:101C70001092FD041092FE041092FF0410920005D1
:101C80008FEF9FEFDC018093F6029093F702A09311
:101C9000F802B093F9024423C1F1453008F00BC1BA
:101CA00060E070E0CB0140E091DC882309F403C1DF
:101CB000212F30E054E0220F331F5A95E1F72651CF
:101CC0003D4FF901E254FE4F808190E08F77907094
:101CD000009709F0F0C0F901E653FE4F8081918131
:101CE000A281B38184369105A105B10508F4E3C052
:101CF0002A533E4FF901A080B180C280D380A11445
:101D0000B104C104D10421F4D6C0AA24BB246501C6
:101D1000C601B50140E05ADC882309F4CCC08091AB
:101D2000050390910603F2E080309F0709F0C3C0DD
:101D300030910A03332309F4BEC0809108039091C7
:101D40000903009709F4B7C020910703222309F47F
:101D5000B2C03A8B2C831D8630E081E090E007C052
:101D6000492D4F5F4D87492D483008F0A4C09D8410
:101D7000AC01092C02C0440F551F0A94E2F7241746
:101D8000350771F7609110037091110361157105AA
:101D900019F080E090E008C060911E0370911F036D
:101DA00080912003909121036D837E838F83988798
:101DB000E0900803F090090300E010E0EA0CFB1C3F
:101DC0000C1D1D1DEB8AFC8A0D8B1E8B60900B0376
:101DD00070900C03798E688E20910A0330E040E009
:101DE00050E00E943B7B6E0D7F1D801F911F6A8F0C
:101DF0007B8F8C8F9D8F930145E0220F331F4A9577
:101E0000E1F721503E4F232F3327269540E050E045
:101E1000260F371F481F591F2E873F87488B598B26
:101E200080910D0390910E03009719F0A0E0B0E0AF
:101E300008C080911A0390911B03A0911C03B091DC
:101E40001D03A21AB30AC40AD50AA80EB91ECA1ED7
:101E5000DB1E04C0D694C794B794A7949A94D2F783
:101E6000A986BA86CB86DC8685EFA8168FE0B806F1
:101E700080E0C80680E0D80618F48CE08F8B1BC089
:101E8000E5EFAE16EFEFBE06E0E0CE06E0E0DE06E0
:101E900010F480E10DC08091260390912703A0915A
:101EA0002803B09129038A8F9B8FAC8FBD8F80E26E
:101EB0008F8B81E001C080E0DF91CF911F910F9166
:101EC000FF90EF90DF90CF90BF90AF909F907F906A
:101ED0006F900895BC01E091CB0DF091CC0D028084
:101EE000F381E02D8BEC9DE009950895DF93CF936E
:101EF0000F92CDB7DEB789838BEC9DE0BE016F5F9B
:101F00007F4F41E050E00E94AB710F90CF91DF9185
:101F100008950F932AE000E00E9446730F91089500
:101F20000F931F93CF93DF93EC018B0141E082DE8F
:101F3000882329F4CE01B80140E07CDE01C081E0B5
:101F4000DF91CF911F910F910895FC0123812223EE
:101F500011F00C94B439089540E050E0BA010C94AB
:101F6000BF382AED32E0FC0121933193CF01EDCF50
:101F7000FC01148A178A8AED92E0938B828B13AA54
:101F800016AA92AB81ABDF01A05BBF4F1C92DF01B1
:101F9000AD5ABF4F1C92DF01A25BBF4F8D939C9344
:101FA000DF01A359BF4F1C92DF01A059BF4F1C9204
:101FB000DF01A559BF4F8D939C93DF01A757BF4FFA
:101FC00029E12C93DF01A457BF4F1C92DF01AC55D0
:101FD000BF4F1C92DF01A355BF4F1C92DF01A055DC
:101FE000BF4F1C92DF01A555BF4F8D939C93DF011E
:101FF000A853BF4F1D921D921D921C921397DF0193
:10200000A053BF4F1D921D921D921C9213971182D7
:1020100012821082DF01AC52BF4F81E08C93118A93
:10202000108A0FB6F8942091C60D3091C70D4091DB
:10203000C80D5091C90D0FBEE453FF4F28573C4EB9
:102040004F4F5F4F20833183428353830895A62FE0
:10205000B72FE82FF92F20E03EE24C91403229F0D3
:10206000283009F431934C9141932F5F11962B3016
:10207000A1F7108208952F923F924F925F926F9234
:102080007F928F929F92AF92BF92CF92DF92EF9208
:10209000FF920F931F93DF93CF93CDB7DEB7CB584B
:1020A000D0400FB6F894DEBF0FBECDBF7C011B0140
:1020B0004A01CE57DF4F1882C258D04082E090E0EC
:1020C000880E991E8E010E591F4FF7013396C9577E
:1020D000DF4FF983E883C758D040C7018B529F4F29
:1020E000CD57DF4F99838883C358D040F701E95219
:1020F000FF4FCB57DF4FF983E883C558D0405E01CF
:102100000894A11CB11C3EE0C32ED12CCC0EDD1EC8
:1021100025E4422E512C4C0E5D1EC2010296C7577B
:10212000DF4F99838883C958D040E3EEF0E0949163
:10213000C557DF4F9883CB58D0403701EEC0F80128
:10214000438550E0CA01887190708031910509F093
:10215000ECC0CD57DF4FE881F981C358D0402081D2
:1021600031812130310509F4E0C02230310509F414
:10217000DCC0C501B8016BDF1E86F10180818823B8
:1021800029F4C60160E071E00E94B07EC601B10191
:102190000E94B07EC601B5010E94B07EC60160E01B
:1021A00071E00E94B07E1AA61DA68AED92E099A762
:1021B00088A7CE018A96B401A50121E00E94E13BE7
:1021C000882329F5CD57DF4FE881F981C358D040E6
:1021D000808191810097D9F4C557DF4F8881CB5812
:1021E000D04093EEE92E90E0F92E06C07FDE0894F1
:1021F000E11CF11CF70184918823C1F782E091E092
:1022000069DE8AE073DEC50165DE8AE06FDEC757EE
:10221000DF4FA881B981C958D040FE01BA968BE141
:1022200001900D928150E1F78AED92E0F2019183E5
:102230008083C301B601A2011EDFC20192DECE017E
:1022400088968FDE6AC0253E09F467C02E3209F4F5
:1022500064C02F3509F461C043FD5FC021E08031C7
:10226000910509F020E0F3012787222349F4F801C2
:102270008085873409F051C081858E3709F44DC0BF
:10228000C957DF4F88819981C758D040B801DFDE38
:10229000CD57DF4FE881F981C358D04080819181CB
:1022A000009761F4C10116DEC957DF4F888199811B
:1022B000C758D0400FDE8AE019DE2FC0813091056B
:1022C00061F4CB57DF4FE881F981C558D040808158
:1022D000918101969183808320C082309105E9F439
:1022E000CE57DF4FF881C258D0402F2F30E0CB5768
:1022F000DF4FE881F981C558D0408081918128174E
:102300003907C1F0CE57DF4FF881C258D040FF5F88
:10231000CE57DF4FF883C258D040C401B8010E94A5
:102320004F3818160CF40BCF05C0F801208122237A
:1023300009F089CFC557DF4F0FB6F894DEBF0FBE47
:10234000CDBFCF91DF911F910F91FF90EF90DF9064
:10235000CF90BF90AF909F908F907F906F905F9045
:102360004F903F902F900895EF92FF920F931F93FD
:10237000DF93CF93CDB7DEB76D970FB6F894DEBF7E
:102380000FBECDBF8C01FC01EB52FF4F11821082BA
:1023900044E1E42EF12CE80EF91EC701DDDDDE017B
:1023A0001396F7018BE101900D928150E1F78AEDD0
:1023B00092E09A838983C80165E171E08E010F5F25
:1023C0001F4FA80158DEC801CCDD6D960FB6F894FA
:1023D000DEBF0FBECDBFCF91DF911F910F91FF9058
:1023E000EF900895EF92FF920F931F93CF93DF9397
:1023F0008C01FC0112828789882321F0C801449650
:102400000E94B43958E8E52EF12CE00EF11EC70108
:1024100060E04AE10E942B628823B9F4E3EEF0E029
:102420008491EF0104C062DD2196FE01849188232E
:10243000D1F7E1E2F2E08491EF0104C057DD21968B
:10244000FE0184918823D1F756C0E801C357DF4FBE
:10245000CE01B70165DD8823B9F4EEEFF0E0849199
:10246000EF0104C043DD2196FE0184918823D1F75A
:10247000EEE0F2E08491EF0104C038DD2196FE0128
:1024800084918823D1F737C0C8014496BE010E94C9
:10249000B2368823B9F4EEEFF0E08491EF0104C086
:1024A00025DD2196FE0184918823D1F7EEEFF1E03E
:1024B0008491EF0104C01ADD2196FE0184918823E6
:1024C000D1F719C081E0F8018283E3EEF0E0849156
:1024D000EF0104C00BDD2196FE0184918823D1F722
:1024E000E3EFF1E08491EF0104C000DD2196FE01ED
:1024F00084918823D1F78AE0F9DCD801D396F801DA
:1025000074968BE101900D928150E1F7C8014296DB
:10251000F80190AB87A7DF91CF911F910F91FF90AA
:10252000EF900895FC01118212820895FC018281CE
:10253000882311F081E081830895FC01818181115C
:10254000118208952F923F924F925F926F927F92E5
:102550008F929F92AF92BF92CF92DF92EF92FF92B3
:102560000F931F93DF93CF93CDB7DEB7AB970FB623
:10257000F894DEBF0FBECDBF7C015B014BA7FC0111
:102580008281882309F451C17DEA472E512C4E0CDB
:102590005F1CC2010E94B439F7011182188A1B8A9C
:1025A0008AED92E09F878E87C701429690AB87A7FE
:1025B000F50180818F3209F06BC0C5016FE270E0D8
:1025C0000E94BB7E6C010894C11CD11C4E01089472
:1025D000811C911C6EE0262E312C2C0E3D1E53C00A
:1025E000C6016FE270E00E94BB7E3C01009709F4D7
:1025F00057C0C816D90608F053C08C010C191D0924
:10260000C401B601A8010E94DB7EF401E00FF11FB6
:102610001082C4015FDC8AE069DCF70167A570A95C
:102620006115710519F06E5F7F4F02C060E070E0C8
:10263000CE014096A40121E00E94E13B8823E1F411
:10264000EFEDF1E084918F0105C050DC0F5F1F4F6B
:10265000F80184918823C9F7CE0101963BDCEDEDAA
:10266000F1E084918F0105C041DC0F5F1F4FF8013D
:1026700084918823C9F7D4C0F70130AA27A6630143
:102680000894C11CD11CC114D10409F0A9CF05C004
:10269000C701C196F70190AB87A70A2DCB2C02C0CA
:1026A0000C2DCD2CF70167A570A9FBA5FF2309F41C
:1026B00079C06115710519F06E5F7F4F02C060E04F
:1026C00070E0C201402F5C2D21E00E94E13B882395
:1026D00009F44BC0F701E853FF4FD701A254BF4F95
:1026E0008D919D910D90BC91A02D80839183A283AB
:1026F000B383E0EDF1E084915F0106C0F7DB08945D
:10270000A11CB11CF50184918823C1F7802F9C2D59
:10271000E1DBE9ECF1E084918F0105C0E7DB0F5FBD
:102720001F4FF80184918823C9F7F701E853FF4F41
:1027300040815181628173818BEC9DE0EADB8AE00C
:10274000D5DBF701E053FF4F108211821282138212
:10275000EBEBF1E084918F0105C0C8DB0F5F1F4FE9
:10276000F80184918823C9F75BC0E7EAF1E084911E
:102770007F0106C0BBDB0894E11CF11CF7018491CA
:102780008823C1F7802F9C2DA5DBE5EAF1E0849139
:102790008F0105C0ABDB0F5F1F4FF80184918823C9
:1027A000C9F73EC06115710519F06E5F7F4F02C019
:1027B00060E070E0C201402F5C2D26E50E94E13B05
:1027C0008823E9F4E1E9F1E084917F0106C08EDB22
:1027D0000894E11CF11CF70184918823C1F7802F34
:1027E0009C2D78DBEFE8F1E084918F0105C07EDB62
:1027F0000F5F1F4FF80184918823C9F711C081E052
:10280000F7018083EDE7F1E084918F0105C06EDB75
:102810000F5F1F4FF80184918823C9F7C5015ADB68
:102820008AE064DBCE010E969CDBAB960FB6F89483
:10283000DEBF0FBECDBFCF91DF911F910F91FF90F3
:10284000EF90DF90CF90BF90AF909F908F907F9050
:102850006F905F904F903F902F9008952F923F92EE
:102860004F925F926F927F928F929F92AF92BF92A0
:10287000CF92DF92EF92FF920F931F93DF93CF934C
:10288000CDB7DEB7AA970FB6F894DEBF0FBECDBFA7
:102890007C013B01FC018281882309F4D5C0C7017A
:1028A00083559F4F0E94B439F7011182188A1B8A01
:1028B0008AED92E09F878E87C701429690AB87A7EB
:1028C000F30180818F3209F06FC0C3016FE270E0C5
:1028D0000E94BB7E6C010894C11CD11C5E0108944F
:1028E000A11CB11CFEE04F2E512C4C0E5D1EE0E1F0
:1028F0002E2E312C2C0E3D1E52C0C6016FE270E010
:102900000E94BB7E4C01009709F456C0C816D90638
:1029100008F052C08C010C191D09C501B601A801AF
:102920000E94DB7EF501E00FF11F1082C501D2DAB3
:102930008AE0DCDAF70167A570A96115710519F065
:102940006E5F7F4F02C060E070E0C101A50121E031
:102950000E94E13B8823E1F4E9E6F1E084918F01F4
:1029600005C0C4DA0F5F1F4FF80184918823C9F7AF
:10297000CE010196AFDAE7E6F1E084918F0105C060
:10298000B5DA0F5F1F4FF80184918823C9F757C04C
:10299000F70150AA47A664010894C11CD11CC114B8
:1029A000D10409F0AACF05C0C701C196F70190ABC9
:1029B00087A7A62CC72C02C0AC2CCD2CF70187A56D
:1029C00090A9009711F0029602C080E090E06A2D75
:1029D0007C2D0E94A53C8823B9F0E9E5F1E08491C3
:1029E0008F0105C083DA0F5F1F4FF80184918823A0
:1029F000C9F78A2D9C2D6EDAF701E053FF4F108244
:102A00001182128213821DC0E1E4F1E084918F01F2
:102A100005C06CDA0F5F1F4FF80184918823C9F756
:102A20008A2D9C2D57DAEFE3F1E084918F0105C0E8
:102A30005DDA0F5F1F4FF80184918823C9F78AE0A0
:102A400055DACE010E968DDAAA960FB6F894DEBF4F
:102A50000FBECDBFCF91DF911F910F91FF90EF90EF
:102A6000DF90CF90BF90AF909F908F907F906F90AE
:102A70005F904F903F902F9008950F931F93CF93A7
:102A8000DF93EC018A81882361F1EDE2F1E084912A
:102A90008F0105C02BDA0F5F1F4FF8018491882347
:102AA000C9F7FE01E053FF4F40815181628173817C
:102AB0008BEC9DE02EDAEBE2F1E084918F0105C012
:102AC00015DA0F5F1F4FF80184918823C9F7C853A7
:102AD000DF4F488159816A817B818BEC9DE019DA57
:102AE0000BC0EBE1F1E08491EF0104C0FFD9219626
:102AF000FE0184918823D1F78AE0F8D9DF91CF9144
:102B00001F910F910895CF92DF92EF92FF920F9352
:102B10001F93CF93DF936C018B01EB010990002091
:102B2000E9F72197C61BD70BFC01E355FF4F108235
:102B3000CB016EE470E00E94BB7E7C01009721F423
:102B40002197C00FD11F0EC060E270E00E94BB7ED3
:102B50008C010F5F1F4FC7016AE270E00E94BB7ECD
:102B6000EC0121978DE089838AE08A831B82C6016C
:102B700085559F4FB8010E94B060F601E355FF4FA5
:102B800080818823C1F0EEEFF0E08491EF0104C072
:102B9000ADD92196FE0184918823D1F7E5E0F1E0DB
:102BA0008491EF0104C0A2D92196FE01849188236B
:102BB000D1F78AE09BD9DF91CF911F910F91FF90C0
:102BC000EF90DF90CF9008953F924F925F926F9277
:102BD0007F928F929F92AF92BF92CF92DF92EF92AD
:102BE000FF920F931F93DF93CF93CDB7DEB7CC55F2
:102BF000D0400FB6F894DEBF0FBECDBF8C01662368
:102C0000F9F4FC01EC52FF4F8081882309F4E5C000
:102C10000FB6F8948091C60D9091C70DA091C80D84
:102C2000B091C90D0FBEF801E453FF4F20813181EF
:102C300042815381281739074A075B0708F4CDC042
:102C4000F801EC52FF4F1082D80112968C91129726
:102C5000882339F4C801C6DBF8018281882309F48E
:102C6000BCC000D000D000D0EDB7FEB731967E01D9
:102C70000894E11CF11CADB7BEB71296FC92EE921F
:102C8000119786E191E093838283D80150968D91CC
:102C90009C915197958384830E94047FEDB7FEB782
:102CA00036960FB6F894FEBF0FBEEDBFCC24DD24E0
:102CB00057010AC0D7018C91992787FD90950E94F2
:102CC0007A7EF70181937F01C601F5010190002012
:102CD000E9F73197EA19FB090894C11CD11C8E173A
:102CE0009F0744F384E1682E712C600E711EC301AE
:102CF00033D93324BDE3AB2EB12CAC0EBD1E4E0137
:102D00000894811C911CAFE14A2E512C4C0E5D1E83
:102D100048C0D7018C9190E00E947A7EF7018193A0
:102D20007F01C601F50101900020E9F73197EA190A
:102D3000FB090894C11CD11C8E179F0754F32796DA
:102D40008FAD27978E3769F1C501B40145E050E09A
:102D50000E94CD7E009729F500D000D000D0EDB7BD
:102D6000FEB73196ADB7BEB712965C924E921197F0
:102D70008FE191E093838283958284820E94047F15
:102D8000ADB7BEB716960FB6F894BEBF0FBEADBFB7
:102D9000C2010E940A4286E291E00E940A42332464
:102DA0003394C301B5010E944F38181624F47501FD
:102DB000CC24DD24B6CF332031F48FEF9FEFF80120
:102DC000918B808B0AC0D80150968D919C91519720
:102DD000019651969C938E935097C45ADF4F0FB62D
:102DE000F894DEBF0FBECDBFCF91DF911F910F9141
:102DF000FF90EF90DF90CF90BF90AF909F908F901B
:102E00007F906F905F904F903F9008950F931F9326
:102E1000CF93DF93EC018C0103551F4FC8010E9433
:102E20006A39C8010E94B4391882DF91CF911F918D
:102E30000F910895CF93DF93EC010E9401350E941A
:102E4000733519828AE291E00E940A4280917105ED
:102E50008823B1F1109271056091A30BE62FF0E089
:102E6000EE0FFF1FE858F24F808191810E948E641F
:102E700020912002309121024091220250912302A0
:102E80000E94A3791816E4F46091A30BC62FD0E03A
:102E900080E090E00E948B63FE01EE0FFF1FE85878
:102EA000F24F91838083CC0FDD1FCC0FDD1FC05804
:102EB000D24F80E090E0DC0188839983AA83BB83B2
:102EC000DF91CF9108952F923F924F925F926F9230
:102ED0007F928F929F92AF92BF92CF92DF92EF92AA
:102EE000FF920F931F93DF93CF93CDB7DEB7C055FB
:102EF000D0400FB6F894DEBF0FBECDBF4C017A8F25
:102F0000698F3A012AA70EABEFAAA8AEB9AECAAE36
:102F1000DBAE022F10E0000F111F000F111F9301F5
:102F2000200F311F3BAB2AABD9012D903D904D9026
:102F30005C90FC01E00FF11FC201B10120813181E1
:102F4000428153810E94C7766CAF7DAF8EAF9FAF39
:102F5000BEA9EB2EFF24EE0CFF1CEE0CFF1CF301B0
:102F6000EE0DFF1DFDABECABA080B180C280D38025
:102F7000F401EE0DFF1DC601B501208131814281B2
:102F800053810E94C77621966FAF219722967FAF1B
:102F9000229723968FAF239724969FAF2497FFA95C
:102FA0008F2F90E0880F991F880F991FF401E80F69
:102FB000F91F20813181428153812B8F3C8F4D8FAE
:102FC0005E8F498D5A8D840F951FDC016D917D9127
:102FD0008D919C912B8D3C8D4D8D5E8D0E94C67682
:102FE000262F372F482F592F2F8F38A349A35AA3A5
:102FF000E98DFA8D3C962996FFAFEEAF2997A98D02
:10300000BA8D1C962D913D914D915C911F972EA7E5
:103010003FA748AB59ABD4011C962D913D914D91E2
:103020005C911F972BA33CA34DA35EA3A20191012A
:103030005058298B3A8B4B8B5C8B1501260157FA24
:10304000509457F85094E98DFA8DE00FF11F60818C
:10305000718182819381BCADADADFEADEFAD2B2F03
:103060003A2F4F2F5E2F0E94C676B62EA72E882E9F
:10307000692EE98DFA8DEE0DFF1D608171818281CF
:1030800093812196BFAD21972296AFAD22972396CB
:10309000FFAD23972496EFAD24972B2F3A2F4F2F78
:1030A0005E2F0E94C676F62E072F182FE92E69890B
:1030B0007A898B899C892F2D302F412F5E2D0E947C
:1030C000757A6D8B7E8B8F8B988FC201B101D50184
:1030D0002B2F3A2F482D562D0E94757A9B01AC015B
:1030E0006D897E898F89988D0E94C6766D8B7E8BC7
:1030F0008F8B988F69897A898B899C89D5012B2F31
:103100003A2F482D562D0E94757A5B016C01C20141
:10311000B1012F2D302F412F5E2D0E94757A9B011A
:10312000AC01C601B5010E94C7769B01AC016D8957
:103130007E898F89988D0E943A77162FE72E082F67
:10314000F92E20E030E0A9010E94A07787FF0EC091
:10315000612F7E2D802F9F2D2BED3FE049EC50E419
:103160000E94C776162FE72E082FF92EAA968FAD4C
:10317000AA97882371F0612F7E2D802F9F2D2BED34
:103180003FE049EC50E40E94C676162FE72E082F48
:10319000F92E612F7E2D802F9F2DA9962CAD3DAD50
:1031A0004EAD5FADA9970E94757A2F8D38A149A1C8
:1031B0005AA15F770E94B0795B016C012FE632E182
:1031C00043E85AE30E94A07787FDA4C2C601B50177
:1031D0000E947D780E9414787DA76CA76115710507
:1031E00021F481E090E09DA78CA7ACA5BDA5BD0111
:1031F00080E090E00E9440785B016C01612F7E2DA1
:10320000802F9F2DA60195010E94A7776D8B7FA32C
:1032100088A799A76F8D78A189A19AA1A601950188
:103220000E94A7772A966FAF2A972B967FAF2B978E
:103230002C968FAF2C972D969FAF2D976EA57FA5BF
:1032400088A999A92BA13CA14DA15EA10E94C67697
:10325000A60195010E94A7772E966FAF2E972F9605
:103260007FAF2F9760968FAF609761969FAF619702
:103270005D894FA138A529A5652F742F832F922F23
:1032800020E030E040E05FE30E94757ABD89AFA1A5
:10329000F8A5E9A52B2F3A2F4F2F5E2F0E94757AA4
:1032A0009B01AC0160E070E080E89FE30E94C6767D
:1032B0006EA725967FAF259726968FAF26972796E0
:1032C0009FAF2797BFA9EB2FF0E0EE0FFF1FEE0F88
:1032D000FF1FCE010196E80FF91F2B8D3C8D4D8D00
:1032E0005E8D20833183428353832BA13CA14DA16A
:1032F0005EA12D873E874F87588BBB2441E050E06D
:103300005CA34BA3BAA5AB2FB0E0AA0FBB1FAA0FBB
:10331000BB1F9C012A0F3B1F3C8F2B8F5EA9452FA3
:1033200050E0440F551F440F551F81E090E08C0F73
:103330009D1F840F951F98A38F8FFBA7EAA7CAC173
:103340009B2D99310CF068C069897A898B899C8999
:10335000BD89AFA1F8A5E9A52B2F3A2F4F2F5E2FDE
:103360000E94757A7B018C01C201B101BEA5259630
:10337000AFAD25972696FFAD26972796EFAD2797F9
:103380002B2F3A2F4F2F5E2F0E94757A9B01AC0195
:10339000C801B7010E94C776D62EA72E882E692EA7
:1033A00069897A898B899C89BEA52596AFAD2597B9
:1033B0002696FFAD26972796EFAD27972B2F3A2F0E
:1033C0004F2F5E2F0E94757A162F072FF82EE92EA9
:1033D000C201B101BD89AFA1F8A5E9A52B2F3A2FF4
:1033E0004F2F5E2F0E94757A9B01AC01D801F70127
:1033F0006B2F7A2F8F2F9E2F0E94C676262F372F66
:10340000482F592F298B3A8B4B8B5C8BB3942D2CE7
:103410003A2C482C562C6AC0ABA1BCA1BD0180E05F
:1034200090E00E944078BD89AFA1F8A5E9A52B2FB7
:103430003A2F4F2F5E2F0E94757A7B018C017F2DD2
:10344000912F0E94A4771B012C016E2D7F2D802FC0
:10345000912F0E94D87A5B016C01EAA9FBA9E08058
:10346000F1800281138117FB109517F91095ACA913
:10347000BDA96D907D908D909C90C801B701A2016F
:1034800091010E94757A698B7A8B8B8B9C8BC4011E
:10349000B301A60195010E94757A9B01AC0169896F
:1034A0007A898B899C890E94C776262F372F482FCF
:1034B000592F298B3A8B4B8B5C8BC801B701A60126
:1034C00095010E94757A7B018C01C401B301A201B0
:1034D00091010E94757A9B01AC01C801B7010E945D
:1034E000C676262E372E482E592EBB245CAD4DAD08
:1034F0003EAD2FAD652F742F832F922F29893A89E6
:103500004B895C890E94C776EB8DFC8D608371834B
:103510008283938321965FAD219722964FAD2297A8
:1035200023963FAD239724962FAD2497652F742FB4
:10353000832F922FA20191010E94C776AF8DB8A16F
:103540006D937D938D939C931397EAA5FBA5608162
:103550007181828193812A96BFAD2A972B96AFAD58
:103560002B972C96FFAD2C972D96EFAD2D972B2FEB
:103570003A2F4F2F5E2F0E94C776AAA5BBA56D9349
:103580007D938D939C9313976D857E858F85988908
:103590002E96BFAD2E972F96AFAD2F976096FFADAD
:1035A00060976196EFAD61972B2F3A2F4F2F5E2FCB
:1035B0000E94C7766D877E878F87988B69817A8115
:1035C0008B819C8120E030E0A9010E94A07787FFD9
:1035D00007C080E090E0DC0189839A83AB83BC83E1
:1035E0006D817E818F81988520E030E0A9010E9465
:1035F000A07787FF07C080E090E0DC018D839E8389
:10360000AF83B88769857A858B859C8520E030E01B
:10361000A9010E94A07787FF07C080E090E0DC014D
:1036200089879A87AB87BC8769817A818B819C81E6
:1036300020E030E04DE453E40E94A379181644F4EE
:1036400080E090E0ADE4B3E489839A83AB83BC83EC
:103650006D817E818F81988520E030E04DE453E4D8
:103660000E94A379181644F480E090E0ADE4B3E43E
:103670008D839E83AF83B88769857A858B859C858A
:1036800020E030E048E453E40E94A379181644F4A3
:1036900080E090E0A8E4B3E489879A87AB87BC8791
:1036A000CE010196BE016B5F7F4FAE01475F5F4F5A
:1036B0009E01235F3F4FE8ACF9AC0AAD1BADFAE6C3
:1036C000CF2ED12CCC0EDD1E6FD6EBA1FCA13196F6
:1036D000FCA3EBA32BA13CA14CA55DA524173507AA
:1036E00008F42ECE698D7A8D6C5F7F4F498D5A8D8F
:1036F000485F5F4F898D9A8D29962EAD3FAD2997F2
:10370000E8ACF9AC0AAD1BADEAE6CE2ED12CCC0E5E
:10371000DD1E4AD6C05BDF4F0FB6F894DEBF0FBE8A
:10372000CDBFCF91DF911F910F91FF90EF90DF9070
:10373000CF90BF90AF909F908F907F906F905F9051
:103740004F903F902F900895DF93CF930F92CDB776
:10375000DEB76983DC01ED91FC910480F581E02DF9
:10376000BE016F5F7F4F41E050E009950F90CF9110
:10377000DF9108952F923F924F925F926F927F92C6
:103780008F929F92AF92BF92CF92DF92EF92FF9271
:103790000F931F93DF93CF93CDB7DEB76A970FB622
:1037A000F894DEBF0FBECDBF9A8F898F3A014B01CF
:1037B00078018901DC01D8966D917D918D919C9164
:1037C000DB970E9440785B016C01A40193010E9489
:1037D000757A0E948D770E941478262F372F482FF4
:1037E000592F2D873E874F87588BC601B501A801F9
:1037F00097010E94757A0E948D770E9414789B0130
:10380000AC01298B3A8B4B8B5C8B8D859E85AF856C
:10381000B88988379105A105B10540F488E790E0A3
:10382000A0E0B0E08D879E87AF87B88B2837310541
:103830004105510540F428E730E040E050E0298B95
:103840003A8B4B8B5C8BE98DFA8DEC5BFF4F608084
:10385000718082809380A98DBA8DDC966D917D9167
:103860008D919C91DF970E9440786D837E838F833A
:103870009887C401B3010E9442781B012C0120E00B
:1038800030E0A9010E94A077882329F1C601B50183
:10389000A60195010E94757A7B018C016D817E8164
:1038A0008F8198859B01AC010E94757A9B01AC01C8
:1038B000C801B7010E94C6767B018C01C201B1012B
:1038C000A20191010E94C7769B01AC01C801B7011A
:1038D0000E94A77704C060E070E080E090E00E9462
:1038E0008D770E940F7869837A838B839C83E9802C
:1038F000FA800B811C81E98DFA8DE05CFF4F6081BD
:103900007181828193810E94407869877A878B8751
:103910009C8766277727CB0166197709880999095B
:103920000E9442783B014C0120E030E0A9010E9456
:10393000A077882349F169857A858B859C859B01D1
:10394000AC010E94757A6D8B7E8B8F8B988FC60130
:10395000B501A60195010E94757A9B01AC016D89A4
:103960007E898F89988D0E94C6765B016C01C401A7
:10397000B301A40193010E94C7769B01AC01C6016B
:10398000B5010E94A77704C060E070E080E090E09D
:103990000E947D78E98DFA8DA088B188C288D3888D
:1039A0003501460129813A814B815C81621A730A93
:1039B000840A950A0E940F78A4019301261B370BF5
:1039C000480B590BDA01C90157FF68C0C201B101A8
:1039D00020E030E0A9010E94A077882309F443C0C9
:1039E000C201B101A20191010E94C7767B018C0145
:1039F000C601B5010E9440789B01AC01C801B70126
:103A00000E94757A7B018C016D817E818F81988502
:103A10009B01AC010E94757A9B01AC01C801B70102
:103A20000E94C6767B018C0169857A858B859C8591
:103A30009B01AC010E94757A9B01AC01C801B701E2
:103A40000E94C7767B018C01C201B10120E030E009
:103A500040E850E40E94757A9B01AC01C801B701AF
:103A60000E94A77704C060E070E080E090E00E94D0
:103A70008D770E940F78E62EF72E082F192F17FF4B
:103A800003C0EE24FF248701EA14FB040C051D0586
:103A900010F08601750180E090E0DC012FB7F8940A
:103AA000E98DFA8DE45BFF4F3081332311F5E98D09
:103AB000FA8DE48AF58A068B178BE80EF91E0A1F29
:103AC0001B1FE08EF18E028F138F8D859E85AF8533
:103AD000B88984AF95AFA6AFB7AFAF01405C5F4F79
:103AE00089899A89AB89BC89FA0180839183A283F1
:103AF000B3832FBF6A960FB6F894DEBF0FBECDBF5B
:103B0000CF91DF911F910F91FF90EF90DF90CF90B9
:103B1000BF90AF909F908F907F906F905F904F90ED
:103B20003F902F9008959F92AF92BF92CF92DF92D5
:103B3000EF92FF920F931F93CF93DF93EB017A01E4
:103B4000209709F46EC04115510509F46AC01AA501
:103B5000BBA4ACA49DA46EA17FA188A599A5212F8B
:103B60003B2D4A2D592D0E94A077882309F459C076
:103B70008FA9882309F047C0F701C6A0D7A0E0A409
:103B8000F1A4612F7B2D8A2D992DA70196010E940A
:103B9000A3791816C4F5C701B601A70196010E94C2
:103BA000757A6B017C012AA93BA94CA95DA95058E3
:103BB000CA01B9010E94C7762EA53FA548A959A9F7
:103BC0000E94757A9B01AC01C701B6010E94C676BE
:103BD0000E94E27AC62E072FF82EE92E612F7B2D48
:103BE0008A2D992DF7012C2D302F4F2F5E2F0E94FB
:103BF000A07787FF04C0C12E0B2DFA2CE92C5C2D79
:103C0000402F970104C0512F4B2D3A2D292D852F80
:103C1000942FA32FB22F8EA39FA3A8A7B9A781E0AB
:103C20008EABDF91CF911F910F91FF90EF90DF90BE
:103C3000CF90BF90AF909F900895AF92BF92CF92D8
:103C4000DF92FF920F931F93DF93CF930F92CDB725
:103C5000DEB78091420A8FB7F894F090430A8FBF85
:103C60008091420A90E040968F1991098F70907070
:103C70008430910534F12091420A23502F7040E0A6
:103C800050E000E010E08DE4C82ED12C18C02223B3
:103C900009F420E12150822F90E08C9D50018D9DF0
:103CA000B00C9C9DB00C112482E795E0A80EB91EC3
:103CB000C501B801298337DFA801850129812F15A6
:103CC00031F70F90CF91DF911F910F91FF90DF900F
:103CD000CF90BF90AF9008958F929F92AF92BF9276
:103CE000CF92DF92EF92FF920F931F93CF93DF93C8
:103CF000EC016B01009709F465C08FA9882309F0D6
:103D000061C0EEA0FFA008A519A5FB01B6A0A7A061
:103D100090A481A4C801B701D501F4012B2F3A2F3B
:103D20004F2F5E2F0E94A07787FF4CC0C801B701BC
:103D3000A80197010E94757A7B018C012AA93BA9F1
:103D40004CA95DA95058CA01B9010E94C7762EA599
:103D50003FA548A959A90E94757A9B01AC01C801E9
:103D6000B7010E94C6760E94E27A8B017C01A50110
:103D70009401652F742F832F922F202F312F4E2DDA
:103D80005F2D0E94A07787FF04C00B2D1A2DE92C10
:103D9000F82CA5019401652F7A2D832F982D202FC3
:103DA000312F4E2D5F2D0E94A077882359F0802F50
:103DB000912FAE2DBF2DF60186A397A3A0A7B1A783
:103DC00081E086ABDF91CF911F910F91FF90EF9033
:103DD000DF90CF90BF90AF909F908F900895DF922B
:103DE000EF92FF920F931F93CF93DF93D090430AEC
:103DF00000E010E080E090E02DE4E22EF12C16C00F
:103E00002D2D30E02E9DE0012F9DD00D3E9DD00D3B
:103E10001124CE58DA4FB801AE015EDF8D2D8F5FD1
:103E2000803109F480E0D82EC8018E012091420A29
:103E3000D21631F7B80140E050E04EDFDF91CF916C
:103E40001F910F91FF90EF90DF9008952F923F9276
:103E50004F925F926F927F928F929F92AF92BF929A
:103E6000CF92DF92EF92FF920F931F93CF93DF9346
:103E7000F090430AC0E0D0E03DE4632E712C40C0D6
:103E8000069D6001079DD00C169DD00C112482E781
:103E900095E0C80ED91E209769F18EA9882321F4D8
:103EA000F60186A9882331F18AA09BA0ACA0BDA011
:103EB0006EA17FA188A599A5A50194010E94A7776D
:103EC0001B012C01069DF001079DF00D169DF00DC4
:103ED0001124EE58FA4F66A177A180A591A5A501FE
:103EE00094010E94A7778B019C01CE01B201A10130
:103EF00041DC1EAAF394FF2DF03109F4FF24E60102
:103F00000F2D112707FD10958091420A90E00817A8
:103F1000190709F0B5CF2097E9F0CAA0DBA0ECA003
:103F2000FDA06EA17FA188A599A5A70196010E9479
:103F3000A7774B015C016DEC7CEC8CE49DE3A70161
:103F400096010E94A7778B019C01CE01B501A401C7
:103F500011DC1EAADF91CF911F910F91FF90EF907E
:103F6000DF90CF90BF90AF909F908F907F906F9099
:103F70005F904F903F902F9008955FDE30DF66CFC7
:103F80001092420A1092430A80E1E1E6F5E0DF0177
:103F90001D928A95E9F780E090E0DC018093490A60
:103FA00090934A0AA0934B0AB0934C0A80934D0A0F
:103FB00090934E0AA0934F0AB093500A8093510AEF
:103FC0009093520AA093530AB093540A8093550ACF
:103FD0009093560AA093570AB093580A8093450AC3
:103FE0009093460AA093470AB093480A08952F92E7
:103FF0003F924F925F926F927F928F929F92AF9279
:10400000BF92CF92DF92EF92FF920F931F93CF93C5
:10401000DF9380917105882309F42CC18091780D7C
:104020009091790D60E00E948E64D0902002C09043
:104030002102B0902202A090230220E030E040E074
:1040400050E40E94C776D601F5012B2F3A2F4F2F4F
:104050005E2F0E94A07787FD0DC11091430A552461
:104060004424332422245EC0212F30E08DE490E0EC
:10407000289FF001299FF00D389FF00D1124EE5874
:10408000FA4F80819181A281B3810097A105B1058A
:1040900081F484819581A681B7810097A105B1053E
:1040A00041F480859185A285B3850097A105B1056E
:1040B000B9F18DE490E0289FE001299FD00D389F51
:1040C000D00D1124CE58DA4F6C857D858E859F8565
:1040D0000E9442783B014C01688979898A899B89D1
:1040E0000E9440789B01AC01C401B3010E94A777F4
:1040F0002AA13BA14CA15DA10E94757A062FF72E43
:10410000E82E992ED201F1012B2F342D4F2F522D55
:104110000E94A379181624F4502E4F2C3E2C292CE3
:104120001F5F1F708091420A181709F09DCFA201EE
:104130009101652F742D832F922D209124023091AF
:10414000250240912602509127020E94757A9B0118
:10415000AC01D601F5016B2F7C2D8F2F9A2D0E947B
:10416000C776162F072FF82EE92EA8019701652F85
:10417000742F832F922FD601F5012B2F3C2D4F2F1B
:104180005A2D0E94A07787FD02C068015701E09078
:104190001C02F0901D0200911E0210911F02A60148
:1041A0009501652F7C2D832F9A2D2E2D3F2D402F8D
:1041B000512F0E94A379181624F0ED2CFC2C0B2D06
:1041C0001A2DA090590AB0905A0AC0905B0AD0905C
:1041D0005C0AC601B5012E2D3F2D402F512F0E94A4
:1041E000A379181604F56E2D7F2D802F912F20E0D6
:1041F00037ED43EA5CE30E94757A162F072FF82EFD
:10420000E92EC601B50128E431EE4AE75FE30E94DA
:10421000757AD801F7012B2F3A2F4F2F5E2F0E946E
:10422000C7767B018C018E2D9F2DA02FB12F8093FF
:10423000590A90935A0AA0935B0AB0935C0A6E2DB8
:104240007F2D802F912F0E940F78DC01CB0160E041
:104250000E948B639093790D8093780D8E2D9F2D06
:10426000A02FB12F8093800D9093810DA093820D8C
:10427000B093830DDF91CF911F910F91FF90EF903D
:10428000DF90CF90BF90AF909F908F907F906F9076
:104290005F904F903F902F9008950F931F939091B0
:1042A000430A8091420A981709F442C06091430A78
:1042B000262F30E08DE490E0289FF001299FF00D3B
:1042C000389FF00D1124E654FA4F108170E000E0A1
:1042D0002DE430E028C0462F50E0429FF001439F7C
:1042E000F00D529FF00D1124EE58FA4F8085918504
:1042F000A285B3850097A105B10509F00F5F429F24
:10430000F001439FF00D529FF00D1124E654FA4F37
:1043100080819181A281B3810097A105B10509F047
:104320007F5F6F5F6F708091420A6817A1F610C0BF
:104330008091A40B8823A9F13E9A90E09093990074
:10434000809398008091900080688093900029C0AD
:10435000002309F4479A8091A40B882361F4772302
:1043600051F43E9A1092990010929800809190001A
:104370008068809390008091A40B882371F01123B2
:1043800061F03E9A812F90E090939900809398007D
:104390008091900080688093900029DE1F910F919A
:1043A000089510E070E0D6CF2F923F924F925F9227
:1043B0006F927F928F929F92AF92BF92CF92DF9235
:1043C000EF92FF920F931F93DF93CF93CDB7DEB79A
:1043D000C555D0400FB6F894DEBF0FBECDBF1C014F
:1043E0002B015AA349A33EA32DA36E2C9F2C580149
:1043F000DAAAC9AA8091420A8F5F803109F480E06D
:10440000282F332727FD309562963FAF2EAF629756
:1044100005C00E948C6581E00E947C498091430A1E
:1044200090E062964EAD5FAD62978417950789F371
:10443000D1016D917D918D919C91209115053091C7
:10444000160540911705509118050E94757A0E9433
:10445000457A28966CAF7DAF8EAF9FAF2897F2015B
:1044600060817181828193812091190530911A05B3
:1044700040911B0550911C050E94757A0E94457A57
:104480002C966CAF7DAF8EAF9FAF2C97A9A1BAA130
:104490006D917D918D919C9120911D0530911E050E
:1044A00040911F05509120050E94757A0E94457A1F
:1044B00060966CAF7DAF8EAF9FAF6097EDA1FEA110
:1044C0006081718182819381209121053091220543
:1044D00040912305509124050E94757A0E94457AE7
:1044E0006AAF7BAF8CAF9DAF80916D0590916E05EB
:1044F000A0916F05B09170052AAD3BAD4CAD5DAD9F
:10450000281739074A075B0709F444C06091A30BD9
:10451000E62FF0E0EE0FFF1FE458F24F808191810B
:104520000E948E6420E030E04AE253E40E94A077CB
:1045300087FF30C08091440A882361F54AAD5BADA6
:104540006CAD7DAD40936D0550936E0560936F0526
:1045500070937005EEE2F2E064918F0107C08BEC7E
:104560009DE0F2D80F5F1F4FF80164916623B9F701
:10457000E2E5F2E064918F0107C08BEC9DE0E4D8A6
:104580000F5F1F4FF80164916623B9F78BEC9DE034
:104590006AE0DAD880916D0590916E05A0916F0563
:1045A000B09170052AAD3BAD4CAD5DAD281B390B0C
:1045B0004A0B5B0BCA01B90157FF07C09095809564
:1045C000709561957F4F8F4F9F4F0E9442787B017E
:1045D0008C016091210570912205809123059091B5
:1045E000240520E030E04DEC53E40E94757A9B01F5
:1045F000AC01C801B7010E94A379181664F54AAD51
:104600005BAD6CAD7DAD40936D0550936E056093D1
:104610006F0570937005EEE2F2E064918F0107C0C0
:104620008BEC9DE091D80F5F1F4FF80164916623DA
:10463000B9F7E4E3F2E064918F0107C08BEC9DE0F1
:1046400083D80F5F1F4FF80164916623B9F78BEC95
:104650009DE06AE079D88091420A282F30E03AA3A1
:1046600029A38DE490E0289FF001299FF00D389F49
:10467000F00D1124EE58FA4FDF01A45BBF4F1C92DE
:1046800040916105509162056091630570916405E8
:104690004DA35EA36FA378A728968CAD9DADAEAD5C
:1046A000BFAD2897841B950BA60BB70BB7FF07C0B0
:1046B000B095A095909581959F4FAF4FBF4F808348
:1046C0009183A283B38360916505709166058091A3
:1046D00067059091680569A77AA78BA79CA78DE4C9
:1046E00090E0A9A1BAA1A89FF001A99FF00DB89FE1
:1046F000F00D1124EE58FA4F2C968CAD9DADAEAD59
:10470000BFAD2C9729A53AA54BA55CA5821B930BA1
:10471000A40BB50BB7FF07C0B095A09590958195F8
:104720009F4FAF4FBF4F84839583A683B78340913C
:10473000690550916A0560916B0570916C054DA7F4
:104740005EA76FA778AB8DE490E069A17AA1689F1E
:10475000F001699FF00D789FF00D1124EE58FA4F8B
:1047600060968CAD9DADAEADBFAD60972DA53EA55D
:104770004FA558A9821B930BA40BB50BB7FF07C01D
:10478000B095A095909581959F4FAF4FBF4F808773
:104790009187A287B38720906D0530906E05409079
:1047A0006F055090700520913F02309140026AAD34
:1047B0007BAD8CAD9DAD621973098409950997FF96
:1047C00007C090958095709561957F4F8F4F9F4F53
:1047D000442737FD4095542F0E943B7B24E630E070
:1047E00040E050E00E948F7B8DE490E069A17AA1C7
:1047F000689FF001699FF00D789FF00D1124EE582D
:10480000FA4F2487358746875787C080D1807281C9
:104810006381E480F5800681178180859185A2857A
:10482000B3858E159F05A007B10714F4D801C70101
:1048300082179307A407B50714F4DA01C901FB0135
:1048400096014F2F562F281739074A075B0714F494
:104850009C01AD018DE490E0A9A1BAA1A89FF0014F
:10486000A99FF00DB89FF00D1124EE58FA4F208B40
:10487000318B428B538B263031054105510510F4A5
:104880000C94DE2C9F01285B3F4F8091A40B482F96
:1048900050E060E070E0D9014D935D936D937C939F
:1048A000139710A228962CAD3DAD4EAD5FAD289765
:1048B0006DA17EA18FA198A5261737074807590734
:1048C00014F481E080A32C968CAD9DADAEADBFAD50
:1048D0002C9729A53AA54BA55CA582179307A40799
:1048E000B50784F48DE490E049A15AA1489FF001F6
:1048F000499FF00D589FF00D1124EE58FA4F80A1FA
:10490000826080A360966CAD7DAD8EAD9FAD6097EB
:104910002DA53EA54FA558A96217730784079507D3
:1049200084F48DE490E049A15AA1489FF001499F89
:10493000F00D589FF00D1124EE58FA4F80A18460BD
:1049400080A36AAD7BAD8CAD9DAD6215730584050A
:10495000950584F48DE490E0A9A1BAA1A89FF00187
:10496000A99FF00DB89FF00D1124EE58FA4F80A1C9
:10497000886080A38DE490E029A13AA1289FF001EE
:10498000299FF00D389FF00D1124EE58FA4FA9A978
:10499000BAA98C9181A380819181A281B381009772
:1049A000A105B10509F077988DE490E029A13AA11D
:1049B000289FF001299FF00D389FF00D1124EE582B
:1049C000FA4F84819581A681B7810097A105B10531
:1049D00009F076988DE490E049A15AA1489FF00132
:1049E000499FF00D589FF00D1124EE58FA4F808525
:1049F0009185A285B3850097A105B10509F0479877
:104A00008DE490E069A17AA1689FF001699FF00DA3
:104A1000789FF00D1124EE58FA4F84859585A68570
:104A2000B7850097A105B10509F043988DE490E0A2
:104A3000A9A1BAA1A89FF001A99FF00DB89FF00D00
:104A40001124EE58FA4F84859585A685B785009781
:104A5000A105B10549F4E0904D0500914E05109176
:104A60004F05F090500508C0E090350500913605DF
:104A700010913705F0903805662D792D8A2D9B2DE4
:104A80002E2D302F412F5F2D0E94A07787FD04C06F
:104A9000E62C092D1A2DFB2C809161059091620561
:104AA000A0916305B091640528962CAD3DAD4EAD47
:104AB0005FAD2897281B390B4A0B5B0BCA01B90164
:104AC0000E944278209115053091160540911705F6
:104AD000509118050E94A777962E872E482E9DA3E9
:104AE000A401292F852F942FA42DB22F89839A8377
:104AF000AB83BC838091650590916605A0916705A5
:104B0000B09168052C962CAD3DAD4EAD5FAD2C97A8
:104B1000281B390B4A0B5B0BCA01B9010E94427872
:104B20002091190530911A0540911B0550911C05E3
:104B30000E94A77769A77DA789AB99AF472F382F28
:104B4000292F862F942FA32FB22F8D839E83AF837F
:104B5000B8878091690590916A05A0916B05B09125
:104B60006C0560962CAD3DAD4EAD5FAD6097281BDA
:104B7000390B4A0B5B0BCA01B9010E9442782091A4
:104B80001D0530911E0540911F05509120050E9482
:104B9000A777562E272E382E9DAB292F862F922DA4
:104BA000A32DB22F89879A87AB87BC8760903F027D
:104BB0007090400280916D0590916E05A0916F05F7
:104BC000B09170052AAD3BAD4CAD5DAD281B390BE6
:104BD0004A0B5B0BCA01B9010E9442782091210562
:104BE0003091220540912305509124050E94A7771A
:104BF0005B016C01B301882777FD8095982F0E9497
:104C000042789B01AC01C601B5010E94757A20E093
:104C100030E048EC52E40E94A777262F372F482F28
:104C2000592F6D877E878F87988B8DE490E069A1DF
:104C30007AA1689FF001699FF00D789FF00D112413
:104C4000EE58FA4F80819181A281B381863091051F
:104C5000A105B105C4F484819581A681B781863010
:104C60009105A105B1057CF480859185A285B38568
:104C700086309105A105B10534F45F7726A737A7E3
:104C800040AB51AB3CC0A4012DA1652F782D842DE4
:104C9000922F0E94207B5B016C0159A54DA539A97B
:104CA00029AD652F742F832F922F0E94207B3B010B
:104CB0004C012DA9652D722D832D922F0E94207BF2
:104CC0001B012C01C601B501A40193010E94C77606
:104CD000A20191010E94C7760E94E27A2DE430E0A1
:104CE000A9A1BAA1A29FF001A39FF00DB29FF00D60
:104CF0001124EE58FA4F66A777A780AB91AB8DE4ED
:104D000090E029A13AA1289FF001299FF00D389F3A
:104D1000F00D1124EE58FA4F46A557A560A971A9C8
:104D20004DAB5EAB6FAB78AF60E070E080E89FE3C7
:104D30002DA93EA94FA958AD0E94A7779B01AC01B0
:104D40006E2D702F812F9F2D0E94757A69A77DA7E8
:104D500089AB99AF9091420A8091430A692F70E024
:104D6000605F7F4F681B71096F7070707EA36DA3C9
:104D700060E074E284E799E4B9A5ADA5F9A9E9ADCD
:104D80002B2F3A2F4F2F5E2F0E94A7770E94457A34
:104D9000962E672E882E492E8DA19EA182309105D8
:104DA0000CF446C05C01CC24B7FCC094DC2CC601DA
:104DB000B5010E94427820E030E040E051E40E94DA
:104DC000A07787FF35C0E92CF62C082D142D6091B3
:104DD0000105709102058091030590910405E61686
:104DE000F7060807190720F56E197F09800B910B4C
:104DF000660F771F881F991FA60195010E946D7B82
:104E0000CA01B9010E9440780E94457A6E0D7F1D4B
:104E1000801F911F0E9440789B01AC0160E074E20A
:104E200084E799E40E94A77769A77DA789AB99AF2A
:104E30008DE490E0A9A1BAA1A89F8001A99F100DBF
:104E4000B89F100D11240E581A4F6DA97EA98FA975
:104E500098ADB9A5ADA5F9A9E9AD2B2F3A2F4F2FE4
:104E60005E2F0E94757AF80162A373A384A395A3B1
:104E700060897189828993890E944078B9A5ADA51E
:104E8000F9A9E9AD2B2F3A2F4F2F5E2F0E94757A8B
:104E90000E948D770E941478D801D8966D937D93E7
:104EA0008D939C93DB97FE013196FEABEDAB8E01AB
:104EB0000F5E1F4F25E035E022963FAF2EAF2297C1
:104EC0001FAF0EAFEE24DD2480E8C82EBFE3BB2E5B
:104ED000ADA9BEA96D917D918D919D91BEABADABFC
:104EE000B9A5ADA5F9A9E9AD2B2F3A2F4F2F5E2F0C
:104EF0000E94757A1B012C01EEADFFAD219231921B
:104F000041925192FFAFEEAFE89457F82296AEADC2
:104F1000BFAD22976D907D908D909D902296BFAFF2
:104F2000AEAF2297C201B101A40193010E94A379FF
:104F30001816DCF4C401B301A20191010E94A77705
:104F4000F62EA72E982E892E6E2D7D2D8C2D9B2D25
:104F5000F4012F2D3A2D4F2F5E2F0E94A07787FD51
:104F600004C0EF2CDA2CC92CB82CEDA9FEA9E0174F
:104F7000F10709F0ADCF6E2D7D2D8C2D9B2D20E0FE
:104F800030E040E85FE30E94A07787FF4DC0A1E2D8
:104F90006A2E712C6C0E7D1ED8016D917D918D91C4
:104FA0009C912E2D3D2D4C2D5B2D0E94757AF80184
:104FB00061937193819391938F01E615F70561F7E2
:104FC0008DE490E029A13AA1289F8001299F100D2E
:104FD000389F100D11240E581A4FD80192966D91DA
:104FE0007D918D919C9195972E2D3D2D4C2D5B2D76
:104FF0000E94757AF80162A373A384A395A360ADA0
:1050000071AD82AD93AD0E9440782E2D3D2D4C2D7B
:105010005B2D0E94757A0E941478D801D8966D9302
:105020007D938D939C93DB978DE490E0E9A1FAA1A9
:10503000E89F8001E99F100DF89F100D11240E5874
:105040001A4FD80150966D917D918D919C915397F7
:105050000E944078F80126A537A540A951A90E94D1
:10506000A777562E472E382E292EF8018081918160
:10507000A281B3810097A105B10569F5848195816D
:10508000A681B7810097A105B10529F58085918595
:10509000A285B3850097A105B105E9F4A2019101AC
:1050A000652F742F832F922F20913D0530913E055F
:1050B00040913F05509140050E94757A0E948D777E
:1050C0000C5B1F4F0E941478D8016D937D938D93D4
:1050D0009C93139765C1A2019101652F742D832FB5
:1050E000922D2091390530913A0540913B05509120
:1050F0003C050E94757A0E948D770E9414782DE4F9
:1051000030E0E9A1FAA1E29F8001E39F100DF29F38
:10511000100D11240E581A4FF4E4AF2EB12CA00E2E
:10512000B11ED5016D937D938D939C9313976090E1
:1051300051057090520580905305909054050E943F
:1051400040786B017C01F8016081718182819381DB
:105150000E9442789B01AC01C701B6010E94757A9A
:105160006B017C01D80150966D917D918D919C9140
:1051700053970E9440789B01AC01C701B6010E9481
:10518000A7777B018C01C401B3010E9440789B0189
:10519000AC01C801B7010E94A37918162CF4F501DF
:1051A000608271828282938260905505709056056C
:1051B00080905705909058058DE490E029A13AA180
:1051C000289F8001299F100D389F100D11240E5823
:1051D0001A4FE4E4AE2EB12CA00EB11ED5016D9194
:1051E0007D918D919C910E9440786B017C01F8012A
:1051F00064817581868197810E9442789B01AC0110
:10520000C701B6010E94757A6B017C01D8015096E6
:105210006D917D918D919C9153970E9440789B0157
:10522000AC01C701B6010E94A7777B018C01C401C4
:10523000B3010E9440789B01AC01C801B7010E94F4
:10524000A37918162CF4F501608271828282938210
:1052500060905D0570905E0580905F0590906005A0
:105260008DE490E029A13AA1289F8001299F100D8B
:10527000389F100D11240E581A4F74E4A72EB12C2C
:10528000A00EB11ED5016D917D918D919C910E94D2
:1052900040786B017C01F80164857585868597856A
:1052A0000E9442789B01AC01C701B6010E94757A49
:1052B0006B017C01D80150966D917D918D919C91EF
:1052C00053970E9440789B01AC01C701B6010E9430
:1052D000A7777B018C01C401B3010E9440789B0138
:1052E000AC01C801B7010E94A37918162CF4F5018E
:1052F00060827182828293826090590570905A0513
:1053000080905B0590905C058DE490E029A13AA126
:10531000289F8001299F100D389F100D11240E58D1
:105320001A4F64E4A62EB12CA00EB11ED5016D91CA
:105330007D918D919C910E9440786B017C01F801D8
:1053400060857185828593850E9442789B01AC01BE
:10535000C701B6010E94757A6B017C01D801509695
:105360006D917D918D919C9153970E9440789B0106
:10537000AC01C701B6010E94A7777B018C01C40173
:10538000B3010E9440789B01AC01C801B7010E94A3
:10539000A37918162CF4F5016082718282829382BF
:1053A0008DE490E029A13AA1289F8001299F100D4A
:1053B000389F100D11240E581A4FF801EC5BFF4F67
:1053C00060817181828193810E9440786B017C01B0
:1053D000D201F1012B2F342D4F2F522D0E94A77790
:1053E000D801D2966D937D938D939C93D597C701E9
:1053F000B6012DEB37E346E051E40E94757A0E9436
:105400000F78F801648F758F868F978F20914105F3
:1054100030914205409143055091440529A73AA790
:105420004BA75CA7CA01B90120E030E040E05FE390
:105430000E94757A262E472E882E792E498D5A8DF8
:105440006B8D7C8D24964CAF5DAF6EAF7FAF249794
:1054500060914505709146058091470590914805FA
:105460006DA77EA78FA798AB20E030E040E05FE318
:105470000E94757AE62E072F182FD92E24966CAD30
:105480007DAD8EAD9FAD24979F772E2D302F412F70
:105490005D2D0E94A379181684F4622D742D882D39
:1054A000972D2E2D302F412F5D2D0E94A07787FD47
:1054B00004C02E2C402E812E7D2C8D8D9E8DAF8D87
:1054C000B8A166968CAF9DAFAEAFBFAF6697209187
:1054D000490530914A0540914B0550914C0529AB47
:1054E0003AAB4BAB5CABCA01B90120E030E040E025
:1054F0005FE30E94757AE62E072F182FD92E669645
:105500006CAD7DAD8EAD9FAD66979F772E2D302F04
:10551000412F5D2D0E94A379181684F4622D742DFD
:10552000882D972D2E2D302F412F5D2D0E94A07795
:1055300087FD04C02E2C402E812E7D2C8DE490E022
:1055400049A15AA1489FD001499FB00D589FB00D65
:105550001124AE58BA4FFD01B29692969C9061808C
:1055600032805380622D742D882D972D292D362D54
:10557000432D552D0E94A07787FD04C0292C462C71
:10558000832C752C6DA17EA1623071050CF40BC1CA
:105590007091450A7DA38091460A89AF9091470A90
:1055A0009DABA091480AAEAF672F782F892F9A2F15
:1055B00027E137EB41ED58E30E94A37918160CF070
:1055C000F2C069897A898B899C892091490A309136
:1055D0004A0A40914B0A50914C0A0E94C6769B01A0
:1055E000AC010E94757AF62E072F182FE92E6D89CF
:1055F0007E898F89988D20914D0A30914E0A409175
:105600004F0A5091500A0E94C6769B01AC010E943D
:10561000757AD62EB72FA82FF92F2F2D302F412F87
:105620005E2DCA01B9012D2D3B2F4A2F5F2F0E94FD
:10563000C7760E94E27A7B018C0129A53AA54BA589
:105640005CA50E94A379181664F469A57AA58BA5B8
:105650009CA5A80197010E94A7776B01B82EA92EDF
:1056600006C0CC24DD2450E8B52E4FE3A42E2496AA
:105670006CAD7DAD8EAD9FAD24972091510A3091D8
:10568000520A4091530A5091540A0E94C6767B01F7
:105690008C01E89417F9C801B7012DA53EA54FA5C7
:1056A00058A90E94A3791816F4F46DA57EA58FA5BC
:1056B00098A9A80197010E94A777162F072FF82E07
:1056C000E92E95016C2D7D2D832F9A2DD801F701A0
:1056D0002B2F3A2F4F2F5E2F0E94A07787FD03C0FC
:1056E000C12ED02E570166966CAD7DAD8EAD9FADAF
:1056F00066972091550A3091560A4091570A509169
:10570000580A0E94C6767B018C01E89417F9C801FB
:10571000B70129A93AA94BA95CA90E94A379181637
:10572000F4F469A97AA98BA99CA9A80197010E9400
:10573000A777162F072FF82EE92E95016C2D7D2DBA
:10574000832F9A2DD801F7012B2F3A2F4F2F5E2F41
:105750000E94A07787FD03C0C12ED02E5701692D6E
:10576000762D832D952DF5012C2D3D2D4F2F5A2D66
:105770000E94757A162FE72E082FB92E5DA149AD2C
:105780003DA92EAD652F742F832F922F212F3E2DF3
:10579000402F5B2D0E94A07787FF09C01DA1E9ACB7
:1057A0000DA9BEAC04C0122DE42C082DB72C8DE43D
:1057B00090E0E9A1FAA1E89F6001E99FD00CF89F71
:1057C000D00C112422E735E0C20ED31E812F9E2D6E
:1057D000A02FBB2DF60182A793A7A4A7B5A722A946
:1057E00033A944A955A95058CA01B9010E94C776E6
:1057F000D6019E962D913D914D915C91D1970E943D
:10580000757A9B01AC016BE077ED83E29BE30E942C
:10581000C6760E94E27AA62EF72E682E992E612F68
:105820007E2D802F9B2D2A2D3F2D462D592D0E94F8
:10583000A07787FD04C01A2DEF2C062DB92C8DE41E
:1058400090E0E9A1FAA1E89F6001E99FD00CF89FE0
:10585000D00C112422E735E0C20ED31E812F9E2DDD
:10586000A02FBB2DF60186A397A3A0A7B1A762A185
:1058700073A184A195A12A2D3F2D462D592D0E945B
:10588000A077181634F081E0D601D7968C93D7977D
:1058900002C0F60117AA8DE490E029A13AA1289F41
:1058A000F001299FF00D389FF00D1124EE58FA4FAA
:1058B00081E086ABA9E4BAE0FE01719680E1019037
:1058C0000D928150E1F78DE490E049A15AA1489FE3
:1058D0008001499F100D589F100D11240E581A4F2A
:1058E000D8019296CD90DD90ED90FC909597C09266
:1058F000450AD092460AE092470AF092480A9696E4
:105900006D917D918D919C919997A70196010E942F
:10591000A77769A37AA38BA39CA3622D742D882DEE
:10592000972DA70196010E94A7776B017C01C80102
:1059300049A15AA16BA17CA1970186010E94BA1BC3
:105940006196BFAD6197B093420A28962CAD3DADEC
:105950004EAD5FAD2897209361053093620540936B
:105960006305509364052C964CAD5DAD6EAD7FAD77
:105970002C97409365055093660560936705709377
:10598000680560966CAD7DAD8EAD9FAD6097609300
:10599000690570936A0580936B0590936C058AADD9
:1059A0009BADACADBDAD80936D0590936E05A0939E
:1059B0006F05B09370050E94BD1FDCD1CB5ADF4F3D
:1059C0000FB6F894DEBF0FBECDBFCF91DF911F9110
:1059D0000F91FF90EF90DF90CF90BF90AF909F908E
:1059E0008F907F906F905F904F903F902F90089591
:1059F000AF92BF92CF92DF92EF92FF920F931F93DD
:105A0000CF93DF938B017A015901FC016081718191
:105A100082819381209115053091160540911705DB
:105A2000509118050E94757A0E94457AC1E6D5E02A
:105A3000609361057093620580936305909364059C
:105A4000F8016081718182819381209119053091E3
:105A50001A0540911B0550911C050E94757A0E9401
:105A6000457A44E0C42ED12CCC0EDD1E6093650532
:105A7000709366058093670590936805F7016081D0
:105A800071818281938120911D0530911E05409185
:105A90001F05509120050E94757A0E94457A8E015B
:105AA000085F1F4F6093690570936A0580936B05CB
:105AB00090936C05F50160817181828193812091C1
:105AC00021053091220540912305509124050E9423
:105AD000757A0E94457A9E01245F3F4F60936D0561
