:100000000C94800B0C94AF0B0C94AF0B0C94AF0BB7
:100010000C94AF0B0C94AF0B0C94AF0B0C94AF0B78
:100020000C94AF0B0C94AF0B0C94B19E0C942E9FC0
:100030000C94AF0B0C94AF0B0C94AF0B0C94AF0B58
:100040000C94AF0B0C9430300C94AF0B0C94AF0BA2
:100050000C94AF0B0C94AF0B0C9488950C94909A65
:100060000C94AF0B0C94AF0B0C94AF0B0C94AF0B28
:100070000C94AF0B0C94AF0B0C94AF0B0C94AF0B18
:100080000C94AF0B0C94AF0B0C94AF0B0C94AF0B08
:100090000C94AF0B0C94AF0B084AD73B3BCE016ED0
:1000A00084BCBFFDC12F3D6C74319ABD56833DDACF
:1000B0003D00C77F11BED9E4BB4C3E916BAAAABEDE
:1000C000000000803F05A84CCDB2D44EB93836A907
:1000D000020C50B9918688083CA6AAAA2ABE000044
:1000E00000803F6563686F3A0043616E6E6F7420F5
:1000F000656E746572207375626469723A00457248
:10010000726F723A006572726F72207772697469E9
:100110006E6720746F2066696C65004E6F742053A3
:1001200044207072696E74696E67002F005344201A
:100130007072696E74696E67206279746520002E32
:100140000044656C6574696F6E206661696C6564F6
:100150002C2046696C653A200046696C6520646510
:100160006C657465643A002E006F70656E20666180
:10017000696C65642C2046696C653A200057726989
:1001800074696E6720746F2066696C653A20002E72
:10019000006F70656E206661696C65642C2046692D
:1001A0006C653A20002E006F70656E206661696C88
:1001B00065642C2046696C653A200046696C6520B0
:1001C00073656C6563746564002053697A653A00F1
:1001D00046696C65206F70656E65643A002E006F2D
:1001E00070656E206661696C65642C2046696C657B
:1001F0003A2000776F726B446972206F70656E20D1
:100200006661696C656400776F726B446972206F18
:1002100070656E206661696C65640053442063619B
:100220007264206F6B006F70656E526F6F74206622
:1002300061696C656400766F6C756D652E696E69B9
:1002400074206661696C656400534420696E69744A
:10025000206661696C006563686F3A0020746F6F97
:10026000206C6F6E6720657874727573696F6E208D
:1002700070726576656E7465640020636F6C6420CF
:10028000657874727573696F6E2070726576656ECD
:100290007465640052656C65617365642E0024F4B6
:1002A00004D9201BC40C5C0E9804C4095F026507C6
:1002B0007101F405F900FB04B30048048700C10391
:1002C00069005803550003034500BE023A0084024A
:1002D000310053022A002902250004022000E40113
:1002E0001C00C8011900AF01170098011400840117
:1002F0001300710110006101100051010E00430153
:100300000D0036010B002B010B0020010B00150125
:1003100009000C01090003010800FB000800F300BC
:100320000800EB000700E4000600DE000600D8002D
:100330000600D2000600CC000500C7000500C20080
:100340000500BD000400B9000400B5000400B100C0
:100350000400AD000400A9000400A5000300A200F1
:1003600003009F0004009B00030098000300950019
:10037000020093000300900003008D0002008B0038
:100380000300880002008600020084000300810050
:1003900002007F0002007D0002007B000200790065
:1003A0000200770001007600020074000200720073
:1003B0000100710002006F0002006D0001006C007E
:1003C00002006A0001006900020067000100660087
:1003D000010065000100640002006200010061008C
:1003E0000100600001005F0002005D0001005C0090
:1003F00001005B0001005A00010059000100580093
:100400000100570001005600010055000100540092
:100410000100530000005300010052000100510090
:100420000100500001004F0001004E0000004E008E
:1004300001004D0001004C0001004B0000004B008A
:1004400001004A0001004900010048000000480086
:100450000100470001004600000046000100450081
:10046000000045000100440001004300000043007B
:100470000100420000004200010041000000410074
:100480000100400001003F0000003F0001003E006D
:1004900000003E0001003D0000003D0001003C0066
:1004A00000003C0000003C0001003B0000003B005D
:1004B00001003A0000003A00010039000000390054
:1004C000010038000000380000003800010037004B
:1004D0000000370001003600000036000000360042
:1004E0000100350000003500000035000100340037
:1004F000000034000000340001003300000033002D
:100500000000330001003200000032000000320021
:100510000100310000003100000031000100300016
:10052000000030000000300001002F0000002F000C
:1005300000002F0000002F0001002E0000002E0000
:1005400000002E0001002D0000002D0000002D00F5
:1005500000002D0001002C0000002C0000002C00E9
:1005600000002C0001002B0000002B0000002B00DD
:1005700000002B0001002A0000002A0000002A00D1
:1005800000002A00010029000000290000002900C5
:1005900000002900000029000100280000002800B8
:1005A00000002800000028000000280001002700AB
:1005B000000027000000270000002700000027009F
:1005C0000100260000002600000026000000260092
:1005D0000000260001002500000025000000250085
:1005E0000000250000002500000025000100240077
:1005F000000024000000240000002400000024006B
:10060000010023000000230000002300000023005D
:10061000000023000000230000002300010022004E
:100620000000220000002200000022000000220042
:100630000000220001002100000021000000210034
:100640000000210000002100000021000000210026
:100650000100200000002000000020000000200019
:10066000000020000000200000002000000020000A
:1006700001001F0000001F0000001F0000001F00FD
:1006800000001F0000001F0000001F0001001E00EE
:1006900000001E0000001E0000001E00000024F4E8
:1006A000D43050C38E20C2A24017828B7011127AB0
:1006B000910D816CD90AA861E108C758660761519C
:1006C00043061E4B5D05C145A7041A411104093DAF
:1006D0009803713931034036DB0265339102D4301F
:1006E0005402802E1D02632CEE01752AC501B0282C
:1006F000A001102781018F2564012B244B01E022EA
:100700003401AC211F018D200D01801FFC00841ECF
:10071000ED00971DDF00B81CD200E61BC600201BB1
:10072000BC00641AB200B219A8000A19A0006A1825
:100730009900D117910040178B00B516840031162F
:100740007E00B31579003A157300C7146F00581472
:100750006A00EE1366008813630025135E00C7125B
:100760005B006C12570015125400C111510070113A
:100770004F0021114B00D61049008D104700461044
:10078000440002104200C00F4000800F3E00420FA4
:100790003C00060F3B00CB0E3800930E37005C0E7A
:1007A0003500270E3400F30D3200C10D3100900DDD
:1007B0003000600D2E00320D2D00050D2C00D90CDF
:1007C0002B00AE0C2900850C29005C0C2700350C91
:1007D00027000E0C2600E80B2400C40B2400A00BFD
:1007E00023007D0B23005A0B2100390B2100180B2D
:1007F0002000F80A1F00D90A1E00BB0A1E009D0A2D
:100800001D00800A1D00630A1C00470A1B002C0AF9
:100810001B00110A1A00F7091A00DD091900C409A2
:100820001900AB091900920917007B091800630928
:1008300017004C09160036091600200916000A098F
:100840001500F5081500E0081400CC081400B808DD
:100850001400A4081400900813007D0812006B080F
:10086000130058081200460812003408110023082B
:1008700011001208110001081100F0071000E00734
:100880001000D0071000C0071000B0070F00A1072C
:10089000100091070E0083070F0074070F00650713
:1008A0000E0057070E0049070E003B070D002E07EC
:1008B0000E0020070D0013070D0006070D00F906B6
:1008C0000C00ED060D00E0060C00D4060C00C80676
:1008D0000C00BC060C00B0060C00A4060B00990628
:1008E0000C008D060B0082060B0077060B006C06D1
:1008F0000B0061060A0057060B004C060A00420670
:100900000A0038060A002E060A0024060A001A0603
:100910000A001006090007060A00FD050900F40593
:100920000900EB050900E2050900D9050900D00519
:100930000900C7050900BE050900B5050800AD0599
:100940000800A50509009C050800940508008C0511
:100950000800840508007C050800740508006C0583
:100960000700650508005D050700560508004E05EF
:100970000700470507004005080038050700310556
:1009800007002A050700230507001C0506001605B9
:1009900007000F0507000805060002050700FB0415
:1009A0000600F5040700EE040600E8040600E20471
:1009B0000700DB040600D5040600CF040600C904C6
:1009C0000600C3040600BD040600B7040600B10417
:1009D0000500AC040600A6040600A00405009B0464
:1009E000060095040500900406008A0405008504AD
:1009F0000500800406007A040500750405007004F3
:100A000005006B04050066040500610405005C0434
:100A1000050057040500520405004D040500480474
:100A20000500430405003E0404003A0405003504B3
:100A30000500300404002C040500270404002304EE
:100A400005001E0404001A04040016040500110425
:100A500004000D040400090405000404040000045B
:100A60000400FC030400F8030400F4030400F00392
:100A70000400EC030400E8030400E4030400E003C2
:100A80000400DC030400D8030400D4030400D003F2
:100A90000400CC030400C8030300C503030065631E
:100AA000686F3A00205A3A0020593A0020583A001C
:100AB000656E6473746F7073206869743A20007C8B
:100AC0003C3E5E2B3D3F2F5B5D3B2C2A225C00456C
:100AD00072726F723A002043617264204D656E75C8
:100AE000202020207E002053746F70205072696E89
:100AF000742020207E0020436F6E74726F6C207E05
:100B0000002054756E65202020207E0020507265E4
:100B100070617265207E0020576174636820202018
:100B200003002000045265667265736800204D6101
:100B3000696E20030020526573746F7265204661F0
:100B4000696C7361666500204C6F6164204550528A
:100B50004F4D002053746F7265204550524F4D0029
:100B6000204D6F74696F6E2020202020207E002091
:100B700054656D7065726174757265207E00204DDC
:100B800061696E20202020202020200300656368FA
:100B90006F3A0053657474696E67732053746F7293
:100BA00065640053746F7265642073657474696E54
:100BB0006773207265747265697665643A002044D3
:100BC000002049002020204D333031205000504972
:100BD000442073657474696E67733A002045002081
:100BE0005A0020580020420020540020204D32306E
:100BF00035205300416476616E63656420766172CE
:100C00006961626C65733A20533D4D696E2066657B
:100C100065647261746520286D6D2F73292C2054D2
:100C20003D4D696E2074726176656C206665656401
:100C30007261746520286D6D2F73292C20423D6DE3
:100C4000696E696D756D207365676D656E7420746E
:100C5000696D6520286D73292C20583D6D61786978
:100C60006D756D207859206A65726B20286D6D2F27
:100C700073292C20205A3D6D6178696D756D205A5D
:100C8000206A65726B20286D6D2F73290020540037
:100C900020204D323034205300416363656C65720F
:100CA0006174696F6E3A20533D616363656C657270
:100CB0006174696F6E2C20543D7265747261637447
:100CC00020616363656C65726174696F6E002045B5
:100CD00000205A0020590020204D32303120580089
:100CE0004D6178696D756D20416363656C657261F6
:100CF00074696F6E20286D6D2F7332293A0020457C
:100D000000205A0020590020204D32303320580056
:100D10004D6178696D756D20666565647261746595
:100D20007320286D6D2F73293A00204500205A004A
:100D300020590020204D39322058005374657073BB
:100D40002070657220756E69743A00204573746571
:100D500070732F6D6D3A00205A73746570732F6D28
:100D60006D3A00205973746570732F6D6D3A0020D1
:100D70005873746570732F6D6D3A003030003030E9
:100D80000020412D726574726163743A0030300046
:100D9000303000653A007A3A00793A00783A00201B
:100DA000416D61782000205654726176206D696E25
:100DB0003A0020566D696E3A00653A007A3A007939
:100DC0003A00783A0020566D6178200020567879F4
:100DD0002D6A65726B3A20003030003030002041BF
:100DE00063633A0020436F6E74726F6C20030020BF
:100DF0005049442D433A2000205049442D443A2084
:100E000000205049442D493A2000205049442D509B
:100E10003A20002046616E2073706565643A0020B8
:100E2000024265643A0020024E6F7A7A6C653A009D
:100E300020436F6E74726F6C20030020466C6F77D6
:100E40003A002046616E2073706565643A002002A6
:100E50004265643A0020024E6F7A7A6C653A00204F
:100E600053706565643A00204D61696E200300206F
:100E70004578747275646500205A3A0020593A002A
:100E800020583A002050726570617265200300207E
:100E90004D6F766520417869732020202020207EC8
:100EA0000020436F6F6C646F776E0020507265682E
:100EB0006561742041425300205072656865617419
:100EC00020504C410020536574204F726967696E51
:100ED00000204175746F20486F6D65002044697370
:100EE00061626C6520537465707065727300204197
:100EF00075746F737461727400204D61696E2003A4
:100F000000255344002520005A3A006D0068200057
:100F1000422D2D2D2F2D2D2D012000022D2D2D2F79
:100F20002D2D2D0120005072696E7465722052655E
:100F30006164792E004B494C4C45442E2000507280
:100F4000696E7465722068616C7465642E206B69CB
:100F50006C6C28292063616C6C6564202121006F12
:100F60006B00526573656E643A002200556E6B6EBD
:100F70006F776E20636F6D6D616E643A22007A5FE9
:100F80006D696E3A00795F6D696E3A00785F6D69E0
:100F90006E3A005A3A00593A0020436F756E742039
:100FA000583A00453A005A3A00593A00583A004631
:100FB00049524D574152455F4E414D453A4D617240
:100FC0006C696E2056313B20537072696E74657285
:100FD0002F6772626C206D617368757020666F7226
:100FE0002067656E36204649524D574152455F5540
:100FF000524C3A687474703A2F2F7777772E6D655C
:101000006E64656C2D70617274732E636F6D205009
:10101000524F544F434F4C5F56455253494F4E3AEF
:10102000312E30204D414348494E455F545950457B
:101030003A4D656E64656C2045585452554445528E
:101040005F434F554E543A310A00506172746961E2
:101050006C2052656C656173650042656420646F45
:101060006E652E0020423A0020453A00543A004274
:1010700065642048656174696E672E004865617417
:10108000696E6720646F6E652E0020573A00204518
:101090003A00543A0048656174696E672E2E2E003E
:1010A00020403A0020423A006F6B20543A00456ECF
:1010B000642066696C65206C6973740042656769B9
:1010C0006E2066696C65206C697374004E6F206DCC
:1010D0006F76652E004457454C4C2E2E2E00446FE3
:1010E0006E65207072696E74696E672066696C65E2
:1010F000006F6B004E6F204C696E65204E756D62FF
:101100006572207769746820636865636B73756DB9
:101110002C204C617374204C696E653A004E6F2030
:10112000436865636B73756D2077697468206C69BB
:101130006E65206E756D6265722C204C6173742033
:101140004C696E653A00636865636B73756D206DFD
:1011500069736D617463682C204C617374204C69F1
:101160006E653A004C696E65204E756D6265722041
:101170006973206E6F74204C617374204C696E65C6
:10118000204E756D6265722B312C204C617374207A
:101190004C696E653A00446F6E6520736176696EC6
:1011A000672066696C652E006F6B002020506C61B3
:1011B0006E6E657242756666657242797465733AE1
:1011C00020002046726565204D656D6F72793A206A
:1011D00000616A643430393600207C2041757468BF
:1011E0006F723A2000323031322D30362D303700D8
:1011F000204C61737420557064617465643A2000FA
:10120000312E302E3020524332004D61726C696EA7
:101210003A200020536F66747761726520526573BF
:10122000657400205761746368646F67205265734A
:101230006574002042726F776E206F75742052655E
:10124000736574002045787465726E616C20526518
:1012500073657400506F77657255700073746172B6
:1012600074002200656E717565696E672022004505
:1012700072726F723A0054656D7065726174757246
:1012800065206865617465642062656420737769B0
:101290007463686564206F66662E204D415854451E
:1012A0004D50207472696767657265642021210062
:1012B0003A20457874727564657220737769746337
:1012C000686564206F66662E204D494E54454D502A
:1012D000207472696767657265642021003A204551
:1012E0007874727564657220737769746368656475
:1012F000206F66662E204D415854454D5020747223
:1013000069676765726564202100C001FA00F00119
:10131000F5003002F0007002EB00A002E600C0020F
:10132000E1001003DC005003D700E003D20090047A
:10133000CD008004C800E005BE006006B90040078B
:10134000AA00F008A000700B9600F00D8C00E010D1
:101350008200E0137800F0176E00D0196900701B4E
:101360006400401E5F0010205A00F02550008029C4
:101370004600D0303C00A032370010353200203912
:101380002D0020392800703A2300A03B1E00A03C0D
:101390001900203D1600003F0300202D20496E76E5
:1013A000616C6964206578747275646572206E750D
:1013B0006D626572202100202D20496E76616C6976
:1013C00064206578747275646572206E756D6265EF
:1013D00072210020403A006F6B20543A005049447B
:1013E000204175746F74756E65206661696C656403
:1013F00020212C2054656D706572617475726520B2
:10140000746F206869676800204B643A2000204BA5
:10141000693A2000204B703A2000204E6F206F76F2
:10142000657273686F6F742000204B643A2000204F
:101430004B693A2000204B703A200020536F6D65B5
:10144000206F76657273686F6F742000204B643A6A
:101450002000204B693A2000204B703A20002043A6
:101460006C617369632050494420002054753A2010
:1014700000204B753A2000206D61783A2000206DE5
:10148000696E3A200020643A200020626961733A54
:10149000200070012C0190012701B0012201C00140
:1014A0001D01F00118011002130130020E0160024B
:1014B000090190020401C002FF000003FA0040038A
:1014C000F5008003F000D003EB002004E600700478
:1014D000E100E004DC004005D700C005D200400672
:1014E000CD00D006C8008007C3003008BE00F00859
:1014F000B900C009B400B00AAF00B00BAA00D00C0C
:10150000A500000EA000500F9B00C01096005012C6
:10151000910000148C00C0158700B0178200B0192C
:101520007D00D01B7800001E730040206E009022CA
:101530006900F024640040275F0090295A00E02BE6
:101540005500102E500020304B0010324600E03382
:10155000410090353C001037370070383200A03918
:101560002D00B03A2800A03B2300603C1E00103D37
:101570001900903D1400103E0F00703E0A00C03E5E
:101580000500003F0000012902290429082910292B
:10159000202940298029012C022C0126022604261C
:1015A00008261026202640268026402C802C012349
:1015B0000223042308231023202340238023012017
:1015C0000220042008201020202040208020102C01
:1015D000202C012F022F042F082F102F202F402FF7
:1015E000802F7EFE7EFD7EFB7EF77EEF7EDF7EBF60
:1015F0007E7F00010000261612000200003816430C
:10160000000300007B1604010309047F161802037F
:10161000090499161603030904B1160C0001C1024E
:101620000180360181361201000202000020C0163E
:10163000830400010102030109024300020100C00A
:101640003209040000010202010005240010010516
:101650002401000104240206052406000107058276
:101660000308004009040100020A00000007050306
:10167000024000000705840240000004030904182A
:10168000035400650065006E007300790064007506
:101690000069006E006F0000001603550053004201
:1016A000002000530065007200690061006C0000BA
:1016B000000C0331003200330034003500000049D3
:1016C0004E46494E4954594E414ECDCCCC3D0AD799
:1016D000233C17B7D13877CC2B329595E6241FB130
:1016E0004F0A000020410000C84200401C4620BCB8
:1016F000BE4CCA1B0E5AAEC59D749587CE9C98876A
:1017000011241FBECFEFD0E2DEBFCDBF13E0A0E0BB
:10171000B1E0E8EDF7E501E00BBF02C007900D92E4
:10172000A63DB107D9F71EE0A6EDB3E001C01D92BA
:10173000AE3EB107E1F716E1CEEFD6E100E006C01C
:1017400022970109FE010BBF0E94AAA5CA3FD1073B
:1017500080E00807A9F70E94029B0C94DBAB0C9475
:1017600000008091DC05882399F14091D6035091C7
:10177000D7036091D8037091D9038091DA059091D5
:10178000DB052AED33E00E94FC89882319F14091A2
:10179000DD055091DE056091DF057091E005411592
:1017A00051056105710591F08091DA059091DB0595
:1017B0002AED33E00E94FC89882371F01092DD0548
:1017C0001092DE051092DF051092E0051092DC0504
:1017D00081E0089580E0089580E00895DF92EF921F
:1017E000FF920F931F937B018C01D42E8091D6031F
:1017F0009091D703A091D803B091D9038E159F057E
:10180000A007B107B9F0ADDF8823D1F08091DA05E8
:101810009091DB05B801A7012AED33E00E94E5882D
:10182000882371F0E092D603F092D7030093D80397
:101830001093D903DD2031F081E08093DC0503C0F3
:1018400080E001C081E01F910F91FF90EF90DF9049
:101850000895CF92DF92EF92FF920F931F93CF9351
:10186000DF93EC017A018B01690189859A85AB854B
:10187000BC850196A11DB11D84179507A607B70762
:1018800008F45DC08F89803129F49927872F762F3E
:10189000652F0CC0803209F052C0CB01BA0127E09D
:1018A00096958795779567952A95D1F72B893C89E9
:1018B0004D895E89620F731F841F951F2091D60387
:1018C0003091D7034091D8035091D9036217730721
:1018D0008407950721F040E081DF882381F18F891B
:1018E000803191F48FEF90E0A0E0B0E0E822F9229F
:1018F0000A231B23F701EE0FFF1FE652FC4F8081E6
:101900009181A0E0B0E014C08FE790E0A0E0B0E0EB
:10191000E822F9220A231B23F701EE0FFF1FEE0F27
:10192000FF1FE652FC4F80819181A281B381BF707D
:10193000F60180839183A283B38381E001C080E0BC
:10194000DF91CF911F910F91FF90EF90DF90CF909B
:1019500008954F925F926F927F928F929F92AF9273
:10196000BF92CF92DF92EF92FF920F931F93DF937C
:10197000CF9300D000D0CDB7DEB76C0149835A8336
:101980006B837C832901EE24FF2487015E01089488
:10199000A11CB11C612C42E0742E812C912C498138
:1019A0005A816B817C81C601950153DF882371F1D7
:1019B000D401C301F601058404C0880F991FAA1F32
:1019C000BB1F0A94D2F7E80EF91E0A1F1B1F89815C
:1019D0009A81AB81BC812789203149F4883FFFEF90
:1019E0009F07F0E0AF07F0E0BF0748F4D8CF883F8B
:1019F0002FEF92072FEFA2072FE0B20780F2F2013C
:101A0000E082F1820283138381E001C080E00F90C5
:101A10000F900F900F90CF91DF911F910F91FF903A
:101A2000EF90DF90CF90BF90AF909F908F907F907E
:101A30006F905F904F9008956F927F928F929F92D8
:101A4000AF92BF92CF92DF92EF92FF920F931F93CC
:101A5000CF93DF93EC015A016B0138014901423009
:101A600051056105710508F469C089859A85AB85C2
:101A7000BC850196A11DB11D84179507A607B70760
:101A800008F45CC08F89803129F4E52EF62E072FEB
:101A900011270CC0803209F051C07A018B0177E028
:101AA00016950795F794E7947A95D1F78B899C89D9
:101AB000AD89BE89E80EF91E0A1F1B1FC801B701B8
:101AC00041E08CDE8823D1F18F89803181F48FEF62
:101AD00090E0A0E0B0E0A822B922CA22DB22F50102
:101AE000EE0FFF1FE652FC4F7182608213C08FE73A
:101AF00090E0A0E0B0E0A822B922CA22DB22F501E2
:101B0000EE0FFF1FEE0FFF1FE652FC4F6082718247
:101B1000828293828A89823098F08D819E81AF8102
:101B2000B8858E0D9F1DA01FB11F8093DD0590937A
:101B3000DE05A093DF05B093E00502C080E001C0A0
:101B400081E0DF91CF911F910F91FF90EF90DF9097
:101B5000CF90BF90AF909F908F907F906F9008959F
:101B60000F931F930FEF1FEF2FEF3FE065DF1F91E4
:101B70000F9108952F923F924F925F926F927F92B2
:101B80008F929F92AF92BF92CF92DF92EF92FF928D
:101B90000F931F93DF93CF93CDB7DEB72F970FB679
:101BA000F894DEBF0FBECDBF1C014C875D876E87EA
:101BB0007F873B872A87DC011996CD90DD90ED90D9
:101BC000FC901C970894C11CD11CE11CF11CF9016C
:101BD000408051806280738041145104610471041B
:101BE00031F00894411C511C611C711C10C0DC01B7
:101BF0004D905D906D907C90B1E0BD832C853D85CE
:101C00004E855F85213031054105510509F01D8262
:101C1000530142011E821F82188619868E010F5FB2
:101C20001F4FF10181859285A385B4852E813F8167
:101C300048855985281739074A075B0708F08BC084
:101C4000C814D904EA04FB0450F4A2E08A2E912CB3
:101C5000A12CB12CF2E04F2E512C612C712CC10122
:101C6000B501A4019801F5DD882309F474C0298128
:101C70003A814B815C81D501C4010196A11DB11D42
:101C8000211531054105510519F02C013D010DC00B
:101C900084199509A609B7092C853D854E855F8570
:101CA00082179307A407B50789F08E819F81A885C5
:101CB000B9850196A11DB11D8E839F83A887B98721
:101CC0000894811C911CA11CB11CABCFC101A401C3
:101CD000B50146DF882389F43EC068017901089484
:101CE000C108D108E108F108C101B701A601A4DECD
:101CF000882389F19701860102C09501840140166D
:101D000051066206730648F3AA85BB854D915D9125
:101D10006D917C911397411551056105710531F065
:101D2000C1019301820188DE8823A9F0EA85FB8541
:101D30004082518262827382FD81FF2371F0089498
:101D4000411C511C611C711CD1014D925D926D9220
:101D50007C92139702C080E001C081E02F960FB6FD
:101D6000F894DEBF0FBECDBFCF91DF911F910F91D1
:101D7000FF90EF90DF90CF90BF90AF909F908F90AB
:101D80007F906F905F904F903F902F900895AF920B
:101D9000BF92CF92DF92EF92FF920F931F93DF9348
:101DA000CF9300D000D0CDB7DEB76C017A018B01A4
:101DB00082E090E0A0E0B0E0F60180839183A2830E
:101DC000B3835E010894A11CB11CC601B801A70130
:101DD00095013FDD882331F1C601B801A70100E07C
:101DE00010E0980129DE8823E9F0E980FA800B8170
:101DF0001C81F6018789803151F4F8EFEF16FFEF6F
:101E0000FF06F0E00F07F0E01F0750F4DECF88EF89
:101E1000E8168FEFF8068FEF08078FE01807A8F293
:101E200081E001C080E00F900F900F900F90CF9154
:101E3000DF911F910F91FF90EF90DF90CF90BF90B7
:101E4000AF9008956F927F929F92AF92BF92CF9280
:101E5000DF92EF92FF920F931F93CF93DF93EC01EA
:101E6000142F7093DB056093DA051F8A82E090E0FF
:101E7000A0E0B0E088839983AA83BB831092DC053D
:101E80001092DD051092DE051092DF051092E0053C
:101E90008FEF9FEFDC018093D6039093D703A0933D
:101EA000D803B093D9034423C1F1453008F00BC1E6
:101EB00060E070E0CB0140E091DC882309F403C1CD
:101EC000212F30E054E0220F331F5A95E1F72653BB
:101ED0003C4FF901E254FE4F808190E08F77907083
:101EE000009709F0F0C0F901E653FE4F808191811F
:101EF000A281B38184369105A105B10508F4E3C040
:101F00002A533E4FF901A080B180C280D380A11432
:101F1000B104C104D10421F4D6C0AA24BB246501B4
:101F2000C601B50140E05ADC882309F4CCC0809199
:101F3000E5039091E603F2E080309F0709F0C3C00B
:101F40003091EA03332309F4BEC08091E8039091F5
:101F5000E903009709F4B7C02091E703222309F4AD
:101F6000B2C03A8B2C831D8630E081E090E007C040
:101F7000492D4F5F4D87492D483008F0A4C09D84FE
:101F8000AC01092C02C0440F551F0A94E2F7241734
:101F9000350771F76091F0037091F10361157105D8
:101FA00019F080E090E008C06091FE037091FF039B
:101FB00080910004909101046D837E838F839887C4
:101FC000E090E803F090E90300E010E0EA0CFB1C6D
:101FD0000C1D1D1DEB8AFC8A0D8B1E8B6090EB0384
:101FE0007090EC03798E688E2091EA0330E040E037
:101FF00050E00E9427A56E0D7F1D801F911F6A8FE4
:102000007B8F8C8F9D8F930145E0220F331F4A9564
:10201000E1F721503E4F232F3327269540E050E033
:10202000260F371F481F591F2E873F87488B598B14
:102030008091ED039091EE03009719F0A0E0B0E0DD
:1020400008C08091FA039091FB03A091FC03B0912A
:10205000FD03A21AB30AC40AD50AA80EB91ECA1EE5
:10206000DB1E04C0D694C794B794A7949A94D2F771
:10207000A986BA86CB86DC8685EFA8168FE0B806DF
:1020800080E0C80680E0D80618F48CE08F8B1BC077
:10209000E5EFAE16EFEFBE06E0E0CE06E0E0DE06CE
:1020A00010F480E10DC08091060490910704A09186
:1020B0000804B09109048A8F9B8FAC8FBD8F80E29A
:1020C0008F8B81E001C080E0DF91CF911F910F9154
:1020D000FF90EF90DF90CF90BF90AF909F907F9058
:1020E0006F900895BC01E091DF0EF091E00E028048
:1020F000F381E02D8FED9EE009950895DF93CF9356
:102100000F92CDB7DEB789838FED9EE0BE016F5F82
:102110007F4F41E050E00E94869B0F90CF91DF916E
:1021200008950F932AE000E00E94329D0F910895D8
:102130000F931F93CF93DF93EC018B0141E082DE7D
:10214000882329F4CE01B80140E07CDE01C081E0A3
:10215000DF91CF911F910F910895FC0123812223DC
:1021600011F00C945D3B089540E050E0BA010C94EE
:10217000683A25EA33E0FC0121933193CF01EDCF9A
:10218000FC01138A168A85EA93E0928B818B12AA4E
:1021900015AA91AB80ABDF01A15BBF4F1C92DF01A1
:1021A000AE5ABF4F1C92DF01A35BBF4F8D939C9330
:1021B000DF01A459BF4F1C92DF01A159BF4F1C92F0
:1021C000DF01A659BF4F8D939C93DF01A857BF4FE6
:1021D00029E12C93DF01A557BF4F1C92DF01AD55BC
:1021E000BF4F1C92DF01A455BF4F1C92DF01A155C8
:1021F000BF4F1C92DF01A655BF4F8D939C93DF010B
:10220000A953BF4F1D921D921D921C921397DF017F
:10221000A153BF4F1D921D921D921C9213971182C4
:1022200012821082DF01AD52BF4F81E08C93108A81
:1022300017860FB6F8942091DA0E3091DB0E40919C
:10224000DC0E5091DD0E0FBEE553FF4F28573C4E7C
:102250004F4F5F4F20833183428353830895A62FCE
:10226000B72FE82FF92F20E03EE24C91403229F0C1
:10227000283009F431934C9141932F5F11962B3004
:10228000A1F7108208952F923F924F925F926F9222
:102290007F928F929F92AF92BF92CF92DF92EF92F6
:1022A000FF920F931F93DF93CF93CDB7DEB7CB5839
:1022B000D0400FB6F894DEBF0FBECDBF7C011B012E
:1022C0004A01CE57DF4F1882C258D04082E090E0DA
:1022D000880E991E8E010E591F4FF7013396C9576C
:1022E000DF4FF983E883C758D040C7018C529F4F16
:1022F000CD57DF4F99838883C358D040F701EA5206
:10230000FF4FCB57DF4FF983E883C558D0405E01BC
:102310000894A11CB11C3EE0C32ED12CCC0EDD1EB6
:1023200025E4422E512C4C0E5D1EC2010296C75769
:10233000DF4F99838883C958D040E3EEF0E0949151
:10234000C557DF4F9883CB58D0403701EEC0F80116
:10235000438550E0CA01887190708031910509F081
:10236000ECC0CD57DF4FE881F981C358D0402081C0
:1023700031812130310509F4E0C02230310509F402
:10238000DCC0C501B8016BDF1E86F10180818823A6
:1023900029F4C60160E071E00E949CA8C601B10169
:1023A0000E949CA8C601B5010E949CA8C60160E0DD
:1023B00071E00E949CA81AA61DA685EA93E099A741
:1023C00088A7CE018A96B401A50121E00E948A3D2A
:1023D000882329F5CD57DF4FE881F981C358D040D4
:1023E000808191810097D9F4C557DF4F8881CB5800
:1023F000D04093EEE92E90E0F92E06C07FDE0894DF
:10240000E11CF11CF70184918823C1F782E091E07F
:1024100069DE8AE073DEC50165DE8AE06FDEC757DC
:10242000DF4FA881B981C958D040FE01BA968BE12F
:1024300001900D928150E1F785EA93E0F2019183DA
:102440008083C301B601A2011EDFC20192DECE016C
:1024500088968FDE6AC0253E09F467C02E3209F4E3
:1024600064C02F3509F461C043FD5FC021E08031B5
:10247000910509F020E0F3012687222349F4F801B1
:102480008085873409F051C081858E3709F44DC0AD
:10249000C957DF4F88819981C758D040B801DFDE26
:1024A000CD57DF4FE881F981C358D04080819181B9
:1024B000009761F4C10116DEC957DF4F8881998109
:1024C000C758D0400FDE8AE019DE2FC08130910559
:1024D00061F4CB57DF4FE881F981C558D040808146
:1024E000918101969183808320C082309105E9F427
:1024F000CE57DF4FF881C258D0402F2F30E0CB5756
:10250000DF4FE881F981C558D0408081918128173B
:102510003907C1F0CE57DF4FF881C258D040FF5F76
:10252000CE57DF4FF883C258D040C401B8010E9493
:10253000F83918160CF40BCF05C0F80120812223BE
:1025400009F089CFC557DF4F0FB6F894DEBF0FBE35
:10255000CDBFCF91DF911F910F91FF90EF90DF9052
:10256000CF90BF90AF909F908F907F906F905F9033
:102570004F903F902F900895EF92FF920F931F93EB
:10258000DF93CF93CDB7DEB76D970FB6F894DEBF6C
:102590000FBECDBF8C01FC01EC52FF4F11821082A7
:1025A00043E1E42EF12CE80EF91EC701DDDDDE016A
:1025B0001396F7018BE101900D928150E1F785EAC6
:1025C00093E09A838983C80165E171E08E010F5F12
:1025D0001F4FA80158DEC801CCDD6D960FB6F894E8
:1025E000DEBF0FBECDBFCF91DF911F910F91FF9046
:1025F000EF900895EF92FF920F931F93CF93DF9385
:102600008C01FC0112828689882321F0C80143963F
:102610000E945D3B57E8E52EF12CE00EF11EC7014C
:1026200060E04AE10E9416898823B9F4E3EEF0E005
:102630008491EF0104C062DD2196FE01849188231C
:10264000D1F7E9E4F2E08491EF0104C057DD21966F
:10265000FE0184918823D1F756C0E801C457DF4FAB
:10266000CE01B70165DD8823B9F4EEEFF0E0849187
:10267000EF0104C043DD2196FE0184918823D1F748
:10268000E6E3F2E08491EF0104C038DD2196FE011B
:1026900084918823D1F737C0C8014396BE010E94B8
:1026A0005B388823B9F4EEEFF0E08491EF0104C0C9
:1026B00025DD2196FE0184918823D1F7E6E2F2E040
:1026C0008491EF0104C01ADD2196FE0184918823D4
:1026D000D1F719C081E0F8018283E3EEF0E0849144
:1026E000EF0104C00BDD2196FE0184918823D1F710
:1026F000EBE1F2E08491EF0104C000DD2196FE01E0
:1027000084918823D1F78AE0F9DCC8014196F80169
:1027100097A786A7B80164577F4FC801C2960E9449
:102720005B38882369F4E7E0F2E08491EF0104C0AC
:10273000E5DC2196FE0184918823D1F78AE0DEDC76
:10274000DF91CF911F910F91FF90EF900895CF935C
:10275000DF939C012F5E3F4FFC0137A726A7BC01EA
:1027600064577F4FC2960E945B38882369F4E3EF79
:10277000F1E08491EF0104C0C1DC2196FE01849157
:102780008823D1F78AE0BADCDF91CF910895FC016C
:10279000118212820895FC018281882311F081E068
:1027A00081830895FC0181818111118208952F9206
:1027B0003F924F925F926F927F928F929F92AF92D1
:1027C000BF92CF92DF92EF92FF920F931F93DF930E
:1027D000CF93CDB7DEB7AB970FB6F894DEBF0FBE81
:1027E000CDBF7C015B014BA7FC018281882309F4EA
:1027F0005AC17CEA472E512C4E0C5F1CC2010E942C
:102800005D3BF7011182188A1B8A85EA93E09F8756
:102810008E87C701419697A786A7F50180818F32E1
:1028200009F06BC0C5016FE270E00E94A7A86C01BF
:102830000894C11CD11C4E010894811C911C6EE0AF
:10284000262E312C2C0E3D1E53C0C6016FE270E0C7
:102850000E94A7A83C01009709F457C0C816D906E2
:1028600008F053C08C010C191D09C401B601A80160
:102870000E94C7A8F401E00FF11F1082C40132DCEE
:102880008AE03CDCF70166A577A56115710519F0B2
:102890006E5F7F4F02C060E070E0CE014096A40101
:1028A00021E00E948A3D8823E1F4EFEDF1E084917C
:1028B0008F0105C023DC0F5F1F4FF801849188232F
:1028C000C9F7CE0101960EDCEDEDF1E084918F01A8
:1028D00005C014DC0F5F1F4FF80184918823C9F7EE
:1028E000C4C0F70137A626A663010894C11CD11CF9
:1028F000C114D10409F0A9CF05C0C701C096F701E2
:1029000097A786A70A2DCB2C02C00C2DCD2CF70142
:1029100066A577A5FBA5FF2309F47BC061157105AA
:1029200019F06E5F7F4F02C060E070E0C201402F7F
:102930005C2D21E00E948A3D882309F44DC0F701F7
:10294000E953FF4FD701A354BF4F8D919D910D9037
:10295000BC91A02D80839183A283B383E0EDF1E04D
:1029600084915F0106C0CADB0894A11CB11CF5016B
:1029700084918823C1F7802F9C2DB4DBE9ECF1E032
:1029800084915F0106C0BADB0894A11CB11CF5015B
:1029900084918823C1F7F701E953FF4F40815181AA
:1029A000628173818FED9EE0BCDB8AE0A7DBF701DB
:1029B000E153FF4F1082118212821382EBEBF1E0A0
:1029C00084917F0106C09ADB0894E11CF11CF70199
:1029D00084918823C1F75EC0E7EAF1E084917F012A
:1029E00006C08CDB0894E11CF11CF701849188235C
:1029F000C1F7802F9C2D76DBE5EAF1E084918F0111
:102A000005C07CDB0F5F1F4FF80184918823C9F755
:102A10002CC06115710519F06E5F7F4F02C060E038
:102A200070E0C201402F5C2D26E50E948A3D88237C
:102A3000F9F4E1E9F1E084917F0106C05FDB0894DD
:102A4000E11CF11CF70184918823C1F7802F9C2D94
:102A500049DBEFE8F1E084918F0105C04FDB0F5FA8
:102A60001F4FF80184918823C9F78AE047DB18C01B
:102A700081E0F7018083EDE7F1E084917F0106C0FA
:102A80003DDB0894E11CF11CF70184918823C1F718
:102A9000C50128DB8AE032DB802F9C2D0E945B473A
:102AA000CE010E9666DBAB960FB6F894DEBF0FBE76
:102AB000CDBFCF91DF911F910F91FF90EF90DF90ED
:102AC000CF90BF90AF909F908F907F906F905F90CE
:102AD0004F903F902F9008952F923F924F925F9288
:102AE0006F927F928F929F92AF92BF92CF92DF921E
:102AF000EF92FF920F931F93DF93CF93CDB7DEB783
:102B0000AA970FB6F894DEBF0FBECDBF7C013B0184
:102B1000FC018281882309F4D5C0C70184559F4FE9
:102B20000E945D3BF7011182188A1B8A85EA93E0B7
:102B30009F878E87C701419697A786A7F30180815B
:102B40008F3209F06FC0C3016FE270E00E94A7A846
:102B50006C010894C11CD11C5E010894A11CB11C1D
:102B6000FEE04F2E512C4C0E5D1EE0E12E2E312C3E
:102B70002C0E3D1E52C0C6016FE270E00E94A7A855
:102B80004C01009709F456C0C816D90608F052C087
:102B90008C010C191D09C501B601A8010E94C7A826
:102BA000F501E00FF11F1082C5019CDA8AE0A6DA78
:102BB000F70166A577A56115710519F06E5F7F4F66
:102BC00002C060E070E0C101A50121E00E948A3DE1
:102BD0008823E1F4E9E6F1E084918F0105C08EDA03
:102BE0000F5F1F4FF80184918823C9F7CE0101962A
:102BF00079DAE7E6F1E084918F0105C07FDA0F5FB3
:102C00001F4FF80184918823C9F757C0F70157A6D1
:102C100046A664010894C11CD11CC114D10409F05A
:102C2000AACF05C0C701C096F70197A786A7A62C13
:102C3000C72C02C0AC2CCD2CF70186A597A5009718
:102C400011F0029602C080E090E06A2D7C2D0E9477
:102C50004E3E8823B9F0E9E5F1E084918F0105C08B
:102C60004DDA0F5F1F4FF80184918823C9F78A2D31
:102C70009C2D38DAF701E153FF4F10821182128246
:102C800013821DC0E1E4F1E084918F0105C036DAC2
:102C90000F5F1F4FF80184918823C9F78A2D9C2D5F
:102CA00021DAEFE3F1E084918F0105C027DA0F5FAD
:102CB0001F4FF80184918823C9F78AE01FDACE01FB
:102CC0000E9657DAAA960FB6F894DEBF0FBECDBFA8
:102CD000CF91DF911F910F91FF90EF90DF90CF90F8
:102CE000BF90AF909F908F907F906F905F904F902C
:102CF0003F902F9008950F931F93CF93DF93EC0194
:102D00008A81882361F1EDE2F1E084918F0105C0B1
:102D1000F5D90F5F1F4FF80184918823C9F7FE0191
:102D2000E153FF4F40815181628173818FED9EE0BD
:102D3000F8D9EBE2F1E084918F0105C0DFD90F5F94
:102D40001F4FF80184918823C9F7C953DF4F488189
:102D500059816A817B818FED9EE0E3D90BC0EBE165
:102D6000F1E08491EF0104C0C9D92196FE0184915C
:102D70008823D1F78AE0C2D9DF91CF911F910F91BB
:102D80000895CF92DF92EF92FF920F931F93CF930C
:102D9000DF936C018B01EB0109900020E9F721978B
:102DA000C61BD70BFC01E455FF4F1082CB016EE42C
:102DB00070E00E94A7A87C01009721F42197C00F22
:102DC000D11F0EC060E270E00E94A7A88C010F5FC7
:102DD0001F4FC7016AE270E00E94A7A8EC0121978B
:102DE0008DE089838AE08A831B82C60186559F4FC6
:102DF000B8010E949B87F601E455FF4F808188232C
:102E0000C1F0EEEFF0E08491EF0104C077D9219694
:102E1000FE0184918823D1F7E5E0F1E08491EF0190
:102E200004C06CD92196FE0184918823D1F78AE0F1
:102E300065D9DF91CF911F910F91FF90EF90DF90B7
:102E4000CF9008953F924F925F926F927F928F92B0
:102E50009F92AF92BF92CF92DF92EF92FF920F9329
:102E60001F93DF93CF93CDB7DEB7CC55D0400FB6CD
:102E7000F894DEBF0FBECDBF8C016623F9F4FC01D0
:102E8000ED52FF4F8081882309F4E5C00FB6F89416
:102E90008091DA0E9091DB0EA091DC0EB091DD0EE8
:102EA0000FBEF801E553FF4F2081318142815381EC
:102EB000281739074A075B0708F4CDC0F801ED521F
:102EC000FF4F1082D80112968C911297882339F403
:102ED000C80190DBF8018281882309F4BCC000D0CE
:102EE00000D000D0EDB7FEB731967E010894E11C0A
:102EF000F11CADB7BEB71296FC92EE92119786E127
:102F000091E093838283D8011F968D919C91509775
:102F1000958384830E94F0A8EDB7FEB736960FB66E
:102F2000F894FEBF0FBEEDBFCC24DD2457010AC0CC
:102F3000D7018C91992787FD90950E9466A8F7018B
:102F400081937F01C601F50101900020E9F73197D7
:102F5000EA19FB090894C11CD11C8E179F0744F382
:102F600083E1682E712C600E711EC301FDD83324DD
:102F7000BDE3AB2EB12CAC0EBD1E4E010894811CDE
:102F8000911CAFE14A2E512C4C0E5D1E48C0D7015A
:102F90008C9190E00E9466A8F70181937F01C601A1
:102FA000F50101900020E9F73197EA19FB0908942F
:102FB000C11CD11C8E179F0754F327968FAD2797FE
:102FC0008E3769F1C501B40145E050E00E94B9A80F
:102FD000009729F500D000D000D0EDB7FEB73196AC
:102FE000ADB7BEB712965C924E9211978FE191E009
:102FF00093838283958284820E94F0A8ADB7BEB786
:1030000016960FB6F894BEBF0FBEADBFC2010E94A8
:10301000C64386E291E00E94C64333243394C30141
:10302000B5010E94F839181624F47501CC24DD246A
:10303000B6CF332031F48FEF9FEFF801908B878765
:103040000AC0D8011F968D919C9150970196509679
:103050009C938E931F97C45ADF4F0FB6F894DEBF30
:103060000FBECDBFCF91DF911F910F91FF90EF90D9
:10307000DF90CF90BF90AF909F908F907F906F9098
:103080005F904F903F9008950F931F93CF93DF93DE
:10309000EC018C0104551F4FC8010E94133BC8016D
:1030A0000E945D3B1882DF91CF911F910F9108958F
:1030B0000F931F93DF93CF93CDB7DEB76D970FB606
:1030C000F894DEBF0FBECDBF8C01C096D8019F968D
:1030D0009C938E939E97F801EC52FF4F82E090E014
:1030E00091838083F801EA52FF4F60831182C80107
:1030F000C2963AD8D8019E96ED91FC919F97DE0139
:10310000139632968BE101900D928150E1F785EA9A
:1031100093E09A838983C80165E171E08E010F5FB6
:103120001F4FA801B0D8C80124D86D960FB6F894E7
:10313000DEBF0FBECDBFCF91DF911F910F910895DC
:10314000EF92FF920F931F93DF93CF93CDB7DEB72C
:103150006D970FB6F894DEBF0FBECDBF7C01C09651
:10316000D7019F969C938E939E97F701EC52FF4F49
:1031700081E090E091838083F701EA52FF4F118252
:103180001082C701C2960E94B410D7019E96ED919D
:10319000FC919F97DE01139632968BE101900D9280
:1031A0008150E1F785EA93E09A838983C70165E15D
:1031B00071E08E010F5F1F4FA80165D8C8010E9402
:1031C000B910F701EA52FF4F808191816D960FB6D9
:1031D000F894DEBF0FBECDBFCF91DF911F910F914D
:1031E000FF90EF900895CF92DF92EF92FF920F93AE
:1031F0001F93DF93CF93CDB7DEB76D970FB6F894DB
:10320000DEBF0FBECDBF8C016B011B821E8285EA23
:1032100093E09A838983F80185A9882321F421E129
:10322000E22EF12C03C090E3E92EF12CE00EF11E0A
:10323000B7016E5F7F4FCE010396A60121E00E9489
:103240008A3D882309F5E3EEF0E084918F0106C002
:103250000E947E100F5F1F4FF80184918823C1F7F1
:10326000E9EEF0E084918F0106C00E947E100F5FAE
:103270001F4FF80184918823C1F7C6010E94721084
:103280008AE00E947E101EC0D801A459BF4FF801E9
:10329000E15BFF4F8BE101900D928150E1F7D80186
:1032A000A15BBF4FF70132968BE101900D928150E7
:1032B000E1F7D801D296FE0133968BE101900D9291
:1032C0008150E1F7CE0101960E94B9106D960FB6BC
:1032D000F894DEBF0FBECDBFCF91DF911F910F914C
:1032E000FF90EF90DF90CF900895FC0125A9225028
:1032F0002230A0F0DC01D296E15BFF4F2BE1019080
:103300000D922150E1F7DC01A15BBF4FFC01E459B4
:10331000FF4F8BE101900D928150E1F70895CF931B
:10332000DF93EC010E946C360E94E43619828AE237
:1033300091E00E94C643DF91CF9108952F923F9272
:103340004F925F926F927F928F929F92AF92BF92B5
:10335000CF92DF92EF92FF920F931F93DF93CF9361
:10336000CDB7DEB7C055D0400FB6F894DEBF0FBE64
:10337000CDBF4C017A8F698F3A012AA70EABEFAA15
:10338000A8AEB9AECAAEDBAE022F10E0000F111F1F
:10339000000F111F9301200F311F39AB28ABD9014A
:1033A0002D903D904D905C90FC01E00FF11FC2010B
:1033B000B10120813181428153810E94B3A06CAF61
:1033C0007DAF8EAF9FAFBEA9EB2EFF24EE0CFF1C8E
:1033D000EE0CFF1CF301EE0DFF1DFBABEAABA08072
:1033E000B180C280D380F401EE0DFF1DC601B5018E
:1033F00020813181428153810E94B3A021966FAF19
:10340000219722967FAF229723968FAF23972496FA
:103410009FAF2497FFA98F2F90E0880F991F880FE7
:10342000991FF401E80FF91F2081318142815381F6
:103430002B8F3C8F4D8F5E8F498D5A8D840F951F3A
:10344000DC016D917D918D919C912B8D3C8D4D8DED
:103450005E8D0E94B2A0262F372F482F592F2F8F15
:1034600038A349A35AA3E98DFA8D3C962996FFAF5C
:10347000EEAF2997A98DBA8D1C962D913D914D9156
:103480005C911F972CA73DA74EA75FA7D4011C9660
:103490002D913D914D915C911F972BA33CA34DA382
:1034A0005EA3A20191015058298B3A8B4B8B5C8B08
:1034B0001501260157FA509457F85094E98DFA8D6A
:1034C000E00FF11F6081718182819381BCADADAD50
:1034D000FEADEFAD2B2F3A2F4F2F5E2F0E94B2A0E3
:1034E000B62EA72E882E692EE98DFA8DEE0DFF1DC2
:1034F00060817181828193812196BFAD219722964F
:10350000AFAD22972396FFAD23972496EFAD249776
:103510002B2F3A2F4F2F5E2F0E94B2A0F62E072F8F
:10352000182FE92E69897A898B899C892F2D302F54
:10353000412F5E2D0E9461A46D8B7E8B8F8B988FA7
:10354000C201B101D5012B2F3A2F482D562D0E94D3
:1035500061A49B01AC016D897E898F89988D0E9441
:10356000B2A06D8B7E8B8F8B988F69897A898B89BE
:103570009C89D5012B2F3A2F482D562D0E9461A4EE
:103580005B016C01C201B1012F2D302F412F5E2D47
:103590000E9461A49B01AC01C601B5010E94B3A0C9
:1035A0009B01AC016D897E898F89988D0E9426A12F
:1035B000162FE72E082FF92E20E030E0A9010E94F7
:1035C0008CA187FF0EC0612F7E2D802F9F2D2BEDAC
:1035D0003FE049EC50E40E94B3A0162FE72E082FDD
:1035E000F92EAA968FADAA97882371F0612F7E2DB0
:1035F000802F9F2D2BED3FE049EC50E40E94B2A0BC
:10360000162FE72E082FF92E612F7E2D802F9F2D4C
:10361000A9962CAD3DAD4EAD5FADA9970E9461A4BA
:103620002F8D38A149A15AA15F770E949CA35B010D
:103630006C012FE632E143E85AE30E948CA187FD3A
:103640009AC2C601B5010E9469A20E9400A27DAB88
:103650006CAB80E090E00E942CA25B016C01612FBA
:103660007E2D802F9F2DA60195010E9493A16D8B29
:103670007FA388A799A76F8D78A189A19AA1A60198
:1036800095010E9493A12A966FAF2A972B967FAF40
:103690002B972C968FAF2C972D969FAF2D976CA5BF
:1036A0007DA58EA59FA52BA13CA14DA15EA10E9449
:1036B000B2A0A60195010E9493A12E966FAF2E97FE
:1036C0002F967FAF2F9760968FAF609761969FAFD1
:1036D00061975D894FA138A529A5652F742F832F88
:1036E000922F20E030E040E05FE30E9461A4BD89BA
:1036F000AFA1F8A5E9A52B2F3A2F4F2F5E2F0E94DF
:1037000061A49B01AC0160E070E080E89FE30E944F
:10371000B2A06CA725967FAF259726968FAF2697E8
:1037200027969FAF27975FA9E52FF0E0EE0FFF1FC9
:10373000EE0FFF1FCE010196E80FF91F2B8D3C8D78
:103740004D8D5E8D20833183428353832BA13CA119
:103750004DA15EA12D873E874F87588BBB2441E04A
:1037600050E05CA34BA3BAA5AB2FB0E0AA0FBB1FE0
:10377000AA0FBB1F9C012A0F3B1F3C8F2B8F5EA9FA
:10378000452F50E0440F551F440F551F81E090E036
:103790008C0F9D1F840F951F98A38F8FFBA7EAA7FF
:1037A000CAC19B2D99310CF068C069897A898B89CF
:1037B0009C89BD89AFA1F8A5E9A52B2F3A2F4F2FE2
:1037C0005E2F0E9461A47B018C01C201B101BCA5E6
:1037D0002596AFAD25972696FFAD26972796EFAD98
:1037E00027972B2F3A2F4F2F5E2F0E9461A49B010A
:1037F000AC01C801B7010E94B3A0D62EA72E882E17
:10380000692E69897A898B899C89BCA52596AFAD7B
:1038100025972696FFAD26972796EFAD27972B2F56
:103820003A2F4F2F5E2F0E9461A4162F072FF82EDC
:10383000E92EC201B101BD89AFA1F8A5E9A52B2FE1
:103840003A2F4F2F5E2F0E9461A49B01AC01D8013B
:10385000F7016B2F7A2F8F2F9E2F0E94B2A0262F59
:10386000372F482F592F298B3A8B4B8B5C8BB39476
:103870002D2C3A2C482C562C6AC0ABA1BCA1BD0102
:1038800080E090E00E942CA2BD89AFA1F8A5E9A537
:103890002B2F3A2F4F2F5E2F0E9461A47B018C01AA
:1038A0007F2D912F0E9490A11B012C016E2D7F2D49
:1038B000802F912F0E94C4A45B016C01E8A9F9A993
:1038C000E080F1800281138117FB109517F91095A4
:1038D000AAA9BBA96D907D908D909C90C801B7015D
:1038E000A20191010E9461A4698B7A8B8B8B9C8BC6
:1038F000C401B301A60195010E9461A49B01AC0122
:1039000069897A898B899C890E94B3A0262F372FD9
:10391000482F592F298B3A8B4B8B5C8BC801B701F1
:10392000A60195010E9461A47B018C01C401B30131
:10393000A20191010E9461A49B01AC01C801B701E1
:103940000E94B2A0262E372E482E592EBB245CADE5
:103950004DAD3EAD2FAD652F742F832F922F29894A
:103960003A894B895C890E94B3A0EB8DFC8D608302
:1039700071838283938321965FAD219722964FAD09
:10398000229723963FAD239724962FAD2497652F3A
:10399000742F832F922FA20191010E94B3A0AF8DAB
:1039A000B8A16D937D938D939C931397EAA5FBA586
:1039B00060817181828193812A96BFAD2A972B966F
:1039C000AFAD2B972C96FFAD2C972D96EFAD2D9785
:1039D0002B2F3A2F4F2F5E2F0E94B3A0AAA5BBA575
:1039E0006D937D938D939C9313976D857E858F85C5
:1039F00098892E96BFAD2E972F96AFAD2F976096D4
:103A0000FFAD60976196EFAD61972B2F3A2F4F2F47
:103A10005E2F0E94B3A06D877E878F87988B698108
:103A20007A818B819C8120E030E0A9010E948CA1E9
:103A300087FF07C080E090E0DC0189839A83AB8335
:103A4000BC836D817E818F81988520E030E0A90163
:103A50000E948CA187FF07C080E090E0DC018D838D
:103A60009E83AF83B88769857A858B859C8520E0A6
:103A700030E0A9010E948CA187FF07C080E090E0A0
:103A8000DC0189879A87AB87BC8769817A818B81C2
:103A90009C8120E030E04DE453E40E948FA318168F
:103AA00044F480E090E0ADE4B3E489839A83AB838F
:103AB000BC836D817E818F81988520E030E04DE46C
:103AC00053E40E948FA3181644F480E090E0ADE424
:103AD000B3E48D839E83AF83B88769857A858B85B0
:103AE0009C8520E030E048E453E40E948FA3181640
:103AF00044F480E090E0A8E4B3E489879A87AB8738
:103B0000BC87CE010196BE016B5F7F4FAE01475F60
:103B10005F4F9E01235F3F4FE8ACF9AC0AAD1BAD90
:103B2000FAE6CF2ED12CCC0EDD1E16D5EBA1FCA1D2
:103B30003196FCA3EBA32BA13CA14CA95DA92417B2
:103B4000350708F42ECE698D7A8D6C5F7F4F498DD5
:103B50005A8D485F5F4F898D9A8D29962EAD3FAD66
:103B60002997E8ACF9AC0AAD1BADEAE6CE2ED12C14
:103B7000CC0EDD1EF1D4C05BDF4F0FB6F894DEBF74
:103B80000FBECDBFCF91DF911F910F91FF90EF90AE
:103B9000DF90CF90BF90AF909F908F907F906F906D
:103BA0005F904F903F902F900895DF93CF930F92A7
:103BB000CDB7DEB76983DC01ED91FC910480F5811E
:103BC000E02DBE016F5F7F4F41E050E009950F90FF
:103BD000CF91DF9108952F923F924F925F926F9213
:103BE0007F928F929F92AF92BF92CF92DF92EF928D
:103BF000FF920F931F93DF93CF93CDB7DEB76A97F2
:103C00000FB6F894DEBF0FBECDBF9A8F898F3A01F1
:103C10004B0178018901DC01D8966D917D918D91E0
:103C20009C91DB970E942CA25B016C01A401930183
:103C30000E9461A40E9479A10E9400A2262F372F22
:103C4000482F592F2D873E874F87588BC601B501C6
:103C5000A80197010E9461A40E9479A10E9400A27C
:103C60009B01AC01298B3A8B4B8B5C8B8D859E85A0
:103C7000AF85B88988379105A105B10540F488E77B
:103C800090E0A0E0B0E08D879E87AF87B88B2837A3
:103C900031054105510540F428E730E040E050E0AF
:103CA000298B3A8B4B8B5C8BE98DFA8DEC5BFF4F4C
:103CB0006080718082809380A98DBA8DDC966D9131
:103CC0007D918D919C91DF970E942CA26D837E83C4
:103CD0008F839887C401B3010E942EA21B012C017F
:103CE00020E030E0A9010E948CA1882329F1C601BF
:103CF000B501A60195010E9461A47B018C016D8133
:103D00007E818F8198859B01AC010E9461A49B01FB
:103D1000AC01C801B7010E94B2A07B018C01C201B5
:103D2000B101A20191010E94B3A09B01AC01C801A5
:103D3000B7010E9493A104C060E070E080E090E0D1
:103D40000E9479A10E94FBA169837A838B839C8363
:103D5000E980FA800B811C81E98DFA8DE05CFF4FD0
:103D600060817181828193810E942CA269877A8708
:103D70008B879C8766277727CB0166197709880987
:103D800099090E942EA23B014C0120E030E0A901DC
:103D90000E948CA1882349F169857A858B859C8551
:103DA0009B01AC010E9461A46D8B7E8B8F8B988FE1
:103DB000C601B501A60195010E9461A49B01AC0159
:103DC0006D897E898F89988D0E94B2A05B016C01FC
:103DD000C401B301A40193010E94B3A09B01AC01F3
:103DE000C601B5010E9493A104C060E070E080E0CC
:103DF00090E00E9469A2E98DFA8DA088B188C288FE
:103E0000D3883501460129813A814B815C81621A50
:103E1000730A840A950A0E94FBA1A4019301261B40
:103E2000370B480B590BDA01C90157FF68C0C201B3
:103E3000B10120E030E0A9010E948CA1882309F49F
:103E400043C0C201B101A20191010E94B3A07B0154
:103E50008C01C601B5010E942CA29B01AC01C801D6
:103E6000B7010E9461A47B018C016D817E818F81ED
:103E700098859B01AC010E9461A49B01AC01C80123
:103E8000B7010E94B2A07B018C0169857A858B8580
:103E90009C859B01AC010E9461A49B01AC01C801FF
:103EA000B7010E94B3A07B018C01C201B10120E0E7
:103EB00030E040E850E40E9461A49B01AC01C801DD
:103EC000B7010E9493A104C060E070E080E090E040
:103ED0000E9479A10E94FBA1E62EF72E082F192F30
:103EE00017FF03C0EE24FF248701EA14FB040C052E
:103EF0001D0510F08601750180E090E0DC012FB710
:103F0000F894E98DFA8DE45BFF4F3081332311F58E
:103F1000E98DFA8DE48AF58A068B178BE80EF91E77
:103F20000A1F1B1FE08EF18E028F138F8D859E85D9
:103F3000AF85B88984AF95AFA6AFB7AFAF01405C8E
:103F40005F4F89899A89AB89BC89FA018083918303
:103F5000A283B3832FBF6A960FB6F894DEBF0FBE5D
:103F6000CDBFCF91DF911F910F91FF90EF90DF9028
:103F7000CF90BF90AF909F908F907F906F905F9009
:103F80004F903F902F9008959F92AF92BF92CF9203
:103F9000DF92EF92FF920F931F93CF93DF93EB018A
:103FA0007A01209709F46EC04115510509F46AC0E1
:103FB0001AA5BBA4ACA49DA46EA17FA188A599A5B8
:103FC000212F3B2D4A2D592D0E948CA1882309F4C5
:103FD00059C08FA9882309F047C0F701C6A0D7A010
:103FE000E0A4F1A4612F7B2D8A2D992DA7019601C4
:103FF0000E948FA31816C4F5C701B601A701960148
:104000000E9461A46B017C012AA93BA94CA95DA96E
:104010005058CA01B9010E94B3A02EA53FA548A9D6
:1040200059A90E9461A49B01AC01C701B6010E947D
:10403000B2A00E94CEA4C62E072FF82EE92E612F23
:104040007B2D8A2D992DF7012C2D302F4F2F5E2F90
:104050000E948CA187FF04C0C12E0B2DFA2CE92CE5
:104060005C2D402F970104C0512F4B2D3A2D292D47
:10407000852F942FA32FB22F8EA39FA3A8A7B9A7F4
:1040800081E08EABDF91CF911F910F91FF90EF9068
:10409000DF90CF90BF90AF909F900895CF92DF9226
:1040A000EF92FF920F931F93DF93CF930F92CDB7B1
:1040B000DEB78091210B8091210B2091220B90E0A3
:1040C0004096821B91098F7090708430910544F165
:1040D0002091210B23502F7040E050E000E010E0D1
:1040E0008DE4E82EF12C18C0222309F420E12150A0
:1040F000822F90E08E9D60018F9DD00C9E9DD00CF4
:10410000112481E596E0C80ED91EC601B8012983A5
:104110003BDFA801860129818091220B281721F716
:104120000F90CF91DF911F910F91FF90EF90DF9053
:10413000CF9008958F929F92AF92BF92CF92DF92CD
:10414000EF92FF920F931F93CF93DF93EC016B01DC
:10415000009709F465C08FA9882309F061C0EEA01B
:10416000FFA008A519A5FB01B6A0A7A090A481A453
:10417000C801B701D501F4012B2F3A2F4F2F5E2F25
:104180000E948CA187FF4CC0C801B701A80197010C
:104190000E9461A47B018C012AA93BA94CA95DA9BD
:1041A0005058CA01B9010E94B3A02EA53FA548A945
:1041B00059A90E9461A49B01AC01C801B7010E94EA
:1041C000B2A00E94CEA48B017C01A5019401652FB1
:1041D000742F832F922F202F312F4E2D5F2D0E9471
:1041E0008CA187FF04C00B2D1A2DE92CF82CA501FA
:1041F0009401652F7A2D832F982D202F312F4E2D4E
:104200005F2D0E948CA1882359F0802F912FAE2D15
:10421000BF2DF60186A397A3A0A7B1A781E086AB27
:10422000DF91CF911F910F91FF90EF90DF90CF9092
:10423000BF90AF909F908F900895DF92EF92FF9282
:104240000F931F93CF93DF93D090220B00E010E0E9
:1042500080E090E02DE4E22EF12C16C02D2D30E010
:104260002E9DE0012F9DD00D3E9DD00D1124CF5AE3
:10427000D94FB801AE015EDF8D2D8F5F803109F41B
:1042800080E0D82EC8018E012091210BD21631F783
:10429000B80140E050E04EDFDF91CF911F910F91C8
:1042A000FF90EF90DF9008952F923F924F925F9290
:1042B0006F927F928F929F92AF92BF92CF92DF9236
:1042C000EF92FF920F931F93CF93DF93F090220B07
:1042D000C0E0D0E03DE4632E712C40C0069D60013B
:1042E000079DD00C169DD00C112481E596E0C80ED8
:1042F000D91E209769F18EA9882321F4F60186A999
:10430000882331F18AA09BA0ACA0BDA06EA17FA1A3
:1043100088A599A5A50194010E9493A11B012C01D8
:10432000069DF001079DF00D169DF00D1124EF5A2A
:10433000F94F66A177A180A591A5A50194010E94DE
:1043400093A18B019C01CE01B201A10144DC1EAA04
:10435000F394FF2DF03109F4FF24E6010F2D11270E
:1043600007FD10958091210B90E00817190709F0BF
:10437000B5CF2097E9F0CAA0DBA0ECA0FDA06EA10C
:104380007FA188A599A5A70196010E9493A14B0141
:104390005C0160E070E080E090E4A70196010E947B
:1043A00093A18B019C01CE01B501A40114DC1EAACE
:1043B000DF91CF911F910F91FF90EF90DF90CF9001
:1043C000BF90AF909F908F907F906F905F904F9035
:1043D0003F902F90089562DE30DF66CF1092210B60
:1043E0001092220B80E1E1E4F6E0DF011D928A9554
:1043F000E9F780E090E0DC018093280B9093290B93
:10440000A0932A0BB0932B0B80932C0B90932D0B26
:10441000A0932E0BB0932F0B8093300B9093310B06
:10442000A093320BB093330B8093340B9093350BE6
:10443000A093360BB093370B8093240B9093250BEE
:10444000A093260BB093270B08950F931F93909181
:10445000220B8091210B981709F442C06091220B26
:10446000262F30E08DE490E0289FF001299FF00D89
:10447000389FF00D1124E756F94F108170E000E0ED
:104480002DE430E028C0462F50E0429FF001439FCA
:10449000F00D529FF00D1124EF5AF94F8085918550
:1044A000A285B3850097A105B10509F00F5F429F72
:1044B000F001439FF00D529FF00D1124E756F94F84
:1044C00080819181A281B3810097A105B10509F096
:1044D0007F5F6F5F6F708091210B6817A1F610C02E
:1044E00080917E0C882391F13E9A90E09093990000
:1044F000809398008091900080688093900026C0FF
:10450000002309F4479A80917E0C882361F4772375
:1045100051F43E9A10929900109298008091900068
:1045200080688093900080917E0C882391F0112305
:1045300081F03E9A812F90E09093990080939800AB
:104540008091900080688093900003C010E070E03C
:10455000D9CF1F910F9108952F923F924F925F9262
:104560006F927F928F929F92AF92BF92CF92DF9283
:10457000EF92FF920F931F93DF93CF93CDB7DEB7E8
:10458000C455D0400FB6F894DEBF0FBECDBF2C018E
:104590001B015AA349A338A72FA36E2C8F2CB02E32
:1045A000A12ED8AACFA68091210B8F5F803109F46C
:1045B00080E0282F332727FD309561963FAF2EAF3F
:1045C000619707C00E94778C81E00E94534B0E9444
:1045D000F1748091220B90E061964EAD5FAD6197D2
:1045E0008417950779F3D2016D917D918D919C91FE
:1045F0002091F5053091F6054091F7055091F805A9
:104600000E9461A40E9431A427966CAF7DAF8EAF4B
:104610009FAF2797F1016081718182819381209101
:10462000F9053091FA054091FB055091FC050E9477
:1046300061A40E9431A42B966CAF7DAF8EAF9FAF6B
:104640002B97A9A1BAA16D917D918D919C912091FB
:10465000FD053091FE054091FF05509100060E9436
:1046600061A40E9431A42F966CAF7DAF8EAF9FAF37
:104670002F97EFA1F8A560817181828193812091AC
:1046800001063091020640910306509104060E94F3
:1046900061A40E9431A46BAB7CAB8DAB9EAB8091CF
:1046A0004D0690914E06A0914F06B09150062BA951
:1046B0003CA94DA95EA9281739074A075B0709F4E9
:1046C00044C060917D0CE62FF0E0EE0FFF1FE05735
:1046D000F14F808191810E94798B20E030E04AE2A5
:1046E00053E40E948CA187FF30C08091230B882364
:1046F00061F54BA95CA96DA97EA940934D06509325
:104700004E0660934F0670935006E6E5F2E0649122
:104710008F0107C08FED9EE048DA0F5F1F4FF80151
:1047200064916623B9F7EAE7F2E064918F0107C06C
:104730008FED9EE03ADA0F5F1F4FF8016491662318
:10474000B9F78FED9EE06AE030DA80914D069091E6
:104750004E06A0914F06B09150062BA93CA94DA939
:104760005EA9281B390B4A0B5B0BCA01B90157FF25
:1047700007C090958095709561957F4F8F4F9F4FA3
:104780000E942EA27B018C016091010670910206AD
:10479000809103069091040620E030E04DEC53E454
:1047A0000E9461A49B01AC01C801B7010E948FA3C4
:1047B000181664F54BA95CA96DA97EA940934D0616
:1047C00050934E0660934F0670935006E6E5F2E074
:1047D00064918F0107C08FED9EE0E7D90F5F1F4FF7
:1047E000F80164916623B9F7ECE5F2E064918F017A
:1047F00007C08FED9EE0D9D90F5F1F4FF80164917C
:104800006623B9F78FED9EE06AE0CFD98091210B46
:10481000282F30E03AA329A38DE490E0289FF001EF
:10482000299FF00D389FF00D1124EF5AF94FDF0149
:10483000A45BBF4F1C92409141065091420660918B
:104840004306709144064FA358A769A77AA72796F5
:104850008CAD9DADAEADBFAD2797841B950BA60B60
:10486000B70BB7FF07C0B095A095909581959F4F66
:10487000AF4FBF4F80839183A283B383609145067E
:104880007091460680914706909148066BA37CA3E1
:104890008DA39EA38DE490E0A9A1BAA1A89FF001E9
:1048A000A99FF00DB89FF00D1124EF5AF94F2B96E8
:1048B0008CAD9DADAEADBFAD2B972BA13CA14DA155
:1048C0005EA1821B930BA40BB50BB7FF07C0B0957D
:1048D000A095909581959F4FAF4FBF4F848395834F
:1048E000A683B7834091490650914A0660914B06D2
:1048F00070914C064BA75CA76DA77EA78DE490E056
:1049000069A17AA1689FF001699FF00D789FF00D71
:104910001124EF5AF94F2F968CAD9DADAEADBFADC2
:104920002F972BA53CA54DA55EA5821B930BA40B31
:10493000B50BB7FF07C0B095A095909581959F4F97
:10494000AF4FBF4F80879187A287B38720904D06D6
:1049500030904E0640904F06509050062091C40271
:104960003091C5026BA97CA98DA99EA96219730912
:104970008409950997FF07C090958095709561957A
:104980007F4F8F4F9F4F442737FD4095542F0E94F4
:1049900027A524E630E040E050E00E948FA58DE49A
:1049A00090E069A17AA1689FF001699FF00D789F5E
:1049B000F00D1124EF5AF94F248735874687578722
:1049C000C080D18072816381E480F5800681178187
:1049D00080859185A285B3858E159F05A007B107B7
:1049E00014F4D801C70182179307A407B50714F47C
:1049F000DA01C901FB0196014F2F562F28173907FD
:104A00004A075B0714F49C01AD018DE490E0A9A175
:104A1000BAA1A89FF001A99FF00DB89FF00D112435
:104A2000EF5AF94F208B318B428B538B2630310557
:104A30004105510510F40C94472E9F01285B3F4F10
:104A400080917E0C482F50E060E070E0D9014D93DA
:104A50005D936D937C93139710A227962CAD3DAD7B
:104A60004EAD5FAD27976FA178A589A59AA52617AA
:104A700037074807590714F481E080A32B968CADC3
:104A80009DADAEADBFAD2B972BA13CA14DA15EA1BD
:104A900082179307A407B50784F48DE490E049A139
:104AA0005AA1489FF001499FF00D589FF00D112425
:104AB000EF5AF94F80A1826080A32F966CAD7DAD37
:104AC0008EAD9FAD2F972BA53CA54DA55EA562177A
:104AD00073078407950784F48DE490E049A15AA1F7
:104AE000489FF001499FF00D589FF00D1124EF5A97
:104AF000F94F80A1846080A36BA97CA98DA99EA990
:104B0000621573058405950584F48DE490E0A9A1F0
:104B1000BAA1A89FF001A99FF00DB89FF00D112434
:104B2000EF5AF94F80A1886080A38DE490E029A11D
:104B30003AA1289FF001299FF00D389FF00D112414
:104B4000EF5AF94FAFA5B8A98C9181A380819181CB
:104B5000A281B3810097A105B10509F077988DE492
:104B600090E029A13AA1289FF001299FF00D389FDC
:104B7000F00D1124EF5AF94F84819581A681B781F8
:104B80000097A105B10509F076988DE490E049A160
:104B90005AA1489FF001499FF00D589FF00D112434
:104BA000EF5AF94F80859185A285B3850097A105BD
:104BB000B10509F047988DE490E069A17AA1689F5A
:104BC000F001699FF00D789FF00D1124EF5AF94F15
:104BD00084859585A685B7850097A105B10509F05F
:104BE00043988DE490E0A9A1BAA1A89FF001A99FE4
:104BF000F00DB89FF00D1124EF5AF94F848595857B
:104C0000A685B7850097A105B10549F4C0902D068A
:104C1000E0902E0600912F061091300608C0C0903B
:104C20001506E090160600911706109118069501DA
:104C3000662D782D832F9A2D2C2D3E2D402F512F10
:104C40000E948CA187FD04C0C62CE82C0B2D1A2DC8
:104C50009091210B8091220BE92FF0E07096E81BD8
:104C6000F109EF70F070F8A7EFA3BF01882777FD77
:104C70008095982F0E942EA24B015C0120E030E02D
:104C800040E051E40E948CA187FF16C02FA138A5F7
:104C9000223031058CF06C2D7E2D802F912FA501B7
:104CA00094010E9461A420E030E040E05EE30E94B5
:104CB00061A4C62EE72E8C01809141069091420698
:104CC000A0914306B091440627962CAD3DAD4EAD64
:104CD0005FAD2797281B390B4A0B5B0BCA01B90143
:104CE0000E942EA22091F5053091F6054091F7051E
:104CF0005091F8050E9493A1562E472E382E9BA363
:104D0000A201292F852F942FA32DB22F89839A8357
:104D1000AB83BC838091450690914606A0914706DF
:104D2000B09148062B962CAD3DAD4EAD5FAD2B97A7
:104D3000281B390B4A0B5B0BCA01B9010E942EA23A
:104D40002091F9053091FA054091FB055091FC0541
:104D50000E9493A16BA77FA78FAB9BAF472F382FE4
:104D6000292F862F942FA32FB22F8D839E83AF835D
:104D7000B8878091490690914A06A0914B06B09160
:104D80004C062F962CAD3DAD4EAD5FAD2F97281B39
:104D9000390B4A0B5B0BCA01B9010E942EA220916C
:104DA000FD053091FE054091FF05509100060E94DF
:104DB00093A1262E7FAF62968FAF629763969FAFC7
:104DC0006397472F382F292F862F942FA32FB22F89
:104DD00089879A87AB87BC876090C4027090C502B0
:104DE00080914D0690914E06A0914F06B0915006CD
:104DF0002BA93CA94DA95EA9281B390B4A0B5B0BBB
:104E0000CA01B9010E942EA220910106309102062A
:104E100040910306509104060E9493A14B015C014E
:104E2000B301882777FD8095982F0E942EA29B01C1
:104E3000AC01C501B4010E9461A420E030E048EC5F
:104E400052E40E9493A1D62EF72EB82FA92F862EBA
:104E5000972EA82EB92E262F372F482F592F2D8762
:104E60003E874F87588B8DE490E049A15AA1489F17
:104E7000F001499FF00D589FF00D1124EF5AF94FA2
:104E80002081318142815381211531054105510530
:104E900099F52481358146815781211531054105D8
:104EA000510551F520853185428553852115310500
:104EB0004105510509F56D2D7F2D8B2F9A2F20E08F
:104EC00030E0A9010E948FA3181624F0B7FAB0941D
:104ED000B7F8B0948DE490E069A17AA1689FF001E1
:104EE000699FF00D789FF00D1124EF5AF94F86A6B7
:104EF00097A6A0AAB1AA46C0A2012BA1652F742D26
:104F0000832D922F0E940CA54B015C015BA54FA540
:104F10003FA92BAD652F742F832F922F0E940CA5D4
:104F20002B013C014FAD62963FAD629763962FAD6A
:104F30006397622D742F832F922F0E940CA56BA371
:104F40007CA38DA39EA3C501B401A30192010E947D
:104F5000B3A02BA13CA14DA15EA10E94B3A00E94D1
:104F6000CEA42DE430E0A9A1BAA1A29FF001A39F95
:104F7000F00DB29FF00D1124EF5AF94F66A777A7F5
:104F800080AB91AB8DE490E0E9A1FAA1E89F5001DC
:104F9000E99FB00CF89FB00C112421E536E0A20E79
:104FA000B31ED5019E966D907D908D909C90D1976B
:104FB00060E070E080E89FE3A40193010E9493A168
:104FC0009B01AC016C2D7E2D802F912F0E9461A43E
:104FD000E62E572E482EF92EC401B3012E2D352D65
:104FE000442D5F2D0E9461A4F50162A373A384A3E5
:104FF00095A360897189828993890E942CA22E2DA4
:10500000352D442D5F2D0E9461A40E9479A10E943C
:1050100000A2D501D8966D937D938D939C93DB97D9
:105020008E010F5F1F4FB1E18B2E912C8C0E9D1EB8
:105030006401F80161917191819191918F012E2DFF
:10504000352D442D5F2D0E9461A4D6016D937D9373
:105050008D939D936D010815190559F7E5EEF5E05F
:10506000FCA7EBA79E012F5D3F4F65963FAF2EAF8C
:105070006597F8ABEFA71401CC24AA24A0E8DA2E98
:10508000FFE3BF2E2401D101ED90FD900D911D9104
:105090001D01B1E0BBA3C801B70120E030E0A901C8
:1050A0000E948FA318162CF01BA2C801B7019058BC
:1050B00002C0C801B701EFA5F8A961907190819075
:1050C0009190F8ABEFA7A40193010E948FA318164B
:1050D00044F5FBA1FF2321F4A8019701505802C019
:1050E000A8019701C401B3010E9493A19B01AC01E7
:1050F0006C2D7A2D8D2D9B2D0E948CA187FD11C0CA
:105100002BA1222321F417FB109517F91095C40148
:10511000B301A80197010E9493A1C62EA72ED82EF5
:10512000B92E65964EAD5FAD65972416350609F02C
:10513000AACF6C2D7A2D8D2D9B2D20E030E040E8FC
:105140005FE30E948CA187FFA4C01201D101ED9002
:10515000FD900D911D911D01B1E0BBA3C801B701E8
:1051600020E030E0A9010E948FA318162CF01BA2AA
:10517000C801B701905802C0C801B701EBA5FCA552
:105180006190719081909190FCA7EBA7A40193018D
:105190000E948FA3181644F5FBA1FF2321F4A80158
:1051A0009701505802C0A8019701C401B3010E94A1
:1051B00093A19B01AC016C2D7A2D8D2D9B2D0E940E
:1051C0008CA187FD11C02BA1222321F417FB109580
:1051D00017F91095C401B301A80197010E9493A18A
:1051E000C62EA72ED82EB92E65964EAD5FAD65970B
:1051F0002416350609F0AACF4201D4016D917D91A4
:105200008D919C912C2D3A2D4D2D5B2D0E9461A4EA
:10521000F40161937193819391934F0165962EAD43
:105220003FAD6597E217F30741F78DE490E049A1A0
:105230005AA1489F8001499F100D589F100D1124BD
:105240000F5A194FD80192966D917D918D919C9135
:1052500095972C2D3A2D4D2D5B2D0E9461A4F801C0
:1052600062A373A384A395A360AD71AD82AD93AD2A
:105270000E942CA22C2D3A2D4D2D5B2D0E9461A455
:105280000E9400A2D801D8966D937D938D939C9334
:10529000DB978DE490E0E9A1FAA1E89F8001E99F06
:1052A000100DF89F100D11240F5A194FD801509668
:1052B0006D917D918D919C9153970E942CA2F80144
:1052C00026A537A540A951A90E9493A1562E472E85
:1052D000382E292EF80180819181A281B381009717
:1052E000A105B10569F584819581A681B7810097F3
:1052F000A105B10529F580859185A285B385009723
:10530000A105B105E9F4A2019101652F742F832F46
:10531000922F20911D0630911E0640911F0650913C
:1053200020060E9461A40E9479A10C5B1F4F0E947D
:1053300000A2D8016D937D938D939C93139765C1C3
:10534000A2019101652F742D832F922D20911906B2
:1053500030911A0640911B0650911C060E9461A4D0
:105360000E9479A10E9400A22DE430E0E9A1FAA1F7
:10537000E29F8001E39F100DF29F100D11240F5A40
:10538000194FE4E46E2E712C600E711ED3016D93E3
:105390007D938D939C931397809031069090320665
:1053A000A0903306B09034060E942CA26B017C01C1
:1053B000F80160817181828193810E942EA29B01FC
:1053C000AC01C701B6010E9461A46B017C01D80148
:1053D00050966D917D918D919C9153970E942CA236
:1053E0009B01AC01C701B6010E9493A17B018C0116
:1053F000C501B4010E942CA29B01AC01C801B701F8
:105400000E948FA318162CF4F30180829182A2824D
:10541000B3828090350690903606A0903706B09003
:1054200038068DE490E029A13AA1289F8001299FA8
:10543000100D389F100D11240F5A194F64E4662E79
:10544000712C600E711ED3016D917D918D919C9197
:105450000E942CA26B017C01F80164817581868118
:1054600097810E942EA29B01AC01C701B6010E9448
:1054700061A46B017C01D80150966D917D918D9155
:105480009C9153970E942CA29B01AC01C701B601CD
:105490000E9493A17B018C01C501B4010E942CA242
:1054A0009B01AC01C801B7010E948FA318162CF410
:1054B000F30180829182A282B38280903D06909017
:1054C0003E06A0903F06B09040068DE490E029A1F2
:1054D0003AA1289F8001299F100D389F100D11249B
:1054E0000F5A194F54E4652E712C600E711ED301B2
:1054F0006D917D918D919C910E942CA26B017C01FC
:10550000F80164857585868597850E942EA29B018A
:10551000AC01C701B6010E9461A46B017C01D801F6
:1055200050966D917D918D919C9153970E942CA2E4
:105530009B01AC01C701B6010E9493A17B018C01C4
:10554000C501B4010E942CA29B01AC01C801B701A6
:105550000E948FA318162CF4F30180829182A282FC
:10556000B3828090390690903A06A0903B06B090A6
:105570003C068DE490E029A13AA1289F8001299F53
:10558000100D389F100D11240F5A194F44E4642E4A
:10559000712C600E711ED3016D917D918D919C9146
:1055A0000E942CA26B017C01F801608571858285C7
:1055B00093850E942EA29B01AC01C701B6010E94F7
:1055C00061A46B017C01D80150966D917D918D9104
:1055D0009C9153970E942CA29B01AC01C701B6017C
:1055E0000E9493A17B018C01C501B4010E942CA2F1
:1055F0009B01AC01C801B7010E948FA318162CF4BF
:10560000F30180829182A282B3828DE490E029A18D
:105610003AA1289F8001299F100D389F100D112459
:105620000F5A194FF801EC5BFF4F60817181828145
:1056300093810E942CA26B017C01D201F1012B2FDE
:10564000342D4F2F522D0E9493A1D801D2966D93E5
:105650007D938D939C93D597C701B6012DEB37E3CE
:1056600046E051E40E9461A40E94FBA1F801648F0E
:10567000758F868F978F2091210630912206409159
:105680002306509124062FA738AB49AB5AAB498D5E
:105690005A8D6B8D7C8D4BA35CA36DA37EA3CB0138
:1056A000BA0120E030E0A9010E948FA318164CF047
:1056B0006BA07CA08DA09EA097FA909497F89094F0
:1056C00004C06BA07CA08DA09EA060912506709167
:1056D000260680912706909128066FAB78AF89AF98
:1056E0009AAF20E030E040E05FE30E9461A4162F13
:1056F000E72E082FA92EC401B301212F3E2D402FE4
:105700005A2D0E948FA3181674F06FA578A989A945
:105710009AA920E030E040E05FE30E9461A4162FE8
:10572000E72E082FA92E8DE490E0E9A1FAA1E89FC9
:10573000D001E99FB00DF89FB00D1124AF5AB94FB9
:10574000FD01B29692965C90418032802380612F59
:105750007E2D802F9A2DD201F1012B2F3A2F4F2F22
:105760005E2F0E948CA187FD04C0152DE42C032D13
:10577000A22C2D8D3E8D4F8D58A12BA73CA74DA758
:105780005EA7CA01B90120E030E0A9010E948FA301
:1057900018164CF06BA47CA48DA49EA497FA909448
:1057A00097F8909404C06BA47CA48DA49EA440910F
:1057B000290650912A0660912B0670912C064BAF5A
:1057C0005CAF6DAF7EAFCB01BA0120E030E040E0CE
:1057D0005FE30E9461A4D62EC72EB82EF92EC40115
:1057E000B301D6012B2F3A2F4B2D5F2D0E948FA393
:1057F00018168CF4612F7E2D802F9A2DD6012B2F19
:105800003A2F4B2D5F2D0E948CA187FD04C01D2DCA
:10581000EC2C0B2DAF2C6FA178A5623071050CF428
:1058200033C16091240B7091250B8091260B9091D0
:10583000270B20E030E0A9010E948FA318160CF07E
:1058400023C18091280B9091290BA0912A0BB09134
:105850002B0B8FA398A7A9A7BAA769897A898B89E7
:105860009C892FA138A549A55AA50E94B2A09B01E9
:10587000AC010E9461A4862E672E982E792E20916D
:105880002C0B30912D0B40912E0B50912F0B23960A
:105890002CAF3DAF4EAF5FAF23976D897E898F8967
:1058A000988D0E94B2A09B01AC010E9461A4B62E0B
:1058B000C72ED82EF92E282D362D492D572DCA0149
:1058C000B9012B2D3C2D4D2D5F2D0E94B3A00E94C0
:1058D000CEA43B014C016FA178A589A59AA520E033
:1058E00030E0A9010E948CA1882389F423966CAD35
:1058F0007DAD8EAD9FAD239720E030E0A9010E94E1
:105900008CA1882321F4512E4E2C302E2A2CC40138
:10591000B3012FA538A949A95AA90E948FA3181627
:10592000B4F46FA578A989A99AA9A40193010E944A
:1059300093A19B01AC01D201F1016B2F742D8F2F2C
:10594000922D0E9461A4562E472E382E292E6BA12F
:105950007CA18DA19EA12091300B3091310B409103
:10596000320B5091330B0E94B2A0D62EC72EB82E08
:10597000A92EE62EF72E082F192F8824839420E0D5
:1059800030E0A9010E948FA318162CF08824C801CA
:10599000B701905804C06D2D7C2D8B2D9A2D2FA909
:1059A00038AD49AD5AAD0E948FA31816E4F4882093
:1059B00021F417FB109517F910956FA978AD89ADF3
:1059C0009AADA80197010E9493A19B01AC01D2015D
:1059D000F1016B2F742D8F2F922D0E9461A4562EF2
:1059E000472E382E292E6BA57CA58DA59EA520912E
:1059F000340B3091350B4091360B5091370B0E9490
:105A0000B2A0D62EC72EB82EA92EE62EF72E082F1E
:105A1000192F8824839420E030E0A9010E948FA3ED
:105A200018162CF08824C801B701905804C06D2DB9
:105A30007C2D8B2D9A2D2BAD3CAD4DAD5EAD0E94D6
:105A40008FA31816ECF4882021F417FB109517F992
:105A500010956BAD7CAD8DAD9EADA80197010E94F8
:105A600093A19B01AC01D201F1016B2F742D8F2FFB
:105A7000922D0E9461A4162FE72E082FA92E04C094
:105A8000152DE42C032DA22C8DE490E049A15AA100
:105A9000489F6001499FD00C589FD00C112461E5AC
:105AA00076E0C60ED71E812F9E2DA02FBA2DF601AF
:105AB00082A793A7A4A7B5A722A933A944A955A94A
:105AC0005058CA01B9010E94B3A0D6019E962D91EB
:105AD0003D914D915C91D1970E9461A49B01AC01D5
