:100000000C94410C0C94700C0C94700C0C94700CAF
:100010000C94700C0C94700C0C94700C0C94700C70
:100020000C94700C0C94700C0C9426AE0C94A3AE33
:100030000C94700C0C94700C0C94700C0C94700C50
:100040000C94700C0C94E1310C94700C0C94700CAA
:100050000C94700C0C94700C0C9488A30C9405AA4E
:100060000C94700C0C94700C0C94700C0C94700C20
:100070000C94700C0C94700C0C94700C0C94700C10
:100080000C94700C0C94700C0C94700C0C94700C00
:100090000C9482A50C94700C084AD73B3BCE016EA1
:1000A00084BCBFFDC12F3D6C74319ABD56833DDACF
:1000B0003D00C77F11BED9E4BB4C3E916BAAAABEDE
:1000C000000000803F05A84CCDB2D44EB93836A907
:1000D000020C50B9918688083CA6AAAA2ABE000044
:1000E00000803F6563686F3A0043616E6E6F7420F5
:1000F000656E746572207375626469723A00457248
:10010000726F723A006572726F72207772697469E9
:100110006E6720746F2066696C65004E6F742053A3
:1001200044207072696E74696E67002F005344201A
:100130007072696E74696E67206279746520002E32
:100140000044656C6574696F6E206661696C6564F6
:100150002C2046696C653A200046696C6520646510
:100160006C657465643A002E006F70656E20666180
:10017000696C65642C2046696C653A200057726989
:1001800074696E6720746F2066696C653A20002E72
:10019000006F70656E206661696C65642C2046692D
:1001A0006C653A20002E006F70656E206661696C88
:1001B00065642C2046696C653A200046696C6520B0
:1001C00073656C6563746564002053697A653A00F1
:1001D00046696C65206F70656E65643A002E006F2D
:1001E00070656E206661696C65642C2046696C657B
:1001F0003A200053442063617264206F6B006F707B
:10020000656E526F6F74206661696C656400766F0D
:100210006C756D652E696E6974206661696C6564C4
:1002200000534420696E6974206661696C006563DF
:10023000686F3A0020746F6F206C6F6E672065786E
:1002400074727573696F6E2070726576656E746511
:10025000640020636F6C6420657874727573696FD5
:100260006E2070726576656E7465640052656C65AB
:10027000617365642E0024F404D9201BC40C5C0E49
:100280009804C4095F0265077101F405F900FB04D5
:10029000B30048048700C1036900580355000303F5
:1002A0004500BE023A008402310053022A002902AE
:1002B000250004022000E4011C00C8011900AF0160
:1002C00017009801140084011300710110006101EE
:1002D000100051010E0043010D0036010B002B01EF
:1002E0000B0020010B00150109000C01090003019E
:1002F0000800FB000800F3000800EB000700E40022
:100300000600DE000600D8000600D2000600CC0081
:100310000500C7000500C2000500BD000400B900CB
:100320000400B5000400B1000400AD000400A90001
:100330000400A5000300A20003009F0004009B002E
:100340000300980003009500020093000300900052
:1003500003008D0002008B0003008800020086006D
:10036000020084000300810002007F0002007D0083
:1003700002007B0002007900020077000100760095
:1003800002007400020072000100710002006F00A0
:1003900002006D0001006C0002006A0001006900AB
:1003A00002006700010066000100650001006400B2
:1003B00002006200010061000100600001005F00B6
:1003C00002005D0001005C0001005B0001005A00BA
:1003D00001005900010058000100570001005600BB
:1003E00001005500010054000100530000005300BB
:1003F00001005200010051000100500001004F00B7
:1004000001004E0000004E0001004D0001004C00B4
:1004100001004B0000004B0001004A0001004900B0
:1004200001004800000048000100470001004600AC
:1004300000004600010045000000450001004400A6
:1004400001004300000043000100420000004200A0
:1004500001004100000041000100400001003F0098
:1004600000003F0001003E0000003E0001003D0092
:1004700000003D0001003C0000003C0000003C008A
:1004800001003B0000003B0001003A0000003A0080
:100490000100390000003900010038000000380078
:1004A000000038000100370000003700010036006E
:1004B0000000360000003600010035000000350065
:1004C000000035000100340000003400000034005A
:1004D000010033000000330000003300010032004F
:1004E0000000320000003200010031000000310045
:1004F000000031000100300000003000000030003A
:1005000001002F0000002F0000002F0000002F002E
:1005100001002E0000002E0000002E0001002D0022
:1005200000002D0000002D0000002D0001002C0017
:1005300000002C0000002C0000002C0001002B000B
:1005400000002B0000002B0000002B0001002A00FF
:1005500000002A0000002A0000002A0001002900F3
:1005600000002900000029000000290000002900E7
:1005700001002800000028000000280000002800DA
:1005800000002800010027000000270000002700CD
:1005900000002700000027000100260000002600C0
:1005A00000002600000026000000260001002500B3
:1005B00000002500000025000000250000002500A7
:1005C0000000250001002400000024000000240099
:1005D000000024000000240001002300000023008C
:1005E000000023000000230000002300000023007F
:1005F0000000230001002200000022000000220071
:100600000000220000002200000022000100210062
:100610000000210000002100000021000000210056
:100620000000210000002100010020000000200047
:10063000000020000000200000002000000020003A
:10064000000020000000200001001F0000001F002B
:1006500000001F0000001F0000001F0000001F001E
:1006600000001F0001001E0000001E0000001E0010
:1006700000001E00000024F4D43050C38E20C2A21B
:100680004017828B7011127A910D816CD90AA86182
:10069000E108C7586607615143061E4B5D05C14519
:1006A000A7041A411104093D9803713931034036FA
:1006B000DB0265339102D4305402802E1D02632C7C
:1006C000EE01752AC501B028A001102781018F25F0
:1006D00064012B244B01E0223401AC211F018D2049
:1006E0000D01801FFC00841EED00971DDF00B81C6B
:1006F000D200E61BC600201BBC00641AB200B2196F
:10070000A8000A19A0006A189900D1179100401793
:100710008B00B516840031167E00B31579003A15AA
:100720007300C7146F0058146A00EE136600881334
:10073000630025135E00C7125B006C125700151290
:100740005400C111510070114F0021114B00D610FF
:1007500049008D1047004610440002104200C00FAF
:100760004000800F3E00420F3C00060F3B00CB0EC6
:100770003800930E37005C0E3500270E3400F30D61
:100780003200C10D3100900D3000600D2E00320D91
:100790002D00050D2C00D90C2B00AE0C2900850C6A
:1007A00029005C0C2700350C27000E0C2600E80BF6
:1007B0002400C40B2400A00B23007D0B23005A0B44
:1007C0002100390B2100180B2000F80A1F00D90A5C
:1007D0001E00BB0A1E009D0A1D00800A1D00630A40
:1007E0001C00470A1B002C0A1B00110A1A00F709FB
:1007F0001A00DD091900C4091900AB091900920992
:1008000017007B091800630917004C091600360908
:100810001600200916000A091500F5081500E00861
:100820001400CC081400B8081400A40814009008A0
:1008300013007D0812006B081300580812004608C8
:1008400012003408110023081100120811000108D9
:100850001100F0071000E0071000D0071000C007DB
:100860001000B0070F00A107100091070E008307CA
:100870000F0074070F0065070E0057070E004907A9
:100880000E003B070D002E070E0020070D0013077A
:100890000D0006070D00F9060C00ED060D00E00640
:1008A0000C00D4060C00C8060C00BC060C00B006F8
:1008B0000C00A4060B0099060C008D060B008206A6
:1008C0000B0077060B006C060B0061060A0057064A
:1008D0000B004C060A0042060A0038060A002E06E3
:1008E0000A0024060A001A060A0010060900070674
:1008F0000A00FD050900F4050900EB050900E20501
:100900000900D9050900D0050900C7050900BE0581
:100910000900B5050800AD050800A50509009C05FE
:100920000800940508008C050800840508007C0573
:100930000800740508006C050700650508005D05E2
:100940000700560508004E0507004705070040054B
:10095000080038050700310507002A0507002305B0
:1009600007001C050600160507000F05070008050F
:10097000060002050700FB040600F5040700EE046C
:100980000600E8040600E2040700DB040600D504C4
:100990000600CF040600C9040600C3040600BD0417
:1009A0000600B7040600B1040500AC040600A60466
:1009B0000600A00405009B040600950405009004B1
:1009C00006008A04050085040500800406007A04F8
:1009D000050075040500700405006B04050066043D
:1009E0000500610405005C0405005704050052047D
:1009F00005004D04050048040500430405003E04BD
:100A000004003A04050035040500300404002C04F9
:100A1000050027040400230405001E0404001A0432
:100A2000040016040500110404000D040400090468
:100A300005000404040000040400FC030400F8039F
:100A40000400F4030400F0030400EC030400E803D2
:100A50000400E4030400E0030400DC030400D80302
:100A60000400D4030400D0030400CC030400C80332
:100A70000300C50303006563686F3A00205A3A001B
:100A800020593A0020583A00656E6473746F707391
:100A9000206869743A20007C3C3E5E2B3D3F2F5B12
:100AA0005D3B2C2A225C004572726F723A00536FD4
:100AB0006D657468696E672069732077726F6E6701
:100AC00020696E20746865204D656E75537472756B
:100AD00063747572652E002043617264204D656EEB
:100AE00075202020207E002053746F702050726982
:100AF0006E742020207E0020436F6E74726F6C2015
:100B00007E002054756E65202020207E00205072CB
:100B10006570617265207E002057617463682020D3
:100B20002003002000045265667265736800204D42
:100B300061696E20030020526573746F72652046F0
:100B400061696C7361666500204C6F6164206D653E
:100B50006D6F7279002053746F7265206D656D6FD3
:100B6000727900204D6F74696F6E20202020202044
:100B70007E002054656D7065726174757265207EAB
:100B800000204D61696E20202020202020200300BD
:100B90006563686F3A0053657474696E67732053B8
:100BA000746F7265640053746F726564207365744A
:100BB00074696E6773207265747265697665643AEC
:100BC000002044002049002020204D3330312050A7
:100BD000005049442073657474696E67733A00204D
:100BE0004500205A002058002042002054002020B8
:100BF0004D323035205300416476616E6365642068
:100C00007661726961626C65733A20533D4D696E1D
:100C100020666565647261746520286D6D2F732987
:100C20002C20543D4D696E2074726176656C20668F
:100C30006565647261746520286D6D2F73292C20A1
:100C4000423D6D696E696D756D207365676D656E8A
:100C5000742074696D6520286D73292C20583D6DB2
:100C60006178696D756D207859206A65726B2028EE
:100C70006D6D2F73292C20205A3D6D6178696D753B
:100C80006D205A206A65726B20286D6D2F732900C4
:100C900020540020204D32303420530041636365DE
:100CA0006C65726174696F6E3A20533D6163636570
:100CB0006C65726174696F6E2C20543D726574723C
:100CC00061637420616363656C65726174696F6EE2
:100CD00000204500205A0020590020204D3230319C
:100CE0002058004D6178696D756D20416363656CB6
:100CF00065726174696F6E20286D6D2F7332293AA9
:100D000000204500205A0020590020204D32303369
:100D10002058004D6178696D756D20666565647257
:100D20006174657320286D6D2F73293A002045008A
:100D3000205A0020590020204D3932205800537489
:100D40006570732070657220756E69743A00204575
:100D500073746570732F6D6D3A00205A73746570EB
:100D6000732F6D6D3A00205973746570732F6D6D1C
:100D70003A00205873746570732F6D6D3A003030EF
:100D80000030300020412D726574726163743A0046
:100D9000303000303000653A007A3A00793A007815
:100DA0003A0020416D61782000205654726176200F
:100DB0006D696E3A0020566D696E3A00653A007AA8
:100DC0003A00793A00783A0020566D617820002088
:100DD0005678792D6A65726B3A20003030003030D9
:100DE00000204163633A0020436F6E74726F6C2081
:100DF0000300205049442D433A2000205049442DFF
:100E0000443A2000205049442D493A2000205049BE
:100E1000442D503A20002046616E20737065656451
:100E20003A0020024265643A004F6666004F6E2029
:100E3000004F6666004F6E2000204175746F746528
:100E40006D703A00200220466163743A002002204F
:100E50004D61783A002002204D696E3A0020024E22
:100E60006F7A7A6C653A0020436F6E74726F6C20F3
:100E7000030020466C6F773A002046616E20737045
:100E80006565643A0020024265643A0020024E6FB4
:100E90007A7A6C653A002053706565643A00204D9B
:100EA00061696E20030020457874727564650020C6
:100EB0005A3A0020593A0020583A00205072657082
:100EC000617265200300204D6F766520417869735B
:100ED0002020202020207E0020436F6F6C646F77DD
:100EE0006E00205072656865617420414253002095
:100EF0005072656865617420504C410020536574E0
:100F0000204F726967696E00204175746F20486FC9
:100F10006D65002044697361626C6520537465706F
:100F20007065727300204175746F73746172740020
:100F3000204D61696E200300255344002520005A8E
:100F40003A006D00682000422D2D2D2F2D2D2D01F2
:100F50002000022D2D2D2F2D2D2D0120004D656EF1
:100F600064656C2052656164792E0053544F505073
:100F700045442E20005072696E7465722073746F40
:100F8000707065642064657520746F206572726F7F
:100F900072732E2046697820746865206572726FBE
:100FA0007220616E6420757365204D393939207463
:100FB0006F2072657374617274212E202854656DE0
:100FC00070657261747572652069732072657365EE
:100FD000742E20536574206974206265666F726593
:100FE0002072657374617274696E6729004B494C95
:100FF0004C45442E20005072696E74657220686101
:101000006C7465642E206B696C6C28292063616C9C
:101010006C6564202121006F6B00526573656E64FE
:101020003A002200556E6B6E6F776E20636F6D6DA8
:10103000616E643A22007A5F6D696E3A00795F6D85
:10104000696E3A00785F6D696E3A005A3A00593A13
:101050000020436F756E7420583A00453A005A3AA2
:1010600000593A00583A004649524D574152455F9F
:101070004E414D453A4D61726C696E2056313B20B0
:10108000537072696E7465722F6772626C206D6145
:101090007368757020666F722067656E36204649EA
:1010A000524D574152455F55524C3A687474703AEC
:1010B0002F2F7777772E6D656E64656C2D7061725A
:1010C00074732E636F6D2050524F544F434F4C5FDB
:1010D00056455253494F4E3A312E30204D414348E8
:1010E000494E455F545950453A4D656E64656C20D4
:1010F00045585452554445525F434F554E543A312A
:101100000A005061727469616C2052656C6561738C
:10111000650042656420646F6E652E0020423A00CF
:1011200020453A00543A004265642048656174697C
:101130006E672E0048656174696E6720646F6E6526
:101140002E0020573A0020453A00543A0048656185
:1011500074696E672E2E2E0020403A00202F00204A
:10116000423A00202F006F6B20543A00456E6420F5
:1011700066696C65206C69737400426567696E20EE
:1011800066696C65206C697374004E6F206D6F76B4
:10119000652E005761697420666F722075736572E1
:1011A0002E2E2E00536C6565702E2E2E00446F6E11
:1011B00065207072696E74696E672066696C65007F
:1011C00053544F505045442E20005072696E746540
:1011D000722073746F707065642064657520746F1D
:1011E000206572726F72732E20466978207468656C
:1011F000206572726F7220616E6420757365204D78
:1012000039393920746F2072657374617274212EBC
:10121000202854656D7065726174757265206973FC
:101220002072657365742E20536574206974206282
:1012300065666F72652072657374617274696E673A
:1012400029006F6B004E6F204C696E65204E756DE6
:10125000626572207769746820636865636B737573
:101260006D2C204C617374204C696E653A004E6F92
:1012700020436865636B73756D2077697468206CB3
:10128000696E65206E756D6265722C204C61737499
:10129000204C696E653A00636865636B73756D20F9
:1012A0006D69736D617463682C204C617374204C9C
:1012B000696E653A004C696E65204E756D626572A7
:1012C000206973206E6F74204C617374204C696EBA
:1012D00065204E756D6265722B312C204C617374E4
:1012E000204C696E653A00446F6E652073617669C3
:1012F0006E672066696C652E006F6B002020506C55
:10130000616E6E6572427566666572427974657368
:101310003A20002046726565204D656D6F72793AFE
:101320002000616A643430393600207C20417574B5
:10133000686F723A2000323031322D30372D303222
:101340002D303000204C61737420557064617465D9
:10135000643A2000312E302E3020524332004D614D
:10136000726C696E200020536F667477617265201D
:10137000526573657400205761746368646F6720F9
:101380005265736574002042726F776E206F7574BA
:10139000205265736574002045787465726E616CC7
:1013A00020526573657400506F77657255700073D5
:1013B00074617274002200656E717565696E6720D4
:1013C00022004572726F723A0054656D70657261E9
:1013D0007475726520686561746564206265642057
:1013E0007377697463686564206F66662E204D416B
:1013F0005854454D50207472696767657265642062
:101400002121003A204578747275646572207377E3
:10141000697463686564206F66662E204D494E547A
:10142000454D5020747269676765726564202100BC
:101430003A204578747275646572207377697463B5
:10144000686564206F66662E204D415854454D50A6
:101450002074726967676572656420210010005E00
:1014600001C001FA00F001F5003002F0007002EB5B
:1014700000A002E600C002E1001003DC005003D728
:1014800000E003D2007004CD00E004C800E005BE17
:10149000006006B9004007AA00F008A000700B9693
:1014A00000F00D8C00E0108200E0137800F0176E61
:1014B00000D0196900701B6400401E5F0010205AA4
:1014C00000F025500080294600D0303C00A0323783
:1014D000001035320020392D0020392800703A23C1
:1014E00000A03B1E00A03C1900203D1600003F0359
:1014F00000202D20496E76616C69642065787472D5
:1015000075646572206E756D626572202100202DF4
:1015100020496E76616C69642065787472756465C3
:1015200072206E756D6265722100504944204175CC
:10153000746F74756E652066696E69736865642082
:101540002120506C61636520746865204B702C20ED
:101550004B6920616E64204B6420636F6E7374610D
:101560006E747320696E2074686520636F6E66699F
:101570006775726174696F6E2E680050494420412E
:1015800075746F74756E65206661696C6564212081
:1015900074696D656F75740020403A006F6B20545C
:1015A0003A00504944204175746F74756E65206629
:1015B00061696C6564212054656D70657261747534
:1015C000726520746F206869676800204B643A2058
:1015D00000204B693A2000204B703A200020436CD9
:1015E000617369632050494420002054753A2000FB
:1015F000204B753A2000206D61783A2000206D69FB
:101600006E3A200020643A200020626961733A201B
:101610000070012C0190012701B0012201C0011DC1
:1016200001F00118011002130130020E01600209DD
:101630000190020401C002FF000003FA004003F51C
:10164000008003F000D003EB002004E6007004E10A
:1016500000E004DC004005D700C005D2004006CD04
:1016600000D006C8008007C3003008BE00F008B9EB
:1016700000C009B400B00AAF00B00BAA00D00CA59E
:1016800000000EA000500F9B00C010960050129159
:101690000000148C00C0158700B0178200B0197DBF
:1016A00000D01B7800001E730040206E009022695D
:1016B00000F024640040275F0090295A00E02B5579
:1016C00000102E500020304B0010324600E0334115
:1016D0000090353C001037370070383200A0392DAB
:1016E00000B03A2800A03B2300603C1E00103D19CA
:1016F00000903D1400103E0F00703E0A00C03E05F1
:1017000000003F000001290229042908291029208E
:101710002940298029012C022C01260226042608B2
:10172000261026202640268026402C802C012302CD
:101730002304230823102320234023802301200295
:1017400020042008201020202040208020102C2061
:101750002C012F022F042F082F102F202F402F8015
:101760002F7EFE7EFD7EFB7EF77EEF7EDF7EBF7EE0
:101770007F00010000A5171200020000B717430008
:10178000030000FA170401030904FE1718020309F5
:10179000041818160303090430180C0001C10201D3
:1017A00080360181361201000202000020C016833B
:1017B0000400010102030109024300020100C032DA
:1017C00009040000010202010005240010010524A3
:1017D0000100010424020605240600010705820316
:1017E00008004009040100020A0000000705030286
:1017F00040000007058402400000040309041803A8
:101800005400650065006E00730079006400750087
:1018100069006E006F00000016035500530042007F
:101820002000530065007200690061006C00000038
:101830000C03310032003300340035000000494E03
:1018400046494E4954594E414ECDCCCC3D0AD72342
:101850003C17B7D13877CC2B329595E6241FB14F82
:101860000A000020410000C84200401C4620BCBEC7
:101870004CCA1B0E5AAEC59D74008996FCA443AC9D
:101880008C9611241FBECFEFD0E2DEBFCDBF13E098
:10189000A0E0B1E0E2ECF6E701E00BBF02C0079088
:1018A0000D92A03EB107D9F71FE0A0EEB3E001C052
:1018B0001D92A139B107E1F718E1C0E8D8E100E0D5
:1018C00006C022970109FE010BBF0E941FB5CA374F
:1018D000D10780E00807A9F70E9477AA0C9450BBB3
:1018E0000C9400008091E605882399F14091E00373
:1018F0005091E1036091E2037091E3038091E4056C
:101900009091E50524EE33E00E94F098882319F1C8
:101910004091E7055091E8056091E9057091EA056D
:10192000411551056105710591F08091E405909193
:10193000E50524EE33E00E94F098882371F01092C0
:10194000E7051092E8051092E9051092EA05109259
:10195000E60581E0089580E0089580E00895DF9233
:10196000EF92FF920F931F937B018C01D42E8091F5
:10197000E0039091E103A091E203B091E3038E159F
:101980009F05A007B107B9F0ADDF8823D1F08091A2
:10199000E4059091E505B801A70124EE33E00E942B
:1019A000D997882371F0E092E003F092E10300936D
:1019B000E2031093E303DD2031F081E08093E6053C
:1019C00003C080E001C081E01F910F91FF90EF9074
:1019D000DF900895CF92DF92EF92FF920F931F93C3
:1019E000CF93DF93EC017A018B01690189859A8598
:1019F000AB85BC850196A11DB11D84179507A6076F
:101A0000B70708F45DC08F89803129F49927872FA3
:101A1000762F652F0CC0803209F052C0CB01BA017D
:101A200027E096958795779567952A95D1F72B8925
:101A30003C894D895E89620F731F841F951F209119
:101A4000E0033091E1034091E2035091E303621718
:101A500073078407950721F040E081DF882381F137
:101A60008F89803191F48FEF90E0A0E0B0E0E82220
:101A7000F9220A231B23F701EE0FFF1FEC51FC4F45
:101A800080819181A0E0B0E014C08FE790E0A0E0F9
:101A9000B0E0E822F9220A231B23F701EE0FFF1F13
:101AA000EE0FFF1FEC51FC4F80819181A281B38129
:101AB000BF70F60180839183A283B38381E001C06C
:101AC00080E0DF91CF911F910F91FF90EF90DF9019
:101AD000CF9008954F925F926F927F928F929F92D4
:101AE000AF92BF92CF92DF92EF92FF920F931F932C
:101AF000DF93CF9300D000D0CDB7DEB76C01498320
:101B00005A836B837C832901EE24FF2487015E01C5
:101B10000894A11CB11C612C42E0742E812C912CE4
:101B200049815A816B817C81C601950153DF8823ED
:101B300071F1D401C301F601058404C0880F991F17
:101B4000AA1FBB1F0A94D2F7E80EF91E0A1F1B1F1B
:101B500089819A81AB81BC812789203149F4883FF2
:101B6000FFEF9F07F0E0AF07F0E0BF0748F4D8CFE2
:101B7000883F2FEF92072FEFA2072FE0B20780F2E6
:101B8000F201E082F1820283138381E001C080E0F0
:101B90000F900F900F900F90CF91DF911F910F91A9
:101BA000FF90EF90DF90CF90BF90AF909F908F907D
:101BB0007F906F905F904F9008956F927F928F9279
:101BC0009F92AF92BF92CF92DF92EF92FF920F93CC
:101BD0001F93CF93DF93EC015A016B013801490148
:101BE000423051056105710508F469C089859A85FF
:101BF000AB85BC850196A11DB11D84179507A6076D
:101C0000B70708F45CC08F89803129F4E52EF62EE1
:101C1000072F11270CC0803209F051C07A018B01C7
:101C200077E016950795F794E7947A95D1F78B8925
:101C30009C89AD89BE89E80EF91E0A1F1B1FC801C9
:101C4000B70141E08CDE8823D1F18F89803181F4A6
:101C50008FEF90E0A0E0B0E0A822B922CA22DB22F8
:101C6000F501EE0FFF1FEC51FC4F7182608213C033
:101C70008FE790E0A0E0B0E0A822B922CA22DB22E0
:101C8000F501EE0FFF1FEE0FFF1FEC51FC4F6082BE
:101C90007182828293828A89823098F08D819E81BE
:101CA000AF81B8858E0D9F1DA01FB11F8093E705E2
:101CB0009093E805A093E905B093EA0502C080E09F
:101CC00001C081E0DF91CF911F910F91FF90EF90C4
:101CD000DF90CF90BF90AF909F908F907F906F904C
:101CE00008950F931F930FEF1FEF2FEF3FE065DF76
:101CF0001F910F9108952F923F924F925F926F9292
:101D00007F928F929F92AF92BF92CF92DF92EF928B
:101D1000FF920F931F93DF93CF93CDB7DEB72F972B
:101D20000FB6F894DEBF0FBECDBF1C014C875D8798
:101D30006E877F873B872A87DC011996CD90DD90DF
:101D4000ED90FC901C970894C11CD11CE11CF11C67
:101D5000F901408051806280738041145104610414
:101D6000710431F00894411C511C611C711C10C09D
:101D7000DC014D905D906D907C90B1E0BD832C8531
:101D80003D854E855F85213031054105510509F0BE
:101D90001D82530142011E821F82188619868E0100
:101DA0000F5F1F4FF10181859285A385B4852E8138
:101DB0003F8148855985281739074A075B0708F08E
:101DC0008BC0C814D904EA04FB0450F4A2E08A2EA4
:101DD000912CA12CB12CF2E04F2E512C612C712CA6
:101DE000C101B501A4019801F5DD882309F474C08F
:101DF00029813A814B815C81D501C4010196A11DE5
:101E0000B11D211531054105510519F02C013D0188
:101E10000DC084199509A609B7092C853D854E8505
:101E20005F8582179307A407B50789F08E819F818C
:101E3000A885B9850196A11DB11D8E839F83A887B2
:101E4000B9870894811C911CA11CB11CABCFC101A6
:101E5000A401B50146DF882389F43EC068017901F9
:101E60000894C108D108E108F108C101B701A60131
:101E7000A4DE882389F19701860102C095018401BF
:101E8000401651066206730648F3AA85BB854D913C
:101E90005D916D917C911397411551056105710517
:101EA00031F0C1019301820188DE8823A9F0EA851F
:101EB000FB854082518262827382FD81FF2371F033
:101EC0000894411C511C611C711CD1014D925D9202
:101ED0006D927C92139702C080E001C081E02F9642
:101EE0000FB6F894DEBF0FBECDBFCF91DF911F912B
:101EF0000F91FF90EF90DF90CF90BF90AF909F90A9
:101F00008F907F906F905F904F903F902F900895AB
:101F1000AF92BF92CF92DF92EF92FF920F931F93F7
:101F2000DF93CF9300D000D0CDB7DEB76C017A013C
:101F30008B0182E090E0A0E0B0E0F6018083918325
:101F4000A283B3835E010894A11CB11CC601B80131
:101F5000A70195013FDD882331F1C601B801A70132
:101F600000E010E0980129DE8823E9F0E980FA809A
:101F70000B811C81F6018789803151F4F8EFEF164F
:101F8000FFEFFF06F0E00F07F0E01F0750F4DECF91
:101F900088EFE8168FEFF8068FEF08078FE0180735
:101FA000A8F281E001C080E00F900F900F900F9099
:101FB000CF91DF911F910F91FF90EF90DF90CF9025
:101FC000BF90AF9008956F927F929F92AF92BF9211
:101FD000CF92DF92EF92FF920F931F93CF93DF93F5
:101FE000EC01142F7093E5056093E4051F8A82E0ED
:101FF00090E0A0E0B0E088839983AA83BB8310922D
:10200000E6051092E7051092E8051092E905109296
:10201000EA058FEF9FEFDC018093E0039093E103EB
:10202000A093E203B093E3034423C1F1453008F0E9
:102030000BC160E070E0CB0140E091DC882309F443
:1020400003C1212F30E054E0220F331F5A95E1F7EE
:102050002C523C4FF901E254FE4F808190E08F7783
:102060009070009709F0F0C0F901E653FE4F8081AF
:102070009181A281B38184369105A105B10508F44F
:10208000E3C02A533E4FF901A080B180C280D380C3
:10209000A114B104C104D10421F4D6C0AA24BB24E4
:1020A0006501C601B50140E05ADC882309F4CCC0C3
:1020B0008091EF039091F003F2E080309F0709F0E8
:1020C000C3C03091F403332309F4BEC08091F203FE
:1020D0009091F303009709F4B7C02091F1032223F4
:1020E00009F4B2C03A8B2C831D8630E081E090E089
:1020F00007C0492D4F5F4D87492D483008F0A4C0D7
:102100009D84AC01092C02C0440F551F0A94E2F7CC
:102110002417350771F76091FA037091FB0361157D
:10212000710519F080E090E008C06091080470919A
:10213000090480910A0490910B046D837E838F8340
:102140009887E090F203F090F30300E010E0EA0CCF
:10215000FB1C0C1D1D1DEB8AFC8A0D8B1E8B6090D9
:10216000F5037090F603798E688E2091F40330E0C9
:1021700040E050E00E949CB46E0D7F1D801F911FB7
:102180006A8F7B8F8C8F9D8F930145E0220F331FC9
:102190004A95E1F721503E4F232F3327269540E003
:1021A00050E0260F371F481F591F2E873F87488B47
:1021B000598B8091F7039091F803009719F0A0E0F4
:1021C000B0E008C08091040490910504A091060439
:1021D000B0910704A21AB30AC40AD50AA80EB91E00
:1021E000CA1EDB1E04C0D694C794B794A7949A94D1
:1021F000D2F7A986BA86CB86DC8685EFA8168FE053
:10220000B80680E0C80680E0D80618F48CE08F8B12
:102210001BC0E5EFAE16EFEFBE06E0E0CE06E0E055
:10222000DE0610F480E10DC080911004909111043D
:10223000A0911204B09113048A8F9B8FAC8FBD8F35
:1022400080E28F8B81E001C080E0DF91CF911F9110
:102250000F91FF90EF90DF90CF90BF90AF909F9045
:102260007F906F900895BC01E091820FF091830FF1
:102270000280F381E02D82E89FE009950895DF93C5
:10228000CF930F92CDB7DEB7898382E89FE0BE017E
:102290006F5F7F4F41E050E00E94FBAA0F90CF910B
:1022A000DF9108950F932AE000E00E94A7AC0F9100
:1022B00008950F931F93CF93DF93EC018B0141E0BF
:1022C00082DE882329F4CE01B80140E07CDE01C023
:1022D00081E0DF91CF911F910F910895FC0123813F
:1022E000222311F00C94133D089540E050E0BA0110
:1022F0000C941E3C21EB33E0FC0121933193CF0180
:10230000EDCFFC01148A178A81EB93E0938B828BCB
:1023100013AA16AA92AB81ABDF01A05BBF4F1C9240
:10232000DF01AD5ABF4F1C92DF01A25BBF4F8D93FF
:102330009C93DF01A359BF4F1C92DF01A059BF4FEF
:102340001C92DF01A559BF4F8D939C93DF01A757C6
:10235000BF4F29E12C93DF01A457BF4F1C92DF012F
:10236000AC55BF4F1C92DF01A355BF4F1C92DF013C
:10237000A055BF4F1C92DF01A555BF4F8D939C9375
:10238000DF01A853BF4F1D921D921D921C921397FF
:10239000DF01A053BF4F1D921D921D921C921397F7
:1023A000118212821082DF01AC52BF4F81E08C9308
:1023B000118A108A0FB6F89420917D0F30917E0F0C
:1023C00040917F0F5091800F0FBEE453FF4F28576D
:1023D0003C4E4F4F5F4F2083318342835383089598
:1023E000A62FB72FE82FF92F20E03EE24C91403284
:1023F00029F0283009F431934C9141932F5F1196C5
:102400002B30A1F7108208952F923F924F925F9246
:102410006F927F928F929F92AF92BF92CF92DF92F4
:10242000EF92FF920F931F93DF93CF93CDB7DEB759
:10243000CB58D0400FB6F894DEBF0FBECDBF7C01A5
:102440001B014A01CE57DF4F1882C258D04082E0AC
:1024500090E0880E991E8E010E591F4FF70133969A
:10246000C957DF4FF983E883C758D040C7018B5263
:102470009F4FCD57DF4F99838883C358D040F701D2
:10248000E952FF4FCB57DF4FF983E883C558D0405F
:102490005E010894A11CB11C3EE0C32ED12CCC0ED1
:1024A000DD1E25E4422E512C4C0E5D1EC20102960B
:1024B000C757DF4F99838883C958D040E3EEF0E0D7
:1024C0009491C557DF4F9883CB58D0403701EEC069
:1024D000F801438550E0CA01887190708031910500
:1024E00009F0ECC0CD57DF4FE881F981C358D040E7
:1024F000208131812130310509F4E0C022303105DD
:1025000009F4DCC0C501B8016BDF1E86F1018081D2
:10251000882329F4C60160E071E00E9411B8C60169
:10252000B1010E9411B8C601B5010E9411B8C601DF
:1025300060E071E00E9411B81AA61DA681EB93E03D
:1025400099A788A7CE018A96B401A50121E00E942F
:10255000403F882329F5CD57DF4FE881F981C358E3
:10256000D040808191810097D9F4C557DF4F888191
:10257000CB58D04093EEE92E90E0F92E06C07FDED6
:102580000894E11CF11CF70184918823C1F782E0D3
:1025900091E069DE8AE073DEC50165DE8AE06FDE08
:1025A000C757DF4FA881B981C958D040FE01BA96FC
:1025B0008BE101900D928150E1F781EB93E0F20104
:1025C00091838083C301B601A2011EDFC20192DEA6
:1025D000CE0188968FDE6AC0253E09F467C02E3290
:1025E00009F464C02F3509F461C043FD5FC021E0E8
:1025F0008031910509F020E0F3012787222349F477
:10260000F8018085873409F051C081858E3709F43F
:102610004DC0C957DF4F88819981C758D040B80154
:10262000DFDECD57DF4FE881F981C358D04080818C
:102630009181009761F4C10116DEC957DF4F88818F
:102640009981C758D0400FDE8AE019DE2FC0813053
:10265000910561F4CB57DF4FE881F981C558D0402F
:102660008081918101969183808320C08230910581
:10267000E9F4CE57DF4FF881C258D0402F2F30E019
:10268000CB57DF4FE881F981C558D04080819181D7
:1026900028173907C1F0CE57DF4FF881C258D04014
:1026A000FF5FCE57DF4FF883C258D040C401B80156
:1026B0000E94AE3B18160CF40BCF05C0F801208128
:1026C000222309F089CFC557DF4F0FB6F894DEBF3C
:1026D0000FBECDBFCF91DF911F910F91FF90EF9073
:1026E000DF90CF90BF90AF909F908F907F906F9032
:1026F0005F904F903F902F900895EF92FF920F932D
:102700001F93DF93CF93CDB7DEB76D970FB6F894D5
:10271000DEBF0FBECDBF8C01FC01EB52FF4F11821B
:10272000108244E1E42EF12CE80EF91EC701DDDD34
:10273000DE011396F7018BE101900D928150E1F7D4
:1027400081EB93E09A838983C80165E171E08E0192
:102750000F5F1F4FA80158DEC801CCDD6D960FB684
:10276000F894DEBF0FBECDBFCF91DF911F910F91C7
:10277000FF90EF900895EF92FF920F931F93CF93E6
:10278000DF938C01FC0112828789882321F0C80124
:1027900044960E94133D58E8E52EF12CE00EF11E00
:1027A000C70160E04AE10E940A988823B9F4E3EE89
:1027B000F0E08491EF0104C062DD2196FE01849176
:1027C0008823D1F7E1E2F2E08491EF0104C057DD04
:1027D0002196FE0184918823D1F756C0E801C357A2
:1027E000DF4FCE01B70165DD8823B9F4EEEFF0E0ED
:1027F0008491EF0104C043DD2196FE01849188237A
:10280000D1F7EEE0F2E08491EF0104C038DD2196CB
:10281000FE0184918823D1F737C0C8014496BE01D8
:102820000E94113A8823B9F4EEEFF0E08491EF01B1
:1028300004C025DD2196FE0184918823D1F7EEEFB7
:10284000F1E08491EF0104C01ADD2196FE0184912C
:102850008823D1F719C081E0F8018283E3EEF0E02C
:102860008491EF0104C00BDD2196FE018491882341
:10287000D1F7E3EFF1E08491EF0104C000DD219690
:10288000FE0184918823D1F78AE0F9DCD801D39640
:10289000F80174968BE101900D928150E1F7C80127
:1028A0004296F80190AB87A7DF91CF911F910F91CE
:1028B000FF90EF900895DC01D396FC0174962BE114
:1028C00001900D922150E1F79C012F5C3F4FFC01DC
:1028D00030AB27A70895FC01118212820895FC01F4
:1028E0008281882311F081E081830895FC01818138
:1028F0008111118208952F923F924F925F926F92B1
:102900007F928F929F92AF92BF92CF92DF92EF927F
:10291000FF920F931F93DF93CF93CDB7DEB7AB97A3
:102920000FB6F894DEBF0FBECDBF7C015B014BA795
:10293000FC018281882309F45AC17DEA472E512C7B
:102940004E0C5F1CC2010E94133DF7011182188AD0
:102950001B8A81EB93E09F878E87C701429690ABDD
:1029600087A7F50180818F3209F06BC0C5016FE246
:1029700070E00E941CB86C010894C11CD11C4E016F
:102980000894811C911C6EE0262E312C2C0E3D1ECD
:1029900053C0C6016FE270E00E941CB83C01009772
:1029A00009F457C0C816D90608F053C08C010C1999
:1029B0001D09C401B601A8010E943CB8F401E00F52
:1029C000F11F1082C4014FDC8AE059DCF70167A5D2
:1029D00070A96115710519F06E5F7F4F02C060E04C
:1029E00070E0CE014096A40121E00E94403F882380
:1029F000E1F4EFEDF1E084918F0105C040DC0F5F61
:102A00001F4FF80184918823C9F7CE0101962BDC72
:102A1000EDEDF1E084918F0105C031DC0F5F1F4FB8
:102A2000F80184918823C9F7C4C0F70130AA27A60A
:102A300063010894C11CD11CC114D10409F0A9CFB1
:102A400005C0C701C196F70190AB87A70A2DCB2C13
:102A500002C00C2DCD2CF70167A570A9FBA5FF23A3
:102A600009F47BC06115710519F06E5F7F4F02C0DC
:102A700060E070E0C201402F5C2D21E00E94403FE9
:102A8000882309F44DC0F701E853FF4FD701A25442
:102A9000BF4F8D919D910D90BC91A02D808391830E
:102AA000A283B383E0EDF1E084915F0106C0E7DB30
:102AB0000894A11CB11CF50184918823C1F7802FD3
:102AC0009C2DD1DBE9ECF1E084915F0106C0D7DBFE
:102AD0000894A11CB11CF50184918823C1F7F7016A
:102AE000E853FF4F408151816281738182E89FE00A
:102AF000D9DB8AE0C4DBF701E053FF4F108211827B
:102B000012821382EBEBF1E084917F0106C0B7DB08
:102B10000894E11CF11CF70184918823C1F75EC081
:102B2000E7EAF1E084917F0106C0A9DB0894E11C8B
:102B3000F11CF70184918823C1F7802F9C2D93DB32
:102B4000E5EAF1E084918F0105C099DB0F5F1F4F2B
:102B5000F80184918823C9F72CC06115710519F01B
:102B60006E5F7F4F02C060E070E0C201402F5C2DBD
:102B700026E50E94403F8823F9F4E1E9F1E08491E1
:102B80007F0106C07CDB0894E11CF11CF7018491F5
:102B90008823C1F7802F9C2D66DBEFE8F1E084915C
:102BA0008F0105C06CDB0F5F1F4FF80184918823F4
:102BB000C9F78AE064DB18C081E0F7018083EDE7A4
:102BC000F1E084917F0106C05ADB0894E11CF11CFE
:102BD000F70184918823C1F7C50145DB8AE04FDB0B
:102BE000802F9C2D0E942C49CE010E9683DBAB9644
:102BF0000FB6F894DEBF0FBECDBFCF91DF911F910E
:102C00000F91FF90EF90DF90CF90BF90AF909F908B
:102C10008F907F906F905F904F903F902F9008958E
:102C20002F923F924F925F926F927F928F929F92DC
:102C3000AF92BF92CF92DF92EF92FF920F931F93CA
:102C4000DF93CF93CDB7DEB7AA970FB6F894DEBF68
:102C50000FBECDBF7C013B01FC018281882309F4BA
:102C6000D5C0C70183559F4F0E94133DF7011182C4
:102C7000188A1B8A81EB93E09F878E87C701429653
:102C800090AB87A7F30180818F3209F06FC0C30139
:102C90006FE270E00E941CB86C010894C11CD11C4A
:102CA0005E010894A11CB11CFEE04F2E512C4C0E6D
:102CB0005D1EE0E12E2E312C2C0E3D1E52C0C601B1
:102CC0006FE270E00E941CB84C01009709F456C0F6
:102CD000C816D90608F052C08C010C191D09C5018F
:102CE000B601A8010E943CB8F501E00FF11F108267
:102CF000C501B9DA8AE0C3DAF70167A570A96115E1
:102D0000710519F06E5F7F4F02C060E070E0C10195
:102D1000A50121E00E94403F8823E1F4E9E6F1E0CB
:102D200084918F0105C0ABDA0F5F1F4FF8018491CA
:102D30008823C9F7CE01019696DAE7E6F1E084919F
:102D40008F0105C09CDA0F5F1F4FF8018491882323
:102D5000C9F757C0F70150AA47A664010894C11CDF
:102D6000D11CC114D10409F0AACF05C0C701C19676
:102D7000F70190AB87A7A62CC72C02C0AC2CCD2C9A
:102D8000F70187A590A9009711F0029602C080E094
:102D900090E06A2D7C2D0E9404408823B9F0E9E57B
:102DA000F1E084918F0105C06ADA0F5F1F4FF801CF
:102DB00084918823C9F78A2D9C2D55DAF701E053B9
:102DC000FF4F10821182128213821DC0E1E4F1E0F4
:102DD00084918F0105C053DA0F5F1F4FF801849172
:102DE0008823C9F78A2D9C2D3EDAEFE3F1E0849128
:102DF0008F0105C044DA0F5F1F4FF80184918823CB
:102E0000C9F78AE03CDACE010E9674DAAA960FB6BC
:102E1000F894DEBF0FBECDBFCF91DF911F910F9110
:102E2000FF90EF90DF90CF90BF90AF909F908F90EA
:102E30007F906F905F904F903F902F9008950F93E9
:102E40001F93CF93DF93EC018A81882361F1EDE238
:102E5000F1E084918F0105C012DA0F5F1F4FF80176
:102E600084918823C9F7FE01E053FF4F40815181CF
:102E70006281738182E89FE015DAEBE2F1E08491F0
:102E80008F0105C0FCD90F5F1F4FF8018491882383
:102E9000C9F7C853DF4F488159816A817B8182E835
:102EA0009FE000DA0BC0EBE1F1E08491EF0104C098
:102EB000E6D92196FE0184918823D1F78AE0DFD9F3
:102EC000DF91CF911F910F910895CF92DF92EF92F2
:102ED000FF920F931F93CF93DF936C018B01EB0154
:102EE00009900020E9F72197C61BD70BFC01E35599
:102EF000FF4F1082CB016EE470E00E941CB87C0191
:102F0000009721F42197C00FD11F0EC060E270E03E
:102F10000E941CB88C010F5F1F4FC7016AE270E06E
:102F20000E941CB8EC0121978DE089838AE08A8396
:102F30001B82C60185559F4FB8010E948F96F601EE
:102F4000E355FF4F80818823C1F0EEEFF0E08491DC
:102F5000EF0104C094D92196FE0184918823D1F712
:102F6000E5E0F1E08491EF0104C089D92196FE01EA
:102F700084918823D1F78AE082D9DF91CF911F9184
:102F80000F91FF90EF90DF90CF9008953F924F9276
:102F90005F926F927F928F929F92AF92BF92CF92E9
:102FA000DF92EF92FF920F931F93DF93CF93CDB7F2
:102FB000DEB7CC55D0400FB6F894DEBF0FBECDBF04
:102FC0008C016623F9F4FC01EC52FF4F80818823C9
:102FD00009F4E5C00FB6F89480917D0F90917E0FB3
:102FE000A0917F0FB091800F0FBEF801E453FF4F07
:102FF0002081318142815381281739074A075B07B5
:1030000008F4CDC0F801EC52FF4F1082D80112969F
:103010008C911297882339F4C801ADDBF8018281C5
:10302000882309F4BCC000D000D000D0EDB7FEB7B3
:1030300031967E010894E11CF11CADB7BEB7129623
:10304000FC92EE92119786E191E093838283D801FE
:1030500050968D919C915197958384830E9465B879
:10306000EDB7FEB736960FB6F894FEBF0FBEEDBFB4
:10307000CC24DD2457010AC0D7018C91992787FD04
:1030800090950E94DBB7F70181937F01C601F5019E
:1030900001900020E9F73197EA19FB090894C11C57
:1030A000D11C8E179F0744F384E1682E712C600EAB
:1030B000711EC3011AD93324BDE3AB2EB12CAC0E63
:1030C000BD1E4E010894811C911CAFE14A2E512C6B
:1030D0004C0E5D1E48C0D7018C9190E00E94DBB77A
:1030E000F70181937F01C601F50101900020E9F706
:1030F0003197EA19FB090894C11CD11C8E179F0750
:1031000054F327968FAD27978E3769F1C501B40127
:1031100045E050E00E942EB8009729F500D000D07D
:1031200000D0EDB7FEB73196ADB7BEB712965C9240
:103130004E9211978FE191E09383828395828482EE
:103140000E9465B8ADB7BEB716960FB6F894BEBF6D
:103150000FBEADBFC2010E947C4586E291E00E9495
:103160007C4533243394C301B5010E94AE3B18164D
:1031700024F47501CC24DD24B6CF332031F48FEF55
:103180009FEFF801918B808B0AC0D80150968D91EA
:103190009C915197019651969C938E935097C45A47
:1031A000DF4F0FB6F894DEBF0FBECDBFCF91DF91DA
:1031B0001F910F91FF90EF90DF90CF90BF90AF9055
:1031C0009F908F907F906F905F904F903F90089569
:1031D0000F931F93CF93DF93EC018C0103551F4F87
:1031E000C8010E94C93CC8010E94133D1882DF91AA
:1031F000CF911F910F9108950F931F93DF93CF935A
:10320000CDB7DEB76D970FB6F894DEBF0FBECDBF5A
:103210008C01C196D801D0969C938E939F97F8010C
:10322000EB52FF4F82E090E091838083F801E952F6
:10323000FF4F60831182C801C39657D8D8019F966B
:10324000ED91FC91D097DE01139632968BE10190BF
:103250000D928150E1F781EB93E09A838983C80155
:1032600065E171E08E010F5F1F4FA801CDD8C80145
:1032700041D86D960FB6F894DEBF0FBECDBFCF918B
:10328000DF911F910F910895EF92FF920F931F937B
:10329000DF93CF93CDB7DEB76D970FB6F894DEBF4F
:1032A0000FBECDBF7C01C196D701D0969C938E9363
:1032B0009F97F701EB52FF4F81E090E0918380836D
:1032C000F701E952FF4F11821082C701C3960DD852
:1032D000D7019F96ED91FC91D097DE01139632961F
:1032E0008BE101900D928150E1F781EB93E09A839D
:1032F0008983C70165E171E08E010F5F1F4FA8014F
:1033000083D8C8010E947A11F701E952FF4F8081EA
:1033100091816D960FB6F894DEBF0FBECDBFCF91F1
:10332000DF911F910F91FF90EF900895CF92DF9260
:10333000EF92FF920F931F93DF93CF93CDB7DEB73A
:103340006D970FB6F894DEBF0FBECDBF8C016B0139
:103350001B821E8281EB93E09A838983F80186A900
:10336000882321F422E1E22EF12C03C091E3E92E1F
:10337000F12CE00EF11EB7016E5F7F4FCE01039678
:10338000A60121E00E94403F882309F5E3EEF0E02A
:1033900084918F0106C00E943F110F5F1F4FF801FB
:1033A00084918823C1F7E9EEF0E084918F0106C093
:1033B0000E943F110F5F1F4FF80184918823C1F7CE
:1033C000C6010E9433118AE00E943F111EC0D8013D
:1033D000A359BF4FF801E05BFF4F8BE101900D92C5
:1033E0008150E1F7D801A05BBF4FF70132968BE126
:1033F00001900D928150E1F7D801D396FE013396EA
:103400008BE101900D928150E1F7CE0101960E946F
:103410007A116D960FB6F894DEBF0FBECDBFCF9177
:10342000DF911F910F91FF90EF90DF90CF90089563
:10343000FC0126A922502230A0F0DC01D396E05BEB
:10344000FF4F2BE101900D922150E1F7DC01A05BD1
:10345000BF4FFC01E359FF4F8BE101900D9281506A
:10346000E1F70895CF93DF93EC010E9422380E9488
:103470009A3819828AE291E00E947C4580915B062D
:103480008823B1F110925B0660918D0CE62FF0E07D
:10349000EE0FFF1FE456F14F808191810E946D9ADB
:1034A0002091B1023091B2024091B3025091B40226
:1034B0000E9404B31816E4F460918D0CC62FD0E07E
:1034C00080E090E00E946A99FE01EE0FFF1FE45633
:1034D000F14F91838083CC0FDD1FCC0FDD1FCC55C6
:1034E000D14F80E090E0DC0188839983AA83BB837D
:1034F000DF91CF9108952F923F924F925F926F92FA
:103500007F928F929F92AF92BF92CF92DF92EF9273
:10351000FF920F931F93DF93CF93CDB7DEB7C055C4
:10352000D0400FB6F894DEBF0FBECDBF4C017A8FEE
:10353000698F3A012AA70EABEFAAA8AEB9AECAAE00
:10354000DBAE022F10E0000F111F000F111F9301BF
:10355000200F311F3BAB2AABD9012D903D904D90F0
:103560005C90FC01E00FF11FC201B10120813181AB
:10357000428153810E9428B06CAF7DAF8EAF9FAF68
:10358000BEA9EB2EFF24EE0CFF1CEE0CFF1CF3017A
:10359000EE0DFF1DFDABECABA080B180C280D380EF
:1035A000F401EE0DFF1DC601B5012081318142817C
:1035B00053810E9428B021966FAF219722967FAF4A
:1035C000229723968FAF239724969FAF2497FFA926
:1035D0008F2F90E0880F991F880F991FF401E80F33
:1035E000F91F20813181428153812B8F3C8F4D8F78
:1035F0005E8F498D5A8D840F951FDC016D917D91F1
:103600008D919C912B8D3C8D4D8D5E8D0E9427B0B0
:10361000262F372F482F592F2F8F38A349A35AA36E
:10362000E98DFA8D3C962996FFAFEEAF2997A98DCB
:10363000BA8D1C962D913D914D915C911F972EA7AF
:103640003FA748AB59ABD4011C962D913D914D91AC
:103650005C911F972BA33CA34DA35EA3A2019101F4
:103660005058298B3A8B4B8B5C8B1501260157FAEE
:10367000509457F85094E98DFA8DE00FF11F608156
:10368000718182819381BCADADADFEADEFAD2B2FCD
:103690003A2F4F2F5E2F0E9427B0B62EA72E882ECE
:1036A000692EE98DFA8DEE0DFF1D60817181828199
:1036B00093812196BFAD21972296AFAD2297239695
:1036C000FFAD23972496EFAD24972B2F3A2F4F2F42
:1036D0005E2F0E9427B0F62E072F182FE92E69893A
:1036E0007A898B899C892F2D302F412F5E2D0E9446
:1036F000D6B36D8B7E8B8F8B988FC201B101D501B4
:103700002B2F3A2F482D562D0E94D6B39B01AC018A
:103710006D897E898F89988D0E9427B06D8B7E8BF5
:103720008F8B988F69897A898B899C89D5012B2FFA
:103730003A2F482D562D0E94D6B35B016C01C20171
:10374000B1012F2D302F412F5E2D0E94D6B39B014A
:10375000AC01C601B5010E9428B09B01AC016D8986
:103760007E898F89988D0E949BB0162FE72E082F97
:10377000F92E20E030E0A9010E9401B187FF0EC0C0
:10378000612F7E2D802F9F2D2BED3FE049EC50E4E3
:103790000E9428B0162FE72E082FF92EAA968FAD7B
:1037A000AA97882371F0612F7E2D802F9F2D2BEDFE
:1037B0003FE049EC50E40E9427B0162FE72E082F77
:1037C000F92E612F7E2D802F9F2DA9962CAD3DAD1A
:1037D0004EAD5FADA9970E94D6B32F8D38A149A1F8
:1037E0005AA15F770E9411B35B016C012FE632E1B1
:1037F00043E85AE30E9401B187FDA4C2C601B501A6
:103800000E94DEB10E9475B17DA76CA7611571059C
:1038100021F481E090E09DA78CA7ACA5BDA5BD01DA
:1038200080E090E00E94A1B15B016C01612F7E2DD0
:10383000802F9F2DA60195010E9408B16D8B7FA35B
:1038400088A799A76F8D78A189A19AA1A601950152
:103850000E9408B12A966FAF2A972B967FAF2B97BD
:103860002C968FAF2C972D969FAF2D976EA57FA589
:1038700088A999A92BA13CA14DA15EA10E9427B0C6
:10388000A60195010E9408B12E966FAF2E972F9634
:103890007FAF2F9760968FAF609761969FAF6197CC
:1038A0005D894FA138A529A5652F742F832F922FED
:1038B00020E030E040E05FE30E94D6B3BD89AFA1D5
:1038C000F8A5E9A52B2F3A2F4F2F5E2F0E94D6B3D4
:1038D0009B01AC0160E070E080E89FE30E9427B0AC
:1038E0006EA725967FAF259726968FAF26972796AA
:1038F0009FAF2797BFA9EB2FF0E0EE0FFF1FEE0F52
:10390000FF1FCE010196E80FF91F2B8D3C8D4D8DC9
:103910005E8D20833183428353832BA13CA14DA133
:103920005EA12D873E874F87588BBB2441E050E036
:103930005CA34BA3BAA5AB2FB0E0AA0FBB1FAA0F85
:10394000BB1F9C012A0F3B1F3C8F2B8F5EA9452F6D
:1039500050E0440F551F440F551F81E090E08C0F3D
:103960009D1F840F951F98A38F8FFBA7EAA7CAC13D
:103970009B2D99310CF068C069897A898B899C8963
:10398000BD89AFA1F8A5E9A52B2F3A2F4F2F5E2FA8
:103990000E94D6B37B018C01C201B101BEA5259660
:1039A000AFAD25972696FFAD26972796EFAD2797C3
:1039B0002B2F3A2F4F2F5E2F0E94D6B39B01AC01C5
:1039C000C801B7010E9428B0D62EA72E882E692ED6
:1039D00069897A898B899C89BEA52596AFAD259783
:1039E0002696FFAD26972796EFAD27972B2F3A2FD8
:1039F0004F2F5E2F0E94D6B3162F072FF82EE92ED9
:103A0000C201B101BD89AFA1F8A5E9A52B2F3A2FBD
:103A10004F2F5E2F0E94D6B39B01AC01D801F70156
:103A20006B2F7A2F8F2F9E2F0E9427B0262F372F94
:103A3000482F592F298B3A8B4B8B5C8BB3942D2CB1
:103A40003A2C482C562C6AC0ABA1BCA1BD0180E029
:103A500090E00E94A1B1BD89AFA1F8A5E9A52B2FE7
:103A60003A2F4F2F5E2F0E94D6B37B018C017F2D02
:103A7000912F0E9405B11B012C016E2D7F2D802FEF
:103A8000912F0E9439B45B016C01EAA9FBA9E08087
:103A9000F1800281138117FB109517F91095ACA9DD
:103AA000BDA96D907D908D909C90C801B701A20139
:103AB00091010E94D6B3698B7A8B8B8B9C8BC4014E
:103AC000B301A60195010E94D6B39B01AC0169899F
:103AD0007A898B899C890E9428B0262F372F482FFE
:103AE000592F298B3A8B4B8B5C8BC801B701A601F0
:103AF00095010E94D6B37B018C01C401B301A201E0
:103B000091010E94D6B39B01AC01C801B7010E948C
:103B100027B0262E372E482E592EBB245CAD4DAD36
:103B20003EAD2FAD652F742F832F922F29893A89AF
:103B30004B895C890E9428B0EB8DFC8D608371837A
:103B40008283938321965FAD219722964FAD229772
:103B500023963FAD239724962FAD2497652F742F7E
:103B6000832F922FA20191010E9428B0AF8DB8A19E
:103B70006D937D938D939C931397EAA5FBA560812C
:103B80007181828193812A96BFAD2A972B96AFAD22
:103B90002B972C96FFAD2C972D96EFAD2D972B2FB5
:103BA0003A2F4F2F5E2F0E9428B0AAA5BBA56D9378
:103BB0007D938D939C9313976D857E858F859889D2
:103BC0002E96BFAD2E972F96AFAD2F976096FFAD77
:103BD00060976196EFAD61972B2F3A2F4F2F5E2F95
:103BE0000E9428B06D877E878F87988B69817A8144
:103BF0008B819C8120E030E0A9010E9401B187FF08
:103C000007C080E090E0DC0189839A83AB83BC83AA
:103C10006D817E818F81988520E030E0A9010E942E
:103C200001B187FF07C080E090E0DC018D839E83B7
:103C3000AF83B88769857A858B859C8520E030E0E5
:103C4000A9010E9401B187FF07C080E090E0DC017C
:103C500089879A87AB87BC8769817A818B819C81B0
:103C600020E030E04DE453E40E9404B3181644F41D
:103C700080E090E0ADE4B3E489839A83AB83BC83B6
:103C80006D817E818F81988520E030E04DE453E4A2
:103C90000E9404B3181644F480E090E0ADE4B3E46D
:103CA0008D839E83AF83B88769857A858B859C8554
:103CB00020E030E048E453E40E9404B3181644F4D2
:103CC00080E090E0A8E4B3E489879A87AB87BC875B
:103CD000CE010196BE016B5F7F4FAE01475F5F4F24
:103CE0009E01235F3F4FE8ACF9AC0AAD1BADFAE68D
:103CF000CF2ED12CCC0EDD1E6FD6EBA1FCA13196C0
:103D0000FCA3EBA32BA13CA14CA55DA52417350773
:103D100008F42ECE698D7A8D6C5F7F4F498D5A8D58
:103D2000485F5F4F898D9A8D29962EAD3FAD2997BB
:103D3000E8ACF9AC0AAD1BADEAE6CE2ED12CCC0E28
:103D4000DD1E4AD6C05BDF4F0FB6F894DEBF0FBE54
:103D5000CDBFCF91DF911F910F91FF90EF90DF903A
:103D6000CF90BF90AF909F908F907F906F905F901B
:103D70004F903F902F900895DF93CF930F92CDB740
:103D8000DEB76983DC01ED91FC910480F581E02DC3
:103D9000BE016F5F7F4F41E050E009950F90CF91DA
:103DA000DF9108952F923F924F925F926F927F9290
:103DB0008F929F92AF92BF92CF92DF92EF92FF923B
:103DC0000F931F93DF93CF93CDB7DEB76A970FB6EC
:103DD000F894DEBF0FBECDBF9A8F898F3A014B0199
:103DE00078018901DC01D8966D917D918D919C912E
:103DF000DB970E94A1B15B016C01A40193010E94B9
:103E0000D6B30E94EEB00E9475B1262F372F482FEF
:103E1000592F2D873E874F87588BC601B501A801C2
:103E200097010E94D6B30E94EEB00E9475B19B012B
:103E3000AC01298B3A8B4B8B5C8B8D859E85AF8536
:103E4000B88988379105A105B10540F488E790E06D
:103E5000A0E0B0E08D879E87AF87B88B283731050B
:103E60004105510540F428E730E040E050E0298B5F
:103E70003A8B4B8B5C8BE98DFA8DEC5BFF4F60804E
:103E8000718082809380A98DBA8DDC966D917D9131
:103E90008D919C91DF970E94A1B16D837E838F836A
:103EA0009887C401B3010E94A3B11B012C0120E03B
:103EB00030E0A9010E9401B1882329F1C601B501B2
:103EC000A60195010E94D6B37B018C016D817E8194
:103ED0008F8198859B01AC010E94D6B39B01AC01F8
:103EE000C801B7010E9427B07B018C01C201B1015A
:103EF000A20191010E9428B09B01AC01C801B70149
:103F00000E9408B104C060E070E080E090E00E9490
:103F1000EEB00E9470B169837A838B839C83E980C1
:103F2000FA800B811C81E98DFA8DE05CFF4F608186
:103F30007181828193810E94A1B169877A878B8781
:103F40009C8766277727CB01661977098809990925
:103F50000E94A3B13B014C0120E030E0A9010E9486
:103F600001B1882349F169857A858B859C859B0100
:103F7000AC010E94D6B36D8B7E8B8F8B988FC60160
:103F8000B501A60195010E94D6B39B01AC016D89D4
:103F90007E898F89988D0E9427B05B016C01C401D6
:103FA000B301A40193010E9428B09B01AC01C6019A
:103FB000B5010E9408B104C060E070E080E090E0CC
:103FC0000E94DEB1E98DFA8DA088B188C288D388BD
:103FD0003501460129813A814B815C81621A730A5D
:103FE000840A950A0E9470B1A4019301261B370B25
:103FF000480B590BDA01C90157FF68C0C201B10172
:1040000020E030E0A9010E9401B1882309F443C0F7
:10401000C201B101A20191010E9428B07B018C0173
:10402000C601B5010E94A1B19B01AC01C801B70155
:104030000E94D6B37B018C016D817E818F81988532
:104040009B01AC010E94D6B39B01AC01C801B70132
:104050000E9427B07B018C0169857A858B859C85C0
:104060009B01AC010E94D6B39B01AC01C801B70112
:104070000E9428B07B018C01C201B10120E030E038
:1040800040E850E40E94D6B39B01AC01C801B701DF
:104090000E9408B104C060E070E080E090E00E94FF
:1040A000EEB00E9470B1E62EF72E082F192F17FFE1
:1040B00003C0EE24FF248701EA14FB040C051D0550
:1040C00010F08601750180E090E0DC012FB7F894D4
:1040D000E98DFA8DE45BFF4F3081332311F5E98DD3
:1040E000FA8DE48AF58A068B178BE80EF91E0A1FF3
:1040F0001B1FE08EF18E028F138F8D859E85AF85FD
:10410000B88984AF95AFA6AFB7AFAF01405C5F4F42
:1041100089899A89AB89BC89FA0180839183A283BA
:10412000B3832FBF6A960FB6F894DEBF0FBECDBF24
:10413000CF91DF911F910F91FF90EF90DF90CF9083
:10414000BF90AF909F908F907F906F905F904F90B7
:104150003F902F9008959F92AF92BF92CF92DF929F
:10416000EF92FF920F931F93CF93DF93EB017A01AE
:10417000209709F46EC04115510509F46AC01AA5CB
:10418000BBA4ACA49DA46EA17FA188A599A5212F55
:104190003B2D4A2D592D0E9401B1882309F459C0A5
:1041A0008FA9882309F047C0F701C6A0D7A0E0A4D3
:1041B000F1A4612F7B2D8A2D992DA70196010E94D4
:1041C00004B31816C4F5C701B601A70196010E94F1
:1041D000D6B36B017C012AA93BA94CA95DA9505813
:1041E000CA01B9010E9428B02EA53FA548A959A926
:1041F0000E94D6B39B01AC01C701B6010E9427B053
:104200000E9443B4C62E072FF82EE92E612F7B2D76
:104210008A2D992DF7012C2D302F4F2F5E2F0E94C4
:1042200001B187FF04C0C12E0B2DFA2CE92C5C2DA7
:10423000402F970104C0512F4B2D3A2D292D852F4A
:10424000942FA32FB22F8EA39FA3A8A7B9A781E075
:104250008EABDF91CF911F910F91FF90EF90DF9088
:10426000CF90BF90AF909F900895AF92BF92CF92A2
:10427000DF92FF920F931F93DF93CF930F92CDB7EF
:10428000DEB780912C0B8FB7F894F0902D0B8FBF79
:1042900080912C0B90E040968F1991098F7090704F
:1042A0008430910534F120912C0B23502F7040E085
:1042B00050E000E010E08DE4C82ED12C18C022237D
:1042C00009F420E12150822F90E08C9D50018D9DBA
:1042D000B00C9C9DB00C11248CE596E0A80EB91E84
:1042E000C501B801298337DFA801850129812F1570
:1042F00031F70F90CF91DF911F910F91FF90DF90D9
:10430000CF90BF90AF9008958F929F92AF92BF923F
:10431000CF92DF92EF92FF920F931F93CF93DF9391
:10432000EC016B01009709F465C08FA9882309F09F
:1043300061C0EEA0FFA008A519A5FB01B6A0A7A02B
:1043400090A481A4C801B701D501F4012B2F3A2F05
:104350004F2F5E2F0E9401B187FF4CC0C801B701EB
:10436000A80197010E94D6B37B018C012AA93BA921
:104370004CA95DA95058CA01B9010E9428B02EA5C8
:104380003FA548A959A90E94D6B39B01AC01C80119
:10439000B7010E9427B00E9443B48B017C01A501A4
:1043A0009401652F742F832F922F202F312F4E2DA4
:1043B0005F2D0E9401B187FF04C00B2D1A2DE92C3F
:1043C000F82CA5019401652F7A2D832F982D202F8D
:1043D000312F4E2D5F2D0E9401B1882359F0802F7F
:1043E000912FAE2DBF2DF60186A397A3A0A7B1A74D
:1043F00081E086ABDF91CF911F910F91FF90EF90FD
:10440000DF90CF90BF90AF909F908F900895DF92F4
:10441000EF92FF920F931F93CF93DF93D0902D0BCA
:1044200000E010E080E090E02DE4E22EF12C16C0D8
:104430002D2D30E02E9DE0012F9DD00D3E9DD00D05
:104440001124C45AD94FB801AE015EDF8D2D8F5FA4
:10445000803109F480E0D82EC8018E0120912C0B08
:10446000D21631F7B80140E050E04EDFDF91CF9136
:104470001F910F91FF90EF90DF9008952F923F9240
:104480004F925F926F927F928F929F92AF92BF9264
:10449000CF92DF92EF92FF920F931F93CF93DF9310
:1044A000F0902D0BC0E0D0E03DE4632E712C40C0B5
:1044B000069D6001079DD00C169DD00C11248CE543
:1044C00096E0C80ED91E209769F18EA9882321F4A1
:1044D000F60186A9882331F18AA09BA0ACA0BDA0DB
:1044E0006EA17FA188A599A5A50194010E9408B19C
:1044F0001B012C01069DF001079DF00D169DF00D8E
:104500001124E45AF94F66A177A180A591A5A501D0
:1045100094010E9408B18B019C01CE01B201A1015E
:1045200041DC1EAAF394FF2DF03109F4FF24E601CB
:104530000F2D112707FD109580912C0B90E0081787
:10454000190709F0B5CF2097E9F0CAA0DBA0ECA0CD
:10455000FDA06EA17FA188A599A5A70196010E9443
:1045600008B14B015C016DEC7CEC8CE49DE3A70190
:1045700096010E9408B18B019C01CE01B501A401F6
:1045800011DC1EAADF91CF911F910F91FF90EF9048
:10459000DF90CF90BF90AF909F908F907F906F9063
:1045A0005F904F903F902F9008955FDE30DF66CF91
:1045B00010922C0B10922D0B80E1EBE4F6E0DF0162
:1045C0001D928A95E9F780E090E0DC018093330B3F
:1045D0009093340BA093350BB093360B8093370B2D
:1045E0009093380BA093390BB0933A0B80933B0B0D
:1045F00090933C0BA0933D0BB0933E0B80933F0BED
:104600009093400BA093410BB093420B80932F0BE0
:104610009093300BA093310BB093320B08952F92EF
:104620003F924F925F926F927F928F929F92AF9242
:10463000BF92CF92DF92EF92FF920F931F93CF938F
:10464000DF9380915B06882309F42CC180919C0E36
:1046500090919D0E60E00E946D9AD090B102C09042
:10466000B202B090B302A090B40220E030E040E08B
:1046700050E40E9428B0D601F5012B2F3A2F4F2F7E
:104680005E2F0E9401B187FD0DC110912D0B5524A5
:104690004424332422245EC0212F30E08DE490E0B6
:1046A000289FF001299FF00D389FF00D1124E45A46
:1046B000F94F80819181A281B3810097A105B10555
:1046C00081F484819581A681B7810097A105B10508
:1046D00041F480859185A285B3850097A105B10538
:1046E000B9F18DE490E0289FE001299FD00D389F1B
:1046F000D00D1124C45AD94F6C857D858E859F8538
:104700000E94A3B13B014C01688979898A899B8900
:104710000E94A1B19B01AC01C401B3010E9408B188
:104720002AA13BA14CA15DA10E94D6B3062FF72E72
:10473000E82E992ED201F1012B2F342D4F2F522D1F
:104740000E9404B3181624F4502E4F2C3E2C292C12
:104750001F5F1F7080912C0B181709F09DCFA201CD
:104760009101652F742D832F922D2091B5023091E8
:10477000B6024091B7025091B8020E94D6B39B0195
:10478000AC01D601F5016B2F7C2D8F2F9A2D0E9445
:1047900028B0162F072FF82EE92EA8019701652FB4
:1047A000742F832F922FD601F5012B2F3C2D4F2FE5
:1047B0005A2D0E9401B187FD02C068015701E090A7
:1047C000AD02F090AE020091AF021091B002A601CE
:1047D0009501652F7C2D832F9A2D2E2D3F2D402F57
:1047E000512F0E9404B3181624F0ED2CFC2C0B2D35
:1047F0001A2DA090430BB090440BC090450BD09065
:10480000460BC601B5012E2D3F2D402F512F0E9482
:1048100004B3181604F56E2D7F2D802F912F20E004
:1048200037ED43EA5CE30E94D6B3162F072FF82E2C
:10483000E92EC601B50128E431EE4AE75FE30E94A4
:10484000D6B3D801F7012B2F3A2F4F2F5E2F0E949E
:1048500028B07B018C018E2D9F2DA02FB12F80932E
:10486000430B9093440BA093450BB093460B6E2DD6
:104870007F2D802F912F0E9470B1DC01CB0160E071
:104880000E946A9990939D0E80939C0E8E2D9F2D71
:10489000A02FB12F8093A40E9093A50EA093A60EE7
:1048A000B093A70EDF91CF911F910F91FF90EF90E2
:1048B000DF90CF90BF90AF909F908F907F906F9040
:1048C0005F904F903F902F9008950F931F9390917A
:1048D0002D0B80912C0B981709F442C060912D0B81
:1048E000262F30E08DE490E0289FF001299FF00D05
:1048F000389FF00D1124EC55F94F108170E000E065
:104900002DE430E028C0462F50E0429FF001439F45
:10491000F00D529FF00D1124E45AF94F80859185D6
:10492000A285B3850097A105B10509F00F5F429FED
:10493000F001439FF00D529FF00D1124EC55F94FFB
:1049400080819181A281B3810097A105B10509F011
:104950007F5F6F5F6F7080912C0B6817A1F610C09E
:1049600080918E0C8823A9F13E9A90E09093990053
:10497000809398008091900080688093900029C077
:10498000002309F4479A80918E0C882361F47723E1
:1049900051F43E9A109299001092980080919000E4
:1049A00080688093900080918E0C882371F0112391
:1049B00061F03E9A812F90E0909399008093980047
:1049C0008091900080688093900029DE1F910F9164
:1049D000089510E070E0D6CF2F923F924F925F92F1
:1049E0006F927F928F929F92AF92BF92CF92DF92FF
:1049F000EF92FF920F931F93DF93CF93CDB7DEB764
:104A0000C555D0400FB6F894DEBF0FBECDBF1C0118
:104A10002B015AA349A33EA32DA36E2C9F2C580112
:104A2000DAAAC9AA80912C0B8F5F803109F480E04B
:104A3000282F332727FD309562963FAF2EAF629720
:104A400007C00E946B9B81E00E94B8490E94EC81E4
:104A500080912D0B90E062964EAD5FAD629784170A
:104A6000950779F3D1016D917D918D919C91209164
:104A7000FF053091000640910106509102060E9408
:104A8000D6B30E94A6B328966CAF7DAF8EAF9FAF12
:104A90002897F201608171818281938120910306C0
:104AA0003091040640910506509106060E94D6B347
:104AB0000E94A6B32C966CAF7DAF8EAF9FAF2C97A4
:104AC000A9A1BAA16D917D918D919C91209107062C
:104AD000309108064091090650910A060E94D6B30B
:104AE0000E94A6B360966CAF7DAF8EAF9FAF60970C
:104AF000EDA1FEA1608171818281938120910B06DD
:104B000030910C0640910D0650910E060E94D6B3CE
:104B10000E94A6B36AAF7BAF8CAF9DAF8091570662
:104B200090915806A0915906B0915A062AAD3BAD16
:104B30004CAD5DAD281739074A075B0709F444C03F
:104B400060918D0CE62FF0E0EE0FFF1FE056F14F65
:104B5000808191810E946D9A20E030E04AE253E426
:104B60000E9401B187FF30C080912E0B882361F530
:104B70004AAD5BAD6CAD7DAD409357065093580682
:104B80006093590670935A06EEE2F2E064918F0149
:104B900007C082E89FE0F0D80F5F1F4FF8016491D3
:104BA0006623B9F7E2E5F2E064918F0107C082E87D
:104BB0009FE0E2D80F5F1F4FF80164916623B9F7B9
:104BC00082E89FE06AE0D8D8809157069091580615
:104BD000A0915906B0915A062AAD3BAD4CAD5DADE2
:104BE000281B390B4A0B5B0BCA01B90157FF07C0E1
:104BF00090958095709561957F4F8F4F9F4F0E9444
:104C0000A3B17B018C0160910B0670910C06809121
:104C10000D0690910E0620E030E04DEC53E40E942A
:104C2000D6B39B01AC01C801B7010E9404B31816AA
:104C300064F54AAD5BAD6CAD7DAD409357065093C6
:104C400058066093590670935A06EEE2F2E06491BA
:104C50008F0107C082E89FE08FD80F5F1F4FF801D8
:104C600064916623B9F7E4E3F2E064918F0107C031
:104C700082E89FE081D80F5F1F4FF801649166239F
:104C8000B9F782E89FE06AE077D880912C0B282F53
:104C900030E03AA329A38DE490E0289FF001299FFA
:104CA000F00D389FF00D1124E45AF94FDF01A45B99
:104CB000BF4F1C9240914B0650914C0660914D069F
:104CC00070914E064DA35EA36FA378A728968CAD76
:104CD0009DADAEADBFAD2897841B950BA60BB70B52
:104CE000B7FF07C0B095A095909581959F4FAF4FA6
:104CF000BF4F80839183A283B38360914F067091ED
:104D00005006809151069091520669A77AA78BA709
:104D10009CA78DE490E0A9A1BAA1A89FF001A99F4A
:104D2000F00DB89FF00D1124E45AF94F2C968CAD7C
:104D30009DADAEADBFAD2C9729A53AA54BA55CA501
:104D4000821B930BA40BB50BB7FF07C0B095A095C2
:104D5000909581959F4FAF4FBF4F84839583A683D6
:104D6000B783409153065091540660915506709157
:104D700056064DA75EA76FA778AB8DE490E069A1BA
:104D80007AA1689FF001699FF00D789FF00D1124C2
:104D9000E45AF94F60968CAD9DADAEADBFAD609756
:104DA0002DA53EA54FA558A9821B930BA40BB50BAF
:104DB000B7FF07C0B095A095909581959F4FAF4FD5
:104DC000BF4F80879187A287B38720905706309086
:104DD00058064090590650905A062091D0023091C2
:104DE000D1026AAD7BAD8CAD9DAD621973098409AA
:104DF000950997FF07C090958095709561957F4FB5
:104E00008F4F9F4F442737FD4095542F0E949CB4ED
:104E100024E630E040E050E00E9404B58DE490E0EC
:104E200069A17AA1689FF001699FF00D789FF00D4C
:104E30001124E45AF94F2487358746875787C08065
:104E4000D18072816381E480F5800681178180853D
:104E50009185A285B3858E159F05A007B10714F42F
:104E6000D801C70182179307A407B50714F4DA0124
:104E7000C901FB0196014F2F562F281739074A0702
:104E80005B0714F49C01AD018DE490E0A9A1BAA1E7
:104E9000A89FF001A99FF00DB89FF00D1124E45ACE
:104EA000F94F208B318B428B538B263031054105D6
:104EB000510510F40C94F82F9F01285B3F4F80910F
:104EC0008E0C482F50E060E070E0D9014D935D9367
:104ED0006D937C93139710A228962CAD3DAD4EADEB
:104EE0005FAD28976DA17EA18FA198A526173707E2
:104EF0004807590714F481E080A32C968CAD9DAD32
:104F0000AEADBFAD2C9729A53AA54BA55CA58217E0
:104F10009307A407B50784F48DE490E049A15AA152
:104F2000489FF001499FF00D589FF00D1124E45A5D
:104F3000F94F80A1826080A360966CAD7DAD8EAD8F
:104F40009FAD60972DA53EA54FA558A96217730781
:104F50008407950784F48DE490E049A15AA1489F05
:104F6000F001499FF00D589FF00D1124E45AF94FBC
:104F700080A1846080A36AAD7BAD8CAD9DAD6215D0
:104F800073058405950584F48DE490E0A9A1BAA188
:104F9000A89FF001A99FF00DB89FF00D1124E45ACD
:104FA000F94F80A1886080A38DE490E029A13AA107
:104FB000289FF001299FF00D389FF00D1124E45A2D
:104FC000F94FA9A9BAA98C9181A380819181A2816D
:104FD000B3810097A105B10509F077988DE490E0C1
:104FE00029A13AA1289FF001299FF00D389FF00DCB
:104FF0001124E45AF94F84819581A681B7810097E5
:10500000A105B10509F076988DE490E049A15AA177
:10501000489FF001499FF00D589FF00D1124E45A6C
:10502000F94F80859185A285B3850097A105B105CB
:1050300009F047988DE490E069A17AA1689FF0019A
:10504000699FF00D789FF00D1124E45AF94F848583
:105050009585A685B7850097A105B10509F0439808
:105060008DE490E0A9A1BAA1A89FF001A99FF00D3D
:10507000B89FF00D1124E45AF94F84859585A685D3
:10508000B7850097A105B10549F4E0903706009176
:10509000380610913906F0903A0608C0E0901F06D5
:1050A0000091200610912106F0902206662D792DA0
:1050B0008A2D9B2D2E2D302F412F5F2D0E9401B167
:1050C00087FD04C0E62C092D1A2DFB2C80914B0680
:1050D00090914C06A0914D06B0914E0628962CADAD
:1050E0003DAD4EAD5FAD2897281B390B4A0B5B0BCE
:1050F000CA01B9010E94A3B12091FF0530910006B9
:1051000040910106509102060E9408B1962E872E0A
:10511000482E9DA3A401292F852F942FA42DB22FB3
:1051200089839A83AB83BC8380914F06909150060C
:10513000A0915106B09152062C962CAD3DAD4EADCE
:105140005FAD2C97281B390B4A0B5B0BCA01B901C9
:105150000E94A3B1209103063091040640910506F8
:10516000509106060E9408B169A77DA789AB99AF47
:10517000472F382F292F862F942FA32FB22F8D83BF
:105180009E83AF83B8878091530690915406A09177
:105190005506B091560660962CAD3DAD4EAD5FAD57
:1051A0006097281B390B4A0B5B0BCA01B9010E949F
:1051B000A3B120910706309108064091090650914D
:1051C0000A060E9408B1562E272E382E9DAB292F95
:1051D000862F922DA32DB22F89879A87AB87BC8704
:1051E0006090D0027090D10280915706909158063D
:1051F000A0915906B0915A062AAD3BAD4CAD5DADBC
:10520000281B390B4A0B5B0BCA01B9010E94A3B1E1
:1052100020910B0630910C0640910D0650910E0620
:105220000E9408B15B016C01B301882777FD80956E
:10523000982F0E94A3B19B01AC01C601B5010E9449
:10524000D6B320E030E048EC52E40E9408B1262FAB
:10525000372F482F592F6D877E878F87988B8DE446
:1052600090E069A17AA1689FF001699FF00D789F95
:10527000F00D1124E45AF94F80819181A281B3810C
:1052800086309105A105B105C4F484819581A6817C
:10529000B78186309105A105B1057CF480859185A3
:1052A000A285B38586309105A105B10534F45F77F9
:1052B00026A737A740AB51AB3CC0A4012DA1652F59
:1052C000782D842D922F0E9481B45B016C0159A529
:1052D0004DA539A929AD652F742F832F922F0E94D8
:1052E00081B43B014C012DA9652D722D832D922F88
:1052F0000E9481B41B012C01C601B501A4019301D8
:105300000E9428B0A20191010E9428B00E9443B4DB
:105310002DE430E0A9A1BAA1A29FF001A39FF00D56
:10532000B29FF00D1124E45AF94F66A777A780AB1E
:1053300091AB8DE490E029A13AA1289FF001299F2B
:10534000F00D389FF00D1124E45AF94F46A557A5EA
:1053500060A971A94DAB5EAB6FAB78AF60E070E058
:1053600080E89FE32DA93EA94FA958AD0E9408B13E
:105370009B01AC016E2D702F812F9F2D0E94D6B303
:1053800069A77DA789AB99AF90912C0B80912D0BCC
:10539000692F70E0605F7F4F681B71096F707070DC
:1053A0007EA36DA360E074E284E799E4B9A5ADA59E
:1053B000F9A9E9AD2B2F3A2F4F2F5E2F0E9408B18C
:1053C0000E94A6B3962E672E882E492E8DA19EA1EF
:1053D000823091050CF446C05C01CC24B7FCC0942B
:1053E000DC2CC601B5010E94A3B120E030E040E012
:1053F00051E40E9401B187FF35C0E92CF62C082D3D
:10540000142D6091EB057091EC058091ED05909164
:10541000EE05E616F7060807190720F56E197F094D
:10542000800B910B660F771F881F991FA6019501AE
:105430000E94E2B4CA01B9010E94A1B10E94A6B3C0
:105440006E0D7F1D801F911F0E94A1B19B01AC01B9
:1054500060E074E284E799E40E9408B169A77DA73F
:1054600089AB99AF8DE490E0A9A1BAA1A89F800172
:10547000A99F100DB89F100D1124045A194F6DA942
:105480007EA98FA998ADB9A5ADA5F9A9E9AD2B2F36
:105490003A2F4F2F5E2F0E94D6B3F80162A373A359
:1054A00084A395A360897189828993890E94A1B19F
:1054B000B9A5ADA5F9A9E9AD2B2F3A2F4F2F5E2F36
:1054C0000E94D6B30E94EEB00E9475B1D801D89662
:1054D0006D937D938D939C93DB97FE013196FEAB8C
:1054E000EDAB8E010F5E1F4F2FEE35E022963FAFE2
:1054F0002EAF22971FAF0EAFEE24DD2480E8C82E1A
:10550000BFE3BB2EADA9BEA96D917D918D919D91FB
:10551000BEABADABB9A5ADA5F9A9E9AD2B2F3A2F1F
:105520004F2F5E2F0E94D6B31B012C01EEADFFADB5
:105530002192319241925192FFAFEEAFE89457F829
:105540002296AEADBFAD22976D907D908D909D90CF
:105550002296BFAFAEAF2297C201B101A401930161
:105560000E9404B31816DCF4C401B301A201910136
:105570000E9408B1F62EA72E982E892E6E2D7D2D15
:105580008C2D9B2DF4012F2D3A2D4F2F5E2F0E9435
:1055900001B187FD04C0EF2CDA2CC92CB82CEDA981
:1055A000FEA9E017F10709F0ADCF6E2D7D2D8C2DF2
:1055B0009B2D20E030E040E85FE30E9401B187FFCF
:1055C0004DC0A1E26A2E712C6C0E7D1ED8016D912A
:1055D0007D918D919C912E2D3D2D4C2D5B2D0E940A
:1055E000D6B3F80161937193819391938F01E6157E
:1055F000F70561F78DE490E029A13AA1289F800189
:10560000299F100D389F100D1124045A194FD801ED
:1056100092966D917D918D919C9195972E2D3D2D1A
:105620004C2D5B2D0E94D6B3F80162A373A384A313
:1056300095A360AD71AD82AD93AD0E94A1B12E2D49
:105640003D2D4C2D5B2D0E94D6B30E9475B1D80123
:10565000D8966D937D938D939C93DB978DE490E02A
:10566000E9A1FAA1E89F8001E99F100DF89F100DB4
:105670001124045A194FD80150966D917D918D9146
:105680009C9153970E94A1B1F80126A537A540A986
:1056900051A90E9408B1562E472E382E292EF80106
:1056A00080819181A281B3810097A105B10569F53F
:1056B00084819581A681B7810097A105B10529F55F
:1056C00080859185A285B3850097A105B105E9F490
:1056D000A2019101652F742F832F922F209127060D
:1056E000309128064091290650912A060E94D6B38F
:1056F0000E94EEB00C5B1F4F0E9475B1D8016D93F4
:105700007D938D939C93139765C1A2019101652FA1
:10571000742D832F922D20912306309124064091E1
:105720002506509126060E94D6B30E94EEB00E9434
:1057300075B12DE430E0E9A1FAA1E29F8001E39F79
:10574000100DF29F100D1124045A194FF4E4AF2EDE
:10575000B12CA00EB11ED5016D937D938D939C93BA
:10576000139760903B0670903C0680903D069090A9
:105770003E060E94A1B16B017C01F801608171813C
:10578000828193810E94A3B19B01AC01C701B60144
:105790000E94D6B36B017C01D80150966D917D912A
:1057A0008D919C9153970E94A1B19B01AC01C701BF
:1057B000B6010E9408B17B018C01C401B3010E94B3
:1057C000A1B19B01AC01C801B7010E9404B3181636
:1057D0002CF4F501608271828282938260903F0690
:1057E0007090400680904106909042068DE490E0D3
:1057F00029A13AA1289F8001299F100D389F100DE3
:105800001124045A194FE4E4AE2EB12CA00EB11E9F
:10581000D5016D917D918D919C910E94A1B16B01FB
:105820007C01F80164817581868197810E94A3B112
:105830009B01AC01C701B6010E94D6B36B017C018C
:10584000D80150966D917D918D919C9153970E94B6
:10585000A1B19B01AC01C701B6010E9408B17B0157
:105860008C01C401B3010E94A1B19B01AC01C8012C
:10587000B7010E9404B318162CF4F50160827182FE
:105880008282938260904706709048068090490615
:1058900090904A068DE490E029A13AA1289F8001CA
:1058A000299F100D389F100D1124045A194F74E4CC
:1058B000A72EB12CA00EB11ED5016D917D918D91B9
:1058C0009C910E94A1B16B017C01F80164857585F2
:1058D000868597850E94A3B19B01AC01C701B601E3
:1058E0000E94D6B36B017C01D80150966D917D91D9
:1058F0008D919C9153970E94A1B19B01AC01C7016E
:10590000B6010E9408B17B018C01C401B3010E9461
:10591000A1B19B01AC01C801B7010E9404B31816E4
:105920002CF4F5016082718282829382609043063A
:105930007090440680904506909046068DE490E075
:1059400029A13AA1289F8001299F100D389F100D91
:105950001124045A194F64E4A62EB12CA00EB11ED6
:10596000D5016D917D918D919C910E94A1B16B01AA
:105970007C01F80160857185828593850E94A3B1C1
:105980009B01AC01C701B6010E94D6B36B017C013B
:10599000D80150966D917D918D919C9153970E9465
:1059A000A1B19B01AC01C701B6010E9408B17B0106
:1059B0008C01C401B3010E94A1B19B01AC01C801DB
:1059C000B7010E9404B318162CF4F50160827182AD
:1059D000828293828DE490E029A13AA1289F8001E0
:1059E000299F100D389F100D1124045A194FF801EA
:1059F000EC5BFF4F60817181828193810E94A1B134
:105A00006B017C01D201F1012B2F342D4F2F522D30
:105A10000E9408B1D801D2966D937D938D939C938B
:105A2000D597C701B6012DEB37E346E051E40E945C
:105A3000D6B30E9470B1F801648F758F868F978FEF
:105A400020912B0630912C0640912D0650912E0668
:105A500029A73AA74BA75CA7CA01B90120E030E00B
:105A600040E05FE30E94D6B3262E472E882E792E83
:105A7000498D5A8D6B8D7C8D24964CAF5DAF6EAF8A
:105A80007FAF249760912F06709130068091310688
:105A9000909132066DA77EA78FA798AB20E030E0EB
:105AA00040E05FE30E94D6B3E62E072F182FD92ED1
:105AB00024966CAD7DAD8EAD9FAD24979F772E2D36
:105AC000302F412F5D2D0E9404B3181684F4622DEF
:105AD000742D882D972D2E2D302F412F5D2D0E9456
